:020000040800F2
:100000000004002061010008F5440008F5440008E0
:10001000F5440008F5440008F5440008F5440008DC
:10002000F5440008F5440008F544000825310008AF
:10003000F5440008F5440008F5440008F5440008BC
:10004000F5440008F5440008F5440008F5440008AC
:10005000F5440008F5440008F5440008F54400089C
:10006000F5440008F5440008F54400083134000860
:10007000ED330008A9330008653300082133000878
:10008000DD32000899320008F5440008F544000804
:10009000F5440008F5440008F5440008F54400085C
:1000A000F5440008E5290008F5440008F544000877
:1000B000152C0008F5440008F5440008052E00083A
:1000C000112D0008F5440008F5440008F544000827
:1000D000F5440008252A0008F5440008F544000806
:1000E000F5440008F5440008F5440008F54400080C
:1000F000F5440008F5440008F5440008F5440008FC
:10010000F5440008F5440008F5440008F5440008EB
:10011000F5440008F5440008F5440008F5440008DB
:10012000F5440008F5440008F5440008F5440008CB
:10013000F5440008F5440008F5440008F5440008BB
:10014000F5440008F5440008F5440008F5440008AB
:10015000F5440008F5440008F5440008F54400089B
:1001600072B6264880F3098825484EF60851CEF22B
:1001700000010860022080F31488BFF36F8F04F041
:10018000F1F902F07BFF4FF055301E491E4A9142B3
:100190003CBF41F8040BFAE71C49184A91423CBFA6
:1001A00041F8040BFAE71A491A4A1B4B9A423EBF20
:1001B00051F8040B42F8040BF8E700201749184ADD
:1001C00091423CBF41F8040BFAE704F095F904F0C2
:1001D000C7F9144C144DAC4203DA54F8041B884799
:1001E000F9E700F06DFD114C114DAC4203DA54F803
:1001F000041B8847F9E704F0B1B9000000080020AB
:10020000000000080000002000040020000400207E
:100210002880000800080020281100202811002054
:10022000082A002060010008600100086001000841
:10023000600100082DE9F04FC1F80CD0C3689D465D
:10024000BDE8F08F03F094FF03F028FD002383F353
:1002500011882846A047002004F01CF903F030FD67
:1002600003F0B0FF03F080FD03F082FF03F016FD02
:1002700000DFFEE781F0004102E000BF83F00043B1
:1002800030B54FEA41044FEA430594EA050F08BF31
:1002900090EA020F1FBF54EA000C55EA020C7FEAF5
:1002A000645C7FEA655C00F0E2804FEA5454D4EB72
:1002B0005555B8BF6D420CDD2C4480EA020281EA3C
:1002C000030382EA000083EA010180EA020281EA74
:1002D0000303362D88BF30BD11F0004F4FEA0131C6
:1002E0004FF4801C4CEA113102D0404261EB4101D5
:1002F00013F0004F4FEA03334CEA133302D052425B
:1003000063EB430394EA050F00F0A780A4F1010416
:10031000D5F1200E0DDB02FA0EFC22FA05F2801850
:1003200041F1000103FA0EF2801843FA05F3594136
:100330000EE0A5F120050EF1200E012A03FA0EFCB5
:1003400028BF4CF0020C43FA05F3C01851EBE371DF
:1003500001F0004507D54FF0000EDCF1000C7EEBFC
:1003600000006EEB0101B1F5801F1BD3B1F5001F3A
:100370000CD349085FEA30004FEA3C0C04F1010459
:100380004FEA445212F5800F80F09A80BCF1004F82
:1003900008BF5FEA500C50F1000041EB045141EA04
:1003A000050130BD5FEA4C0C404141EB010111F405
:1003B000801FA4F10104E9D191F0000F04BF0146B0
:1003C0000020B1FA81F308BF2033A3F10B03B3F18E
:1003D00020020CDA0C3208DD02F1140CC2F10C021E
:1003E00001FA0CF021FA02F10CE002F11402D8BF7C
:1003F000C2F1200C01FA02F120FA0CFCDCBF41EA48
:100400000C019040E41AA2BF01EB0451294330BD16
:100410006FEA04041F3C1CDA0C340EDC04F11404F3
:10042000C4F1200220FA04F001FA02F340EA0300CA
:1004300021FA04F345EA030130BDC4F10C04C4F110
:10044000200220FA02F001FA04F340EA03002946F0
:1004500030BD21FA04F0294630BD94F0000F83F43A
:10046000801306BF81F480110134013D4EE77FEA1D
:10047000645C18BF7FEA655C29D094EA050F08BF69
:1004800090EA020F05D054EA000C04BF194610464A
:1004900030BD91EA030F1EBF0021002030BD5FEA8E
:1004A000545C05D14000494128BF41F0004130BDB6
:1004B00014F580043CBF01F5801130BD01F000450A
:1004C00045F0FE4141F470014FF0000030BD7FEA7D
:1004D000645C1ABF194610467FEA655C1CBF0B4678
:1004E000024650EA013406BF52EA033591EA030F8F
:1004F00041F4002130BD00BF90F0000F04BF002187
:10050000704730B54FF4806404F132044FF00005B9
:100510004FF0000150E700BF90F0000F04BF002132
:10052000704730B54FF4806404F1320410F0004598
:1005300048BF40424FF000013EE700BF42004FEA93
:10054000E2014FEA31014FEA02701FBF12F07F4310
:1005500093F07F4F81F06051704792F0000F14BF0D
:1005600093F07F4F704730B54FF4607401F0004551
:1005700021F0004120E700BF50EA010208BF7047A8
:1005800030B54FF000050AE050EA010208BF70479D
:1005900030B511F0004502D5404261EB41014FF406
:1005A000806404F132045FEA915C3FF4DCAE4FF00A
:1005B00003025FEADC0C18BF03325FEADC0C18BFF1
:1005C000033202EBDC02C2F1200300FA03FC20FA42
:1005D00002F001FA03FE40EA0E0021FA02F114448F
:1005E000C1E600BF70B54FF0FF0C4CF4E06C1CEAA4
:1005F00011541DBF1CEA135594EA0C0F95EA0C0F19
:1006000000F0DEF82C4481EA030621EA4C5123EA8B
:100610004C5350EA013518BF52EA033541F48011BA
:1006200043F4801338D0A0FB02CE4FF00005E1FB6D
:1006300002E506F00042E0FB03E54FF00006E1FBB7
:1006400003569CF0000F18BF4EF0010EA4F1FF04FA
:10065000B6F5007F64F5407404D25FEA4E0E6D413A
:1006600046EB060642EAC62141EA55514FEAC5204B
:1006700040EA5E504FEACE2EB4F1FD0C88BFBCF5C7
:10068000E06F1ED8BEF1004F08BF5FEA500E50F178
:10069000000041EB045170BD06F0004646EA01013E
:1006A00040EA020081EA0301B4EB5C04C2BFD4EB70
:1006B0000C0541EA045170BD41F480114FF0000E69
:1006C000013C00F3AB8014F1360FDEBF002001F0D7
:1006D000004170BDC4F10004203C35DA0C341BDC51
:1006E00004F11404C4F1200500FA05F320FA04F023
:1006F00001FA05F240EA020001F0004221F0004157
:1007000010EBD37021FA04F642EB06015EEA430EC9
:1007100008BF20EAD37070BDC4F10C04C4F12005F9
:1007200000FA04F320FA05F001FA04F240EA0200AC
:1007300001F0004110EBD37041F100015EEA430E7D
:1007400008BF20EAD37070BDC4F1200500FA05F29D
:100750004EEA020E20FA04F301FA05F243EA02031C
:1007600021FA04F001F0004121FA04F220EA02002B
:1007700000EBD3705EEA430E08BF20EAD37070BD71
:1007800094F0000F0FD101F00046400041EB010151
:1007900011F4801F08BF013CF7D041EA060195F033
:1007A000000F18BF704703F00046520043EB0303ED
:1007B00013F4801F08BF013DF7D043EA06037047DA
:1007C00094EA0C0F0CEA135518BF95EA0C0F0CD0E5
:1007D00050EA410618BF52EA4306D1D181EA03012B
:1007E00001F000414FF0000070BD50EA410606BF25
:1007F0001046194652EA430619D094EA0C0F02D16A
:1008000050EA013613D195EA0C0F05D152EA0336AE
:100810001CBF104619460AD181EA030101F00041CC
:1008200041F0FE4141F470014FF0000070BD41F015
:10083000FE4141F4780170BD70B54FF0FF0C4CF4EF
:10084000E06C1CEA11541DBF1CEA135594EA0C0F0E
:1008500095EA0C0F00F0A7F8A4EB050481EA030E5B
:1008600052EA03354FEA013100F088804FEA033342
:100870004FF0805545EA131343EA12634FEA022210
:1008800045EA111545EA10654FEA00260EF00041D1
:100890009D4208BF964244F1FD0404F5407402D223
:1008A0005B084FEA3202B61A65EB03055B084FEAB4
:1008B00032024FF480104FF4002CB6EB020E75EBB1
:1008C000030E22BFB61A754640EA0C005B084FEAD9
:1008D0003202B6EB020E75EB030E22BFB61A754656
:1008E00040EA5C005B084FEA3202B6EB020E75EBA1
:1008F000030E22BFB61A754640EA9C005B084FEA19
:100900003202B6EB020E75EB030E22BFB61A754625
:1009100040EADC0055EA060E18D04FEA051545EA14
:1009200016754FEA06164FEAC30343EA52734FEABD
:10093000C2025FEA1C1CC0D111F4801F0BD141EA36
:1009400000014FF000004FF0004CB6E711F4801F9B
:1009500004BF01430020B4F1FD0C88BFBCF5E06F7B
:100960003FF6AFAEB5EB030C04BFB6EB020C5FEA8B
:10097000500C50F1000041EB045170BD0EF0004EE0
:100980004EEA113114EB5C04C2BFD4EB0C0541EA12
:10099000045170BD41F480114FF0000E013C90E60F
:1009A00045EA060E8DE60CEA135594EA0C0F08BFD3
:1009B00095EA0C0F3FF43BAF94EA0C0F0AD150EAD2
:1009C00001347FF434AF95EA0C0F7FF425AF104665
:1009D00019462CE795EA0C0F06D152EA03353FF48D
:1009E000FDAE1046194622E750EA410618BF52EA0A
:1009F00043067FF4C5AE50EA41047FF40DAF52EADE
:100A000043057FF4EBAE12E74FF0FF3C06E000BF7A
:100A10004FF0010C02E000BF4FF0010C4DF804CD87
:100A20004FEA410C7FEA6C5C4FEA430C18BF7FEA47
:100A30006C5C1BD001B050EA410C0CBF52EA430C75
:100A400091EA030F02BF90EA020F0020704710F1F5
:100A5000000F91EA030F58BF994208BF90422CBF84
:100A6000D8176FEAE37040F0010070474FEA410C7D
:100A70007FEA6C5C02D150EA013C07D14FEA430C9B
:100A80007FEA6C5CD6D152EA033CD3D05DF8040B0C
:100A9000704700BF8446104662468C46194663463E
:100AA00000E000BF01B5FFF7B7FF002848BF10F115
:100AB000000F01BD4DF808EDFFF7F4FF0CBF01205A
:100AC00000205DF808FB00BF4DF808EDFFF7EAFFD6
:100AD00034BF012000205DF808FB00BF4DF808ED91
:100AE000FFF7E0FF94BF012000205DF808FB00BF86
:100AF0004DF808EDFFF7CEFF94BF012000205DF810
:100B000008FB00BF4DF808EDFFF7C4FF34BF01201C
:100B100000205DF808FB00BF4FEA410C7FEA6C5CE7
:100B200002D150EA013C0AD14FEA430C7FEA6C5CE7
:100B300002D152EA033C02D14FF0000070474FF05F
:100B4000010070474FEA410212F5001215D211D58B
:100B50006FF47873B3EB625212D94FEAC12343F0BA
:100B6000004343EA505311F0004F23FA02F018BF3C
:100B7000404270474FF00000704750EA013005D105
:100B800011F0004008BF6FF0004070474FF00000C8
:100B9000704700BF4A0011D212F5001211D20DD5D4
:100BA0006FF47873B3EB62520ED44FEAC12343F073
:100BB000004343EA505323FA02F070474FF000001D
:100BC000704750EA013002D14FF0FF3070474FF0CC
:100BD00000007047844641EA000313F0030349D143
:100BE000403A23D30B6803604B6843608B68836093
:100BF000CB68C3600B6903614B6943618B69836197
:100C0000CB69C3610B6A03624B6A43628B6A83627E
:100C1000CB6AC3620B6B03634B6B43638B6B836366
:100C2000CB6BC36340304031403ADBD230320BD320
:100C30000B6803604B6843608B688360CB68C3605C
:100C400010301031103AF3D20C3205D351F8043B76
:100C500040F8043B043AF9D2043208D0D2071CBF52
:100C600011F8013B00F8013B01D30B88038060467B
:100C7000704700BF082A13D38B07B1D010F00303CD
:100C8000AED0C3F10403D21ADB071CBF11F8013B3D
:100C900000F8013BA4D331F8023B20F8023B9FE768
:100CA000043AD9D3013A11F8013B00F8013BF9D2DB
:100CB0000B7803704B7843708B7883706046704775
:100CC00000224FF0FF30BC4B2DE980481D691861B0
:100CD0001A61DD68D860DA60D869B84D40F080509C
:100CE000D861D869B64E40F000606A60D861336858
:100CF000D5B043F48073336011461446B148B24F07
:100D0000B24B2A6001E050F8147C3C6043F831405B
:100D10000131072900F11400F5D14FF0FF374FF0F2
:100D20008833AB4D4FF0010929464FF48078A94E26
:100D3000A14A77609669DFF8FCC246F07D069661AD
:100D4000A54ECCF80C70CCF80430CCF80030F7602D
:100D500073603360A14ECCF80C78CCF80468CCF802
:100D600000389F4EDFF8D0C2F7607360C6F800C04D
:100D7000DFF8C8C2C6F80C74C6F80434C6F80034EC
:100D8000984E994B41F804CB6960F3629749143B44
:100D9000336306F10C037163F36095493361954B3E
:100DA00081F80090CB604C6074607461F46186F8E7
:100DB000009085F808906C61C5F83880D369AC6202
:100DC00043EA0903D3618C4A05F515715368296418
:100DD00043F40063ED622D655360884B8849C5F884
:100DE00054324FF080404BF67F33E9644FF6FF7189
:100DF000836205F10C03C162846105F15401EB606B
:100E000044632B6105F5AA73C4604FF0805EA9614D
:100E100044606962C0F814902962C0F80090EB61E8
:100E2000EB63AB646B646FF07F034FF0000A4FF02D
:100E3000000BDFF80C82734A05F130012963696306
:100E400028A882F81C33C2F880E108F11C03C2F81C
:100E500000E0C8F80080C8F80480C8F81C30C8F862
:100E600020302897A8F8247029942A942B94C8F845
:100E70000840C8F81080C8F81480A8F82640C8F8C0
:100E80002C40C8F83040C8F89840CDE92CAB02F0AF
:100E90000BFF28A802F0DAFE4FF0100C80204FF66E
:100EA000FF0E2A99584BC8F898105849584A1960AB
:100EB00003EB0C0119615961C8F850209C60554A38
:100EC000DC609C61544BC8F840001360534BC8F879
:100ED00074005360D8F81400514B08F13801C8F879
:100EE000A870C8F8C070C8F84C00C8F8A040C8F88E
:100EF000A440C8F8AC40C8F8B040C8F8B440C8E94D
:100F00002EABC8F8C440C8F8C840C8F8CC40C8E9FF
:100F100034AB88F85940C8F87040C8F86C4088F87D
:100F20005A90C8F848800161D8683E4A00EA0E002D
:100F300002430EF1604EC8F81410AEF60F3EDA60B0
:100F4000DEF80C20384842F08072C8F81810CEF84D
:100F50000C200168C8F880704FF0200741EA0901B1
:100F6000324A016083F81FC008F1600183F82270E3
:100F700008F16403C8F86430C8F8683008F18000EC
:100F8000C8F88440C8F88840C8F88C40C8E924AB49
:100F900088F85890C8F86010C8F8542002F084FE11
:100FA000D8F82C301BB9D8F83030002B4AD072B6A4
:100FB0001F4BC8F82830FEE700100240A829002087
:100FC0000070004034770008080002409428002098
:100FD0003826002000000240000C01408888388834
:100FE00000140140002600209477000800540040BF
:100FF00028110020002C0140002004E000380140AE
:101000008923000800E100E0381600204939000873
:10101000B877000830160020082A00200050002071
:1010200000ED00E00003FA05001000E000040020DD
:10103000DC7800080008014044888888EC790008C2
:10104000D028002083F3118862B6AE4C204603F00E
:10105000C9F820B172B6AC4BC8F82830FEE7234679
:10106000552104F1F80203F8011B9342FBD1202320
:1010700083F3118802F024FE03F0A4F802F064FE6A
:10108000022100270120002200234FF0FF3CDFF85F
:10109000D4E284F8B810C4F874E0DFF8CCE29B49DD
:1010A000C4F894E0DFF8C4E2D8F81490C4F8B0E0D3
:1010B00001F1240EC4F8A410C4F8A000C4F8D400B0
:1010C00084F8BA00C4F8B4407046C4F8A880A76792
:1010D000C4F8AC9084F8B970C4F8D070C4F8CC707F
:1010E000C9F810E0C8F814E001F14C0E5031C4E921
:1010F0003C23C4F8C0E0C4F8C410C4F8C810C4F855
:10110000E0C0C4F8E470C4F8E870C4F8EC7003F010
:10111000E1FE03F03DF87E497E4BDFF854E20B60C0
:10112000CB608B6010334B6001F118037A4A8B61FE
:10113000CB6101F12003794C0B624B6278480EF1D0
:10114000100353600F6102F120030F7502F11801C3
:1011500017611775C2F800E0C2F80CE0C2F808E0A9
:101160009161D16113625362A7602460646000F1F1
:10117000F002824200604060876006D01030F8D1F3
:1011800072B6684BC8F82830FEE76749604804F03B
:101190001BF866495E4804F017F865495C4804F09E
:1011A00013F864495A4804F00FF807224FF400512D
:1011B000614801F0FFFF07222021604801F0FAFF9B
:1011C000202484F3118802F07BFD02F0FBFF2B7AD0
:1011D0005A1E012A04D972B6594BC8F82830FEE7C6
:1011E000012B0BD1C0205749574B8A6942F48042EA
:1011F0008A6183F82503C3F884415C60D022D5F866
:1012000054324FF0400E0020012742F22C149A6015
:10121000FF210222C3F810E05F61DC6018601868EB
:101220005B6885F858122A7202F0A2FF02F036FDC0
:10123000D8F80030434505D0D8F818209B6892684C
:101240009A4259D3002383F3118811224FF400717D
:101250003E4801F0AFFF02224FF480613B4801F0AD
:10126000A9FF33785A1E012A06D9052B04D072B67D
:10127000374BC8F82830FEE7202383F3118802F0AB
:101280001FFD02F09FFF3778324B012F7360746BA4
:1012900000F032854FF4004C00254FF4106EF16AD7
:1012A000326B70684F684368516804F11002BA608D
:1012B000294F03F1FF398A60B945C4F800C02560A1
:1012C000C4F804E0027A716B00F211854FF6C07C1D
:1012D0004F68DFF8A0E007EA0C074F604F687345DE
:1012E00047F018074F6000F3F784012A44D072B624
:1012F0001A4BC8F82830FEE772B6194BC8F82830E8
:10130000FEE700BF38150020A8760008AC150020C5
:1013100038080020781600201008002088160020C9
:101320009816002098760008381100203812002006
:10133000381300203814002000100140000C014038
:10134000047700080010024000E100E000080140BE
:10135000C0760008D0770008FF083D00DC76000862
:101360008C760008ED3B000845020008E478000890
:1013700068160020A0860100984D5B0095FBF3F2F3
:1013800003FB1253002B40F0A28492B2032A40F2D6
:1013900023851923B2F5805F0B62C2F30B0380F043
:1013A0001685CB6102780B68022A9BB200F0198582
:1013B000032A00F08884012A02D123F00A039BB299
:1013C00002220B60236843F001032360327002F0B5
:1013D000CFFE02F063FCD8F80030434506D0D8F8C1
:1013E00018209B6892689A42C0F06884002585F3B3
:1013F0001188112240217A4801F0DCFE112280215F
:10140000774801F0D7FE774B54AC9D601B605B6062
:10141000802004F8E05D05F0FBFC802306462146B1
:10142000009301220346502003F02CFF32462B4646
:101430006D4F6E4D6E486F49B2F800C0B2F802E0D1
:1014400027F813C025F813E0B2F804C0B2F806E09C
:1014500020F813C021F813E00133102B02F1080229
:10146000EAD10025644F30461DAE05F0D9FC0FCF00
:101470000FC60FCF0FC697E8070086E807005F4842
:1014800043780278C1781B0443EA026382780B43F5
:1014900043EA022328AA42F825300135042D00F141
:1014A0000400EDD1564827A9AA070B691AD14FEAC3
:1014B00033631E0EDAB2865D825CC3F3074742EAED
:1014C0000662C3F3072325F0030610F807E0C75CA4
:1014D000334654AE334442EA0E4253F8DC3C42EA0F
:1014E0000722534051F8042F013553402C2D0B6136
:1014F000DAD1102005F08CFC06461290102005F081
:1015000087FC81460290102005F082FCF0230746FC
:1015100009903C488DF8703002F0D0FA1022214634
:10152000334600925020012203F0ACFE354802F011
:1015300055FA354B354C93E8070087E807004A46D3
:10154000FC60002A00F07B83002E00F0788396E890
:101550000F001DAC84E80F0050A9204601F02CFDBF
:1015600028AB1A4600239DF87E009DF876108DF872
:1015700076008DF87E109DF87B009DF877108DF831
:1015800077009DF883008DF883109DF87F108DF80B
:101590007F008DF87B109DF875009DF879108DF80F
:1015A00079009DF87D008DF87D109DF881108DF8F3
:1015B00081008DF875109DF882009DF87A108DF8E5
:1015C0007A008DF882101DA9C95C1148415C1DA8E4
:1015D000C1540133102BF6D11CE000BF00366E0160
:1015E000000C01405816002060080020A0080020D0
:1015F000C00800208008002060760008A877000856
:10160000EC7800080C260020E8F7FF1F46EE6898EB
:10161000DC7700089DF88200D2F890509DF8747035
:101620000E909DF8830087EA15670F9038469DF865
:101630007A309DF87870039305979DF87E309DF879
:101640007C70D2F898109DF87DB0D2F894409DF847
:1016500077C09DF875A09DF876909DF87B60049307
:1016600007979DF87F309DF880708BEA114B89EACF
:1016700015299DF879E00A931B92D2F89C300C97BB
:101680009DF881200D908AEA154A039F8CEA050592
:10169000CDF818B086EA040C049E87EA142786EA7F
:1016A000112B0A9ECDF820B086EA010B0E9ECDF8D4
:1016B0002CB086EA132B0F9ECDF838B086EA030BC8
:1016C0005FFA89F65FFA87F9059F8EEA144ECDF826
:1016D0003CB05FFA85FB5FFA8EF587EA146E9DF8E1
:1016E0002C4004959DF818500694079C82EA1342FA
:1016F000CDF828E084EA116ECDF82CE00C9C5FFA5E
:1017000082FE9DF83C109DF82070CDF81CE09DF8FD
:1017100038E084EA13645FFA8AFACDF850E0089161
:10172000CDF80CA013955FFA8CFA05970C9401F094
:1017300039FC054601F036FC0E9001F033FC0446FE
:101740000E9B039F634038461594DCB20F9401F062
:1017500029FC87EA060304460E93039701F022FC56
:10176000179001F01FFC0E9B07468BEA03036B40AA
:101770006340DBB2304610931195169401F012FCD1
:10178000189001F00FFC0E9001F00CFC109B0E99CC
:101790007B4041405FFA83FE1990CDF838E058460F
:1017A0005FFA81FECDF840E001F0FCFB3C460746C5
:1017B00001F0F8FB1A9001F0F5FB0D9A039B82EA09
:1017C000030182EA0603119A4E405640159A8BEAAD
:1017D000030353405640169A189D8BEA010161405D
:1017E000534069406B403D46199A794056406E40DF
:1017F0000E9D179F53400F9A85EA000C41401A9D99
:1018000087EA040E82EA0C0C5140109A5FFA8EFEB1
:10181000454082EA0C0C51408EEA03038EEA06062C
:10182000E8B25FFA8CF44340CFB2464016940A986F
:10183000DCB21097F7B20F94119701F0B3FB03904D
:1018400001F0B0FB064601F0ADFB8346049F86EA3B
:101850000B015FFA81FE3846754601F0A3FB049741
:10186000044601F09FFB179001F09CFB1B9A87EA4E
:101870000906103A1B92039A07468AEA060648466A
:101880005640159401F08EFB1A9001F08BFB0D90E1
:1018900001F088FB0D9B189043405FFA83FE504691
:1018A000CDF838E001F07EFB66400D903C4601F03B
:1018B00079FB199001F076FB2246F6B27E400A9938
:1018C000F7B2049E81EA060381EA0906039989EAD0
:1018D00003098AEA06068AEA030381EA09091599D7
:1018E0008BEA06066340179C4E401A9984EA020E62
:1018F000189C0D9A4B408BEA09094E4082EA03017D
:1019000080EA0703199F84EA090982EA09095FFA54
:101910008EFE87EA000C5FFA8CFC66408EEA0909AD
:101920008CEA090941408EEA06060E988CEA060602
:101930005FFA89FE6B40694043404140CDF838E092
:101940005FFA86FEDFB20B98CDF828E05FFA81FEE1
:10195000CDF834E0159701F025FB074601F022FB96
:10196000064601F01FFB8346139D86EA0B065FFACD
:1019700086FE2846744601F015FB824601F012FBF4
:10198000179001F00FFB5146059E069A6E40564097
:1019900081467E4005984E400497CDF84CA001F05A
:1019A00001FB189001F0FEFA039001F0FBFAF6B289
:1019B000039B89EA06014340CFB282460698DEB215
:1019C000039701F0EFFA199001F0ECFA1A9001F088
:1019D000E9FA0B9A059F82EA050182EA0703049D52
:1019E000069A4F4053406F40139D51408BEA0303CA
:1019F000179A6B40189D89EA010182EA0909199A30
:101A0000694082EA010E03998BEA07075D401A9B41
:101A10008AEA0707414057405FFA89F943408AEA5A
:101A200005056140714089EA050580EA0E00DBB2D8
:101A300089EA07075FFA81FE60405F406B40CDF89E
:101A40002CE086EA00055FFA83FE0C98FFB2CDF821
:101A50000CE05FFA85FECDF810E0059701F0A2FAE0
:101A6000834601F09FFA054601F09CFA0746079E5F
:101A70007D403046EDB2069501F094FA0796824615
:101A800001F090FA179001F08DFA81465046149CAF
:101A9000089B66405E408BEA060646402046CDF82D
:101AA00050A001F07FFA199001F07CFA824601F013
:101AB00079FAF6B289EA06065FFA86FE05468AEAF0
:101AC000000A0898CDF84CE001F06CFA064601F0E7
:101AD00069FA189001F066FA22460C99079B5FFAA2
:101AE0008AFA81EA030E089B6140594083EA0E049A
:101AF000149B794082EA0E0E5940199B179A89EA85
:101B000004048BEA0E0E5C40594087EA0E0E189BC7
:101B100085EA0E0E82EA0909694086EA0E0E5FFA2E
:101B200089F9434089EA0E0EDBB289EA0101594086
:101B300083EA0E039DF858E0069D8DF874E09DF849
:101B400054E074408DF878E09DF82CE0139E8DF8F9
:101B50007CE09DF834209DF83CE08DF87A209DF8DB
:101B6000382044408DF87B209DF80C2070408DF883
:101B70007D209DF8102068408DF87E209DF814206F
:101B80008DF875E09DF840E06C408AEA00008DF821
:101B90007F201B9A8AEA04048DF876E09DF828607D
:101BA0009DF844E08DF8800004A8E5B2C9B2DBB22C
:101BB00090428DF877E08DF879608DF882508DF83D
:101BC00081108DF883307FF4CDAC1C4600239DF846
:101BD00010208DF875108DF876209DF838208DF83E
:101BE0007A508DF877209DF83C208DF87D608DF837
:101BF00079209DF814208DF87F408DF87B209DF88A
:101C000040208DF883E08DF87E209DF80C208DF823
:101C100081209DF834208DF882201DAAD25CA9492C
:101C20008A5C1DA9CA540133102BF6D128A91DA81E
:101C300001F0C2F9029C1DAB0FCB84E80F0010220B
:101C40000999029805F096FB10B901229E4B1A7073
:101C5000129805F0E5F8029805F0E2F8099805F009
:101C6000DFF89A4B8222E821994803F03BFA994B1E
:101C700081224FF43A71984803F034FA974B80224E
:101C80004FF43A71964803F02DFA964B80224FF4A8
:101C90009D61954803F026FA202383F3118802F012
:101CA0000FF802F08FFA914B1B785A1E012A40F26E
:101CB0009F8072B68E4BC8F82830FEE772B68D4B07
:101CC000C8F82830FEE743F00A03FFF779BB72B685
:101CD000894BC8F82830FEE7884FBB4255DC951E7B
:101CE000012D3DD972B6844BC8F82830FEE772B694
:101CF000814BC8F82830FEE79A238A210022804DC4
:101D0000B3622B69F06A43F4001371622B617D4961
:101D10002A6103F087F900284FD17B49306B03F02B
:101D200081F9002844D150204FF0004EEA69736ACF
:101D300042F40012EA61B26A43F44051734B42F438
:101D4000405283F81F03C3F880E17162C3F800E0DA
:101D5000B26283F82003C3F884715F60FFF79ABA18
:101D6000022A1AD0192202FB03F2694D95FBF2F305
:101D700002FB135262B94FF480429BB20825134311
:101D800043F400430D62FFF70CBB2B46FFF709BB82
:101D900072B6594BC8F82830FEE75D4D03EB43039C
:101DA00095FBF3F203FB125565B993B22A46E5E7BA
:101DB00072B6584BC8F82830FEE772B6554BC8F8D3
:101DC0002830FEE772B64C4BC8F82830FEE772B6F2
:101DD000494BC8F82830FEE772B6474BC8F82830A0
:101DE000FEE723F008039BB243F00203FFF7E8BAD3
:101DF00049493E4A012B516016D100264FF000742C
:101E000070253F4B9A6942F400629A61D8683F4A54
:101E100040F40060D860DE603448404B82F81953CB
:101E20008360C2F880411460304B0A689868B0FB48
:101E3000F2F3013B9BB203FB0222904204D072B644
:101E4000374BC8F82830FEE700240220274A8D6867
:101E5000D268C968146021F0FF0155609362234B7A
:101E60001461D160187001F03FFB202383F31188C7
:101E700001F026FF02F0A6F901F066FF1B4B1B786C
:101E8000022B04D072B6274BC8F82830FEE7622533
:101E900001210320154B5A68DB685268DD62134D3F
:101EA000596128705C621C6112B1DA680A43DA6019
:101EB00085221A6001F018FB4FF47A7002F0BCFA28
:101EC000FAE700BFDC77000864160020B929000893
:101ED00098170020594C000850200020A94A0008FB
:101EE00080180020E9450008681B00202811002008
:101EF000B4760008387D0008DC760008801A0600F9
:101F00000010024041310008E930000800E100E023
:101F100000366E010C77000800080020006CDC021F
:101F2000CC760008F0760008704700BF704700BF0D
:101F3000F8B545A3D3E9002304460D46FEF7C4FDDA
:101F4000002850D142A3D3E9002320462946FEF7BA
:101F5000BBFD40BB40A3D3E9002320462946FEF742
:101F6000B3FD00284ED13EA3D3E9002320462946E5
:101F7000FEF738FB22462B46FEF734FB3AA3D3E9A3
:101F8000002306460F4620462946FEF72BFB024655
:101F90000B4630463946FEF771F935A3D3E90023E5
:101FA000FEF76EF9F8BD34A3D3E900232046294695
:101FB000FEF718FB22462B46FEF714FB30A3D3E9AD
:101FC000002306460F4620462946FEF70BFB024635
:101FD0000B4630463946FEF751F92BA3D3E90023CF
:101FE000FEF74EF9F8BD00222F4B20462946FEF79A
:101FF000F9FA22462B46FEF7F5FA00222B4BFEF7A4
:10200000F1FAF8BD22A3D3E9002320462946FEF7C2
:10201000E9FA22462B46FEF7E5FA1FA3D3E900238F
:1020200006460F4620462946FEF7DCFA02460B46D6
:1020300030463946FEF722F919A3D3E90023FEF70B
:102040001FF9F8BDAFF3008046175D74D145D73F47
:1020500046175D74D145E73FCDCCCCCCCCCCEC3F22
:102060009A9999999999254085EB51B81E853440E4
:10207000713D0AD7A37025406666666666262240D3
:10208000CDCCCCCCCCCC23403333333333330B40A7
:10209000A7F48FED09222840A4A76A50ADA23340CF
:1020A00044EFCDA4CECB214000405E400000B03FC5
:1020B00038B50022184B04460D46FEF705FD2246B2
:1020C0002B4690B920462946FEF7DAF80022134B3A
:1020D000FEF7D4F8FFF72CFF00220F4BFEF782FA31
:1020E00000220D4BFEF7CCF838BD20462946FEF7FE
:1020F000C7F802460B4600200849FEF7BFF8FFF775
:1021000017FF02460B4600200449FEF7B7F80022ED
:10211000014BFEF767FA38BD0000E03F0000F03FDA
:1021200008B502460B4600200549FEF7A7F8FFF761
:10213000FFFE02460B4600200149FEF79FF808BD4E
:102140000000F03F38B500221B4B04460D46FEF759
:10215000BBFCF0B9204629460022184BFEF78EF84A
:1021600004460D460022164BFEF73CFA22462B464B
:10217000FEF738FA22462B46FEF734FA22462B4663
:10218000FEF730FA02460B4600200C49FEF776F8BF
:1021900038BD00220A4B20462946FEF723FA224684
:1021A0002B46FEF71FFA22462B46FEF71BFA224665
:1021B0002B46FEF717FA38BD0000E03F0000F03F65
:1021C00000002040F8B50022104B06460F46FEF7EF
:1021D00055F804460D4602460B46FEF703FA224622
:1021E0002B46FEF7FFF9324604460D463B460020DB
:1021F0000649FEF743F802460B4620462946FEF7FD
:10220000F1F90022014BFEF73BF8F8BD0000F03F6A
:1022100038B504460D4602460B46FEF7E3F9224662
:102220002B46FEF7DFF922462B46FEF7DBF938BDD9
:1022300038B50022194B04460D46FEF745FCE8B9B7
:1022400022462B4620462946FEF71AF800224FF078
:102250008043FEF713F804460D4600220F4BFEF7AD
:10226000C1F922462B46FEF7BDF922462B46FEF762
:10227000B9F900220A4BFEF703F838BD0022094BDA
:1022800020462946FEF7AEF922462B46FEF7AAF96C
:1022900022462B46FEF7A6F938BD00BF0000E03FFE
:1022A0000000F03F0000104038B50022084BFDF759
:1022B000E5FF04460D4602460B46FEF793F922461B
:1022C0002B46FEF78FF90022014BFDF7D9FF38BDF1
:1022D0000000F03F38B504460D4602460B46FEF7B7
:1022E00081F922462B46FEF77DF938BDF8B500226C
:1022F000174B04460D46FEF7E7FBE8B900224FF006
:10230000404320462946FEF76DF922462B46FEF74C
:1023100069F9002206460F460E4B20462946FEF775
:1023200061F902460B4630463946FDF7A9FF002207
:10233000094BFDF7A3FFF8BD22462B462046294650
:10234000FDF79EFF22462B46FEF74CF9F8BD00BF75
:102350000000E03F000010400000F03F38B50446A8
:102360000D4622462B4600204FF08041FDF786FFA8
:1023700022462B46FEF736F938BD00BF08B50246A7
:102380000B46FEF72FF908BD024AD36843F08003DD
:10239000D36070470038014038B50022002304465E
:1023A0000D46FEF787FB38BB00221F4B204629460F
:1023B000FEF780FB00BB00221C4B20462946FEF79F
:1023C00083FBE0B9204629460022194BFEF70AF9A3
:1023D00002460B4600201749FDF750FF03F0B8F8FE
:1023E0000022124BFEF7FEF802460B4600200E4973
:1023F000FDF744FF04460D462046294638BD2046D9
:10240000294600220A4BFEF7EDF80022094BFDF7A2
:1024100035FF03F09DF80022044BFEF7E3F8044675
:102420000D462046294638BD0000F03F0000E03F41
:10243000000034400000244038B500220B4B044615
:102440000D46FEF737FB10B10020084938BD0022C9
:10245000074B20462946FEF7C5F803F079F80246F7
:102460000B4600200149FDF709FF38BD0000F03F91
:10247000000024C038B50022002304460D46FEF7B4
:1024800019FB10B10020002138BD2046294600224A
:10249000054BFDF7F3FE054B0022FEF7A3F8BDE860
:1024A000384003F055B800BF0000F03F0000244062
:1024B000F8B50022344B04460D46FEF705FB2246D4
:1024C0002B4670BB20462946FDF7DAFE00222F4B33
:1024D000FDF7D4FE00222D4B06460F46FDF7D0FE39
:1024E00025A3D3E90023FEF77DF802F0E7FF0022E1
:1024F00004460D46264B30463946FEF773F803F086
:1025000027F802460B4620462946FEF76BF80022C4
:102510004FF08043FDF7B4FE00221B4BFEF762F83C
:10252000F8BD20462946FDF7ABFE15A3D3E90023ED
:1025300004460D46FEF756F802F0C0FF002206469C
:102540000F46124B20462946FDF798FE0022114BFC
:10255000FEF748F802F0FCFF04460D4600220A4B45
:1025600030463946FEF73EF822462B46FEF73AF84B
:10257000F8BD00BFAFF30080A46477349C6B34C017
:10258000A46477349C6B34400000E03F0000F03FCF
:10259000000024C000002440F8B50022124B06467B
:1025A0000F46FDF76DFE0EA3D3E90023FEF71AF8E0
:1025B00002F084FF002204460D460C4B304639469B
:1025C000FEF710F802F0C4FF02460B4620462946EB
:1025D000FEF708F80022044BFDF752FEF8BD00BFDD
:1025E000A46477349C6B34C00000F03F000024C02A
:1025F000F8B50FA3D3E9002306460F46FDF7F2FF17
:1026000002F05CFF002204460D460B4B3046394673
:10261000FDF734FE0022094BFDF7E4FF02F098FFBE
:1026200002460B4620462946FDF7DCFFF8BD00BFF9
:10263000A46477349C6B34400000F03F00002440D9
:102640002DE9F84300223E4B04460D46FEF73CFAC6
:1026500022462B46002840D120462946FDF710FE91
:102660000022384BFDF70AFE02460B460020354992
:10267000FDF704FE30A3D3E9002304460D46FDF721
:10268000B1FF02F01BFF2246804689462B462046BA
:102690002946FDF7A7FF22462B46FDF7A3FF42463A
:1026A00006460F464B4620462946FDF79BFF02464D
:1026B0000B4630463946FDF7E1FD02460B46002049
:1026C0002049FDF7DBFD00221D4BFDF78BFF0022AB
:1026D0001B4BFDF7D5FDBDE8F88320462946FDF7E5
:1026E000CFFD15A3D3E9002304460D46FDF77AFF7D
:1026F00002F0E4FE2246804689462B4620462946C3
:10270000FDF770FF22462B46FDF76CFF424606465A
:102710000F464B4620462946FDF764FF02460B460E
:1027200030463946FDF7AAFD0022054BFDF75AFF5A
:10273000BDE8F883AFF30080182D4454FB21094015
:102740000000E03F0000F03F2DE9F84302460B4651
:1027500000201949FDF792FD15A3D3E90023044693
:102760000D46FDF73FFF02F0A9FE2246804689464E
:102770002B4620462946FDF735FF22462B46FDF71E
:1027800031FF424606460F464B4620462946FDF796
:1027900029FF02460B4630463946FDF76FFD0246DB
:1027A0000B4600200449FDF769FDBDE8F88300BF32
:1027B000182D4454FB2109400000F03F00000000A8
:1027C0002DE9F84312A3D3E9002304460D46FDF793
:1027D00009FF02F073FE2246804689462B462046BA
:1027E0002946FDF7FFFE22462B46FDF7FBFE42463B
:1027F00006460F464B4620462946FDF7F3FE0246A5
:102800000B4630463946FDF739FDBDE8F88300BF79
:10281000182D4454FB21094008B507A3D3E9002330
:10282000FDF7E0FE064B0022FDF7DCFEBDE80840A8
:1028300002F044BEAFF30080182D4454FB21094040
:102840000000E03F0000000008B500220C4BFDF73F
:1028500015FD09A3D3E90023FDF7C4FE0022094BAF
:10286000FDF7C0FE02F02AFE0022054BFDF708FD31
:1028700008BD00BFAFF30080182D4454FB21094070
:102880000000F03F0000E03FF8B50022244B044672
:102890000D46FEF719F930BB22462B462046294645
:1028A000FDF7EEFC04460D4602460B4600201D498E
:1028B000FDF7E4FC002206460F461B4B2046294646
:1028C000FDF7DCFC02460B4630463946FDF78AFE32
:1028D00002F0B6FE0022144BFDF7D2FC0022104B92
:1028E000FDF780FEF8BD0022104B20462946FDF77B
:1028F00079FE22462B46FDF775FE02460B46002068
:102900000949FDF7BBFC02F09BFE02460B46002086
:102910000549FDF7B3FC0022014BFDF763FEF8BD4E
:102920000000E03F000008400000F03F00001040C1
:1029300038B504460D4622462B4600204FF0804114
:10294000FDF79CFC22462B46FDF74CFEBDE83840C7
:1029500002F076BE08B502460B46FDF743FE02467E
:102960000B4600200549FDF789FC02F069FE02468E
:102970000B4600200149FDF781FC08BD0000F03F37
:1029800008B509A3D3E90023FDF72CFE02F04EFDA4
:1029900002460B4600200649FDF770FC0022054B5D
:1029A000FDF720FE08BD00BF182D4454FB2109404F
:1029B0000000F03F0000E03F08B5074B074A9B6965
:1029C000074C9A61E3684FF4FA7083F40053E360B4
:1029D00001F032FDF6E700BFD02800200C7A000895
:1029E0000010014008B501F003F901F051FB00218E
:1029F0000B4B1878DA680428116107D1022018708F
:102A000011601161D16821F0FF01D1605B68044859
:102A10005B68984701F026FBBDE8084000F00EBC5B
:102A2000281100202DE9F843774D01F0E1F801F07D
:102A30002FFBD5F85462D6F80C903368D8059CB2B9
:102A400000F19380202383F3118801F033F901F022
:102A500047FB14F02F0F43D0DFF8B48107E0A10645
:102A600077681CD43468A4B214F02F0F38D0210733
:102A7000F5D014F0080F0CBF00208020E20748BFFB
:102A800040F02000A30748BF40F04000670748BF60
:102A900040F4807002F07CFAA1067768E2D501F07C
:102AA00053F96B6995F8584273B301F04DF92B6AED
:102AB0006A6A934231D06A69591C013227406A61BF
:102AC00029621F702A6AEB699A4201D3AB692B62B3
:102AD000404602F043FA3468A4B214F02F0FC6D176
:102AE00001F0ECFA01F0D4F8002383F3118819F017
:102AF000800F01D022064ED4630616D401F0B2FA3C
:102B0000BDE8F84300F09ABB042002F041FA01F05E
:102B10001BF92B6A6A6A9342CDD16A69002ACAD02E
:102B20004FF4806002F034FA9CE7202383F311888D
:102B300001F0C0F801F0D4FA6A6CAB6C9A424ED046
:102B40004FF6BF736FF0400209EA0303F36032608F
:102B500001F0B4FA01F09CF8002383F3118801F02E
:102B600081FABDE8F84300F069BB202383F31188A4
:102B700001F0A0F801F0B4FA4FF4007002F008FA86
:102B80006FF48073336001F099FA01F081F800234B
:102B900083F3118856E7202383F3118801F08AF824
:102BA00001F09EFA01F0D0F8AB6C6A6C9A421DD02D
:102BB000AA6B286C591C0132AA63A96481421F7850
:102BC00001D3EB6BAB64114802F0C8F9776001F0F8
:102BD00075FA01F05DF8002383F311888CE7AB6B85
:102BE000002BADD0102002F0D3F9A9E7AA6B002A80
:102BF000DED0082002F0CCF94FF63F7309EA030358
:102C000043F04003F360E2E7382600206826002006
:102C1000442600202DE9F0474FF0804600F0E8FF01
:102C200001F036FA33699B0705D401F01BFABDE8C1
:102C3000F04700F003BB00274FF02008376188F30E
:102C40001188314D01F036F801F04AFA01F07CF8B4
:102C500001F07AF8736AE98CEC699BB2581A228900
:102C600080B2904238BF05F11C0627D3B9463746DB
:102C700005F11C0623680A44B342EA84D4F80CA088
:102C80005E60EB61C4F80C9008BFC7F80C9001F0CF
:102C900015FA00F0FDFF89F311882069D04788F309
:102CA000118801F007F801F01BFA7B6AE98CEC69E6
:102CB0009BB2581A228980B28242DBD9B44216D024
:102CC0000A44D21A92B2022A2CBF9C189C1CA0B2B1
:102CD00000F0A4FA4FF080435A6AE98C92B2631A6A
:102CE000521A9A4203DD72B6084BAB62FEE701F05E
:102CF000E5F900F0CDFF002383F3118801F0B2F96C
:102D0000BDE8F04700F09ABAD0280020147A0008F5
:102D1000F8B53A4C636B5D6900F06AFF01F0B8F9F1
:102D200005F45F42D2430E23266B616B77684A61DC
:102D30003868E26A20F00F003860307C376803FAA8
:102D400000F0566878603068176820F00F00306037
:102D5000107CAAB283407B6012F480731BBF0120F9
:102D60000346A360A060960544BF43F00203A3603E
:102D700050050AD5486843F0040320F40070486009
:102D8000086840F400700860A360170544BF43F072
:102D90000803A360560444BF43F02003A360D0049B
:102DA0001DD543F010032904A36022D4202383F30C
:102DB000118800F07FFF01F093F96FF001011048D6
:102DC00001F036F901F07AF900F062FF002383F395
:102DD000118801F047F9BDE8F84000F02FBA2A0445
:102DE00007D4002BE2D101F03DF9BDE8F84000F036
:102DF00025BA43F04003A360D8E700BF00260020B7
:102E00001C260020F8B5424D00F0F2FE01F040F91A
:102E10006C6B404AA369666946EA034323F07F432B
:102E2000934250D020D8073A934240D00132934287
:102E300010D16268EB6A22F400725B6862601A6803
:102E400042F001021A60626842F4805262605B687C
:102E5000012B58D916F00A0F18BFA36901F002F927
:102E6000BDE8F84000F0EAB92B4A934214D0023290
:102E70009342EFD1EB6A5B685F684FB32A8C23689B
:102E800042F0010243F4A0632A84236001F0EAF8CF
:102E9000BDE8F84000F0D2B963682A6B23F40073F0
:102EA00052686360136843F001031360D2E72B8C10
:102EB0001A0A0BD003F0010343F0F00302F00602FC
:102EC00013432361C6E72B8CC3F347032361C1E798
:102ED0006368202223F400736360236843F4007363
:102EE000236082F3118800F0E5FE01F0F9F839461D
:102EF00005F11C0001F09CF801F0E0F800F0C8FEBC
:102F000087F31188A6E7236823F480632360A1E791
:102F10000026002008000300820007002DE9F0478A
:102F200000261A4C1A4FDFF87490DFF87480194DA0
:102F300082B004F5207A3B46F4E80A013246FDF7F8
:102F40009FF9FDF727FE39F8023F80B2834228BF80
:102F5000034638F8020F984238BF184654454FEAE6
:102F60001023E87005F8043FE5D10B4800F0A6FDFA
:102F70000023412200930749402002F083F90648CC
:102F800002B0BDE8F04700F029BD00BF802300205B
:102F90000000E03F382300200C2600207E0800209F
:102FA000BE080020C3095A00134403EBC30383EA9D
:102FB0004000C0B2704700BFCB78027830B45340B5
:102FC00003704A8844788378624042700C68C27803
:102FD00083EA142383700B6805795A40C270CB7959
:102FE00044796B400371CA888379624042714C68AE
:102FF000C27983EA142383714B68057A5A40C271FF
:10300000CB7A447A6B4003724A89837A6240427277
:103010008A68057B83EA122383728A68C37A447BB9
:103020005340C372CA7B6A400273CB89827B634080
:103030004373CC68C37B82EA14228273CA6830BCB3
:103040005340C373704700BF002908DB10B500224E
:1030500004460846042100F077FC28B110BD72B682
:10306000044B054A9A62FEE70C234FF0FF302360C1
:1030700010BD00BFD0280020207A0008174B194649
:103080001A6842F001021A600B689A07FCD500200A
:103090000B68124A03F0F9030B604860536813F0A1
:1030A0000C0FFBD153680D4943F420135360136890
:1030B00043F0807313600B689B01FCD51122084B11
:1030C000084848601A604B68044A43F002034B60AA
:1030D000536803F00C03082BFAD17047001002402C
:1030E00000200240006468000B0712D40E23026B1C
:1030F00030B4546815682168406B21F00F012160DD
:10310000127C93406B60436830BC43F400734360AF
:10311000704772B6014B024A9A62FEE7D02800203F
:10312000DC7A000880B400AFEFF30983203383F327
:103130000988002383F31188BD4680BC704700BF17
:10314000F8B511F008052BD10E22C16A436B4E6809
:10315000044630680F6820F00F003060087C2021A2
:1031600082407A605A6822F480525A601A6822F4C7
:1031700080621A601A6842F400721A6081F3118842
:1031800000F098FD00F0ACFF294604F11C0000F0AF
:103190004FFF00F093FF00F07BFD85F31188F8BD31
:1031A00072B6024B024A9A62FEE700BFD0280020A6
:1031B000DC7A0008032AF0B52CD0042A08BF41614C
:1031C000002508272E462B462C46DFF84CE01EF83B
:1031D000022011F0800F4FEA03134FEA05154FEA62
:1031E00004144FEA06160CBF43F00F03154311F405
:1031F000004F0CBF44F00F041643013F4FEA41015A
:10320000E7D14268144034434460026813402B43C2
:103210000360F0BD0161D3E7C87A00084FF0804336
:10322000DA68920701D55863704772B6014B024ABB
:103230009A62FEE7D02800209C7A0008202383F3BE
:103240001188114B5B6813F4006302D183F311887A
:10325000704780B400AFEFF309834FF08071A3F1A2
:10326000200243F8041C82F30988084A1168926915
:103270008968926891428CBF054A064A43F8082C37
:10328000BD4680BC704700BF00ED00E0D0280020A4
:103290005D0200087002000810B500F0A9FC00F003
:1032A000F7FE0B4B0B4A19681268090E01F00E016C
:1032B000114206D008480A06046B5A600CB1406BF4
:1032C000A04700F0CFFEBDE81040FFF7B7BF00BF3A
:1032D00000000240800002409428002010B500F059
:1032E00087FC00F0D5FE0B4B0B4A19681268090DDC
:1032F00001F00E01114206D008480A05846A5A609E
:103300000CB1C06AA04700F0ADFEBDE81040FFF769
:1033100095BF00BF000002406C00024094280020CE
:1033200010B500F065FC00F0B3FE0B4B0B4A1968BA
:103330001268090C01F00E01114206D008480A0477
:10334000046A5A600CB1406AA04700F08BFEBDE8E9
:103350001040FFF773BF00BF00000240580002405A
:103360009428002010B500F043FC00F091FE0B4BB8
:103370000B4A19681268090B01F00E01114206D0C0
:1033800008480A0384695A600CB1C069A04700F07C
:1033900069FEBDE81040FFF751BF00BF00000240CA
:1033A000440002409428002010B500F021FC00F0F9
:1033B0006FFE0B4B0B4A19681268090A01F00E01E7
:1033C000114206D008480A0204695A600CB14069EB
:1033D000A04700F047FEBDE81040FFF72FBF00BF39
:1033E00000000240300002409428002010B500F098
:1033F000FFFB00F04DFE0B4B0B4A196812680909E0
:1034000001F00E01114206D008480A0184685A6092
:103410000CB1C068A04700F025FEBDE81040FFF7E2
:103420000DBF00BF000002401C0002409428002095
:1034300008B500F0DDFB00F02BFE0A4B0A4A1968C4
:10344000126801F00E01114205D0084A5960136854
:103450000BB15068984700F005FEBDE80840FFF743
:10346000EDBE00BF0000024008000240942800208A
:10347000F8B504460E46174600F028FC9CB196B1FC
:1034800004F1200509E000F05FFC2369002B10DC4B
:103490003946284600F090FD50B9237D002BF2D02C
:1034A0006FF00100F8BD72B60D4B0E4A9A62FEE74E
:1034B000F8BDE3686268196804339342E36028BF8B
:1034C0002368316028BFE360236904F11800013BE1
:1034D000236101F043FD00F091FC0020F8BD00BF26
:1034E000D0280020907A000808B500F041FE00F0D6
:1034F000D5FB084B1A689A4204D09969926889688A
:10350000914203D3002383F3118808BD72B6024AA7
:103510009A62FEE7D02800204C7A0008002A00F0CA
:1035200081802DE9F04F984683B004468A46914643
:10353000D0F81CB0202383F3118800F0C1FB00F009
:1035400041FE4FF0804300275E6A08F1FF35ABB2C1
:103550004644414DB6B20193A268002A33D0616956
:10356000A268481C013A6061A2609AF800200A70C3
:1035700022696169914224BFE2686261BBF1000F78
:1035800001D02046D84700F0F3FD00F087FB2A6801
:10359000AA4204D0A9699268896891423ED3002367
:1035A00083F31188B9F1010907F101072BD00AF162
:1035B000010A202282F3118800F082FB00F002FE53
:1035C000A268002ACBD14FF6FD72019B93421ED810
:1035D0004FF08042516A711A89B2884527D320463C
:1035E00000F0EAFC0028B7D000F0C2FD00F056FB66
:1035F0002A68AA4204D0A96992688968914226D3B0
:10360000002383F31188384603B0BDE8F08F4146AC
:10361000204600F0D1FC00289ED0E5E772B60F4AA4
:10362000AA62FEE772B60C4B0D4A9A62FEE700F002
:103630009FFD00F033FB2A68AA42E1D0A969926895
:1036400089689142DCD272B6044AAA62FEE772B679
:10365000024AAA62FEE700BFD0280020407A000894
:10366000B87A00083030FFF759BF00BF30304FF64E
:10367000FF73FFF753BF00BFF8B504460F46164669
:10368000202383F3118800F01BFB00F09BFD05E075
:103690003146204600F090FC051E25DBA368002B78
:1036A000F6D06269A368511C013B6161A360177089
:1036B000236962699A4224BFE3686361E3690BB1DD
:1036C0002046984700F054FD00F0E8FA134B1A68C2
:1036D0009A4204D099699268896891421AD3002568
:1036E00085F311882846F8BD00F042FD00F0D6FAB7
:1036F0000A4B1A689A4204D0996992688968914283
:1037000004D3002383F311882846F8BD72B6044A17
:103710009A62FEE772B6024A9A62FEE7D02800205B
:10372000407A00083030FFF7A7BF00BF30304FF6B7
:10373000FF72FFF7A1BF00BF002A00F081802DE9D2
:10374000F04F984683B004468A469146D0F81CB0A4
:10375000202383F3118800F0B3FA00F033FD4FF01B
:10376000804300275E6A08F1FF35ABB24644414D05
:10377000B6B20193A268002A33D0A169A268481C9E
:10378000013AA061A2600A788AF800202269A16942
:10379000914224BFE268A261BBF1000F01D0204634
:1037A000D84700F0E5FC00F079FA2A68AA4204D074
:1037B000A9699268896891423ED3002383F31188F6
:1037C000B9F1010907F101072BD00AF1010A202202
:1037D00082F3118800F074FA00F0F4FCA268002A69
:1037E000CBD14FF6FD72019B93421ED84FF0804221
:1037F000516A711A89B2884527D3204600F0DCFB54
:103800000028B7D000F0B4FC00F048FA2A68AA42B9
:1038100004D0A96992688968914226D3002383F372
:103820001188384603B0BDE8F08F4146204600F0CD
:10383000C3FB00289ED0E5E772B60F4AAA62FEE7F6
:1038400072B60C4B0D4A9A62FEE700F091FC00F054
:1038500025FA2A68AA42E1D0A9699268896891424A
:10386000DCD272B6044AAA62FEE772B6024AAA62C3
:10387000FEE700BFD0280020407A0008A87A0008A0
:103880000C30FFF759BF00BF0C304FF6FF73FFF746
:1038900053BF00BF70B5202304460E4683F3118842
:1038A00000F00EFA00F08EFC05E03146204600F0F4
:1038B00083FB051E25DBA368002BF6D0A169A36856
:1038C00020694A1C013B8242A36028BFE368A261D1
:1038D0000D7828BFA361E3690BB12046984700F03B
:1038E00047FC00F0DBF9114B1A689A4204D0996941
:1038F00092688968914215D3002383F31188284682
:1039000070BD00F035FC00F0C9F9084B1A689A4206
:10391000F2D09969926889689142EDD272B6044AF0
:103920009A62FEE772B6024A9A62FEE7D028002049
:10393000407A00080C30FFF7ADBF00BF0C304FF6E7
:10394000FF71FFF7A7BF00BFF8B504460E46154646
:10395000202383F3118800F0B3F900F033FC00F06A
:10396000F3F91EB1701E16EA000104D072B6174BAF
:10397000174A9A62FEE7174F7642D7F800E02318FD
:103980000EEB050202443340324078681344834210
:1039900004D89E4502D83B60144600E00C4600F077
:1039A000E7FB00F07BF9094B1A689A4204D0996949
:1039B00092688968914204D3002383F311882046DA
:1039C000F8BD72B6044A9A62FEE700BFD028002014
:1039D000647A000830160020347A00082DE9F84394
:1039E000DFF8D490D9F8187090B10446202383F3FF
:1039F000118800F065F900F0E5FBBB6B002B52D09D
:103A00009A68974209D072B6294BC9F82830FEE768
:103A100072B6274BC9F82830FEE79C4204D072B634
:103A2000234BC9F82830FEE7E568BD6300F04EF986
:103A30002668B44234D0D7F83C805DB100F046F936
:103A40002B689D4203D09B68984538BF9846ED6827
:103A5000002DF3D1B26B33683046C7F8088023607D
:103A60005C60E260A660B46300F0BAFA00F0C6F9E8
:103A700000F07EFB00F012F9D9F800304B4505D07C
:103A8000D9F818209B6892689A4204D3002383F3E4
:103A90001188BDE8F88372B6064BC9F82830FEE7F6
:103AA0000023A360E4E772B6014BC9F82830FEE7B3
:103AB000847A0008287A0008D0280020F8B5054646
:103AC000202383F31188464E00F0FAF800F07AFBC9
:103AD000B46900F0FBF845B3A868002830D0A268AC
:103AE00083689A4208D990F820308260062B5ED015
:103AF000072B48D0002B3BD02B4603E09968A268E7
:103B0000914202D31B689D42F8D15A680620236077
:103B1000626014605C60656200F0E8F8AB689C422B
:103B200007D072B62F4BB362FEE772B62D4BB3626D
:103B3000FEE7A36B9D4207D072B62A4BB362FEE745
:103B4000A36BAC60EB60A56300F012FB00F0A6F87D
:103B50003368B34204D0B2699B6892689A4203D337
:103B6000002383F31188F8BD72B61F4BB362FEE7E2
:103B7000012190E80C0080F820101A600268536060
:103B800000F02EFAB8E790E80A00196001684B606F
:103B9000416A0B4602E09F68974202D31B68994234
:103BA000F9D15A680360426010605860A4E790E859
:103BB0000A00196001684B60416A0B4602E09F6889
:103BC000974202D31B689942F9D15A680360426058
:103BD000106058608868A26883689A4283D88BE72F
:103BE000D0280020587A0008287A0008FEE700BF95
:103BF000202383F31188054A0021D2F8A030013335
:103C0000C2F8A03081F31188704700BFD02800208F
:103C10000D4B70B4D0E904455B68C6688B60816861
:103C200042685B1AE41845F100059342026806F108
:103C3000010688BF43609342C660C0E9044570BC7A
:103C4000836038BF03607047001000E00E4B0F4ADE
:103C50005B688168D2F898205B1A9B1AC26830B4FE
:103C6000D0E9044541680132E418C260026845F1B8
:103C700000058B4288BF43609342C0E9044530BCD5
:103C8000836038BF03607047001000E0D028002038
:103C90000148FFF7DBBF00BF902900200148FFF774
:103CA000D5BF00BF78290020014B5B688360704757
:103CB000001000E00148FFF7F7BF00BF9029002087
:103CC0000148FFF7F1BF00BF78290020054BDA6AF1
:103CD0001AB91A6B002A00DD704772B6024A9A625E
:103CE000FEE700BFD0280020E07B000870B5FFF79A
:103CF000EDFF0122124CA569236885F820001E689B
:103D000003F14801746083F82020D4F8A42005F161
:103D1000480001322660A361C4F8A420FFF778FFB1
:103D2000EFF30983EA69243B9A4205D82946A06942
:103D3000BDE87040FCF77EBA72B6024BA362FEE7A4
:103D4000D0280020E87B0008054BDA6A002A03DB54
:103D50001A6B002A00DD704772B6024A9A62FEE7CB
:103D6000D0280020D87B0008012238B5204C2368D9
:103D7000A56919684C6083F820202160A361FFF7D2
:103D8000E3FF6DB395F8203033B30F2B24D000231D
:103D9000AA6885F8203000E009688B689A42FBD356
:103DA0004B6805F1480085E80A001D604D60D4F8B5
:103DB000A430A16901334831C4F8A430FFF728FFCB
:103DC000EFF30983EA69243B9A420DD82946A0699A
:103DD000BDE83840FCF72EBA72B6064BA362FEE788
:103DE00072B6044BA362FEE772B6034BA362FEE712
:103DF000D0280020307B0008E87B000808B5FFF7DA
:103E000065FFFFF7A1FF064B1A689B6992689B68E4
:103E10009A4200D808BDBDE80840FFF7A5BF00BF23
:103E2000D02800202DE9F04387B08046FFF74EFFF1
:103E30004FF6FF73994235D0FFF786FF21B972B66E
:103E4000594B5A4A9A62FEE7574E4FF08040B146AE
:103E500059F81C5F426AB3690129554C08BF022119
:103E60004D450593049493B251D0F08C92B21B1A35
:103E700019448CB2131A9C422B895BDA2D68E41A20
:103E80002B89A4B29C4201AF06D813E02D68E41A36
:103E90002B89A4B29C420DD9BD42F7D172B6434BD7
:103EA000B362FEE7FFF722FF3F4EB369586A07B0DF
:103EB000BDE8F0834FF6FF726B68019502931F60B7
:103EC0006F60ADF80C402B891C1B2C81B2844046DE
:103ED000FFF70CFFFFF738FF049B002BE5D0FFF73F
:103EE00033FFF369BB422DD00021029A019B13607E
:103EF000019B4B455A600491D7D01A89BDF80C102C
:103F00000A441A81B369586A07B0BDE8F083C268F1
:103F100001AFF38412F002020B449BB201950295AB
:103F2000ADF80C10F761376231D1022143630261B1
:103F3000C160CCE79C42A5D2204480B2FFF76EF965
:103F40002B899FE7002301984845F061C0F8049051
:103F5000049320D04FF080435A6AF18C0389BDF856
:103F60000C4092B2511A23449BB289B28B42038116
:103F70009BD95B1A9BB2022B2CBFD318931C98B20F
:103F8000FFF74CF9B369586A07B0BDE8F08372B621
:103F9000084BB362FEE74FF08042D360B369586AC2
:103FA00007B0BDE8F08300BFD0280020247B0008C4
:103FB00005410008987B000861B10246074B10B428
:103FC0009B694468042083E814002360536010BC9C
:103FD000FFF728BF4FF0FF30704700BFD028002008
:103FE00008B5FFF7B1FED0B190F8203001468BB193
:103FF0000F2B0FD000220C4B806881F820201B680B
:104000009A688242FBD25A6808460B604A60116087
:10401000596008BD72B6044B044A9A62FEE772B654
:10402000014B024A9A62FEE7D0280020187B000864
:1040300003688BB1024693F82000032804D072B6BF
:10404000064B074A9A62FEE710B4002414605962D6
:10405000184610BCFFF7C4BF704700BFD02800202F
:10406000787B0008202383F31188074BDA6A002A43
:1040700001DD196B19B172B6044A9A62FEE7013A82
:10408000DA6281F311887047D0280020B07B0008E5
:10409000202383F31188074BDA6A002A01DB196BAE
:1040A00019B172B6044A9A62FEE70132DA6281F30C
:1040B00011887047D0280020A87B0008064BDA6AD8
:1040C000002A05DD1A6B002A02DD00221A63704700
:1040D00072B6024A9A62FEE7D0280020D07B000820
:1040E000064BDA6A002A01DD1A6B1AB172B6044A6D
:1040F0009A62FEE701221A63704700BFD0280020B1
:10410000C07B000808B50146202383F31188FFF720
:10411000D1FDFFF7E5FF91F82030072B10D8DFE83D
:1041200003F0150F0F1D0A040F0A486AFFF70CFE73
:1041300083680133836091E80C001A600A68536059
:104140004FF0FF3308464B62FFF74AFFFFF7B6FF19
:10415000FFF79EFD002383F3118808BD00224B6A00
:1041600008461A604FF0FF334B62FFF739FFEDE767
:10417000054BDA6A22B9196B002901DD1A63704711
:1041800072B6024A9A62FEE7D0280020C87B000877
:1041900008B5FFF7EDFFFFF781FD084B1A689A425B
:1041A00004D0996992688968914203D3002383F30C
:1041B000118808BD72B6024A9A62FEE7D028002034
:1041C000E87A0008054BDA6A0AB91A6B1AB172B6B6
:1041D000034A9A62FEE701221A637047D028002042
:1041E000B87B00082DE9F84F8146202383F311881E
:1041F000894CFFF765FDFFF7E5FF256995F822304B
:10420000013385F82230FFF7B3FFFFF747FD23683E
:10421000A34204D0A2699B6892689A424CD30027BB
:1042200087F311884FF02008EB69994500F09880DA
:1042300088F31188FFF744FDFFF7C4FF2E69A642FB
:1042400000F08C8096F82230FF2B00F08380013341
:1042500086F82230FFF78CFFFFF720FD2368A3428A
:1042600004D0A2699B6892689A4229D387F3118887
:1042700088F31188FFF724FDFFF7A4FF95F822309B
:10428000002B75D0013B85F822302B6A03F0FF1319
:104290000F2B19D0FFF76CFFFFF700FD2368A34237
:1042A00004D0A2699B6892689A425DD387F3118813
:1042B0003546002EB8D154E072B6584BA362FEE7E3
:1042C00072B6564BA362FEE76B692A691A612A69C6
:1042D0005361FFF74DFFFFF7E1FC2368A34204D0D1
:1042E000A2699B6892689A4246D387F3118895F831
:1042F000213003F00303012B24D0022BD8D1296CE9
:10430000ED6988F31188FFF7DBFCFFF75BFFFFF730
:104310001BFD99B195B10B682B600D60FFF728FF6D
:10432000FFF7BCFC2368A342C0D0A2699B689268D7
:104330009A42BBD272B63A4BA362FEE772B6394BD1
:10434000A362FEE7ED690DB16B0719D072B6364B6B
:10435000A362FEE772B6354BA362FEE7002679E75B
:104360002E463046BDE8F88F72B6314BA362FEE7A9
:1043700072B6304BA362FEE772B62D4BA362FEE726
:1043800015E90C000733DB0802F1100A02F1080BF3
:10439000504645F8043CFFF791FB5946A5F108004B
:1043A000884205D34B68013301EBC30398422ED3F7
:1043B0008B450B6801D0884202D91BB1984201D3CA
:1043C0001946EDE745F8083C086015E90C00013393
:1043D00000EBC30E964508D1DEF804201A4445F8D8
:1043E000042C50F8333045F8083C4A68531C01EB64
:1043F000C303984207D155F8043C013313444B6082
:1044000055F8083C0B605046FFF7E8FA50E772B6E3
:10441000054BA362FEE700BFD02800200C7B0008FC
:10442000F47A0008447B0008507B0008887B000871
:10443000E87A00085C7B000808B50146202383F376
:104440001188FFF73DFCFFF7BDFE99B10820FFF78B
:10445000E9FCFFF78DFEFFF721FC0B4B1A689A422F
:1044600004D0996992688968914208D3002383F344
:10447000118808BD72B6044B044A9A62FEE772B610
:10448000034A9A62FEE700BFD0280020007B0008A4
:10449000E87A000808B50146202383F31188FFF766
:1044A0000FFCFFF78FFE114DAC69A06A04F12806DE
:1044B0008642616206D00268A262FFF791FDA06A9F
:1044C000B042F8D194F8223043B994F821309B07D8
:1044D00004D1226963691A61226953610F20FFF7D1
:1044E00005FC72B6024BAB62FEE700BFD02800208D
:1044F0006C7B0008FEE700BFF0B50026124F134D9D
:10450000134C144B144907F1700E9C4211D91A46F2
:10451000043951F8040F42F8040B9442F9D8DA43F5
:10452000144424F00304043423449D4203D943F883
:10453000046B9D42FBD8774504D007F110013AC9BE
:104540001037E2E7F0BD00BFF87B0008082A002022
:10455000082A0020082A002050890008FEE700BF32
:10456000704700BF704700BF38B5202383F3118820
:10457000184CFFF79FFBFFF7B3FDFFF7E5FBA568BE
:10458000002D0CDDFFF79AFDFFF782FB002383F37C
:104590001188114AD36883F02003D36038BDFFF738
:1045A000D3FB236835B9A34211D072B60B4B0C4A2A
:1045B0009A62FEE7A342F8D000211A680135A5608F
:1045C0001846546022605962FFF70AFDDAE70122BB
:1045D0009A60D7E758160020000C0140D028002030
:1045E0001C7D0008000000002DE980488F4E904A95
:1045F000B369DFF880B2C9B09A61202383F31188D0
:10460000FFF75EFBFFF7DEFD04A94FF6FF72894856
:10461000FEF72EFFFFF7ACFDFFF740FB3368B34218
:1046200005D0B2699B6892689A42C0F0B4810023B9
:1046300083F31188049CA27821888DF822208DF8BC
:104640002330E278ADF82010012A00F01581022A0B
:1046500000F04C81032A54D0042A00F0A080F02AF4
:104660004FF0040700F0BB80F12A00F0C780F22A67
:1046700035D00025F32A0AD1012305228DF82530F3
:104680006D4B8DF820201B788DF82430E278F42AC9
:104690006A4800F09D81FFF711FA9DF8202008A9D3
:1046A0004FF6FF7301326648FEF738FF6348FFF7A5
:1046B00095F90499634800F087FD002D9DD00120F5
:1046C000FFF7BAFEDBF8003003F4E06343F0BF63AA
:1046D00043F4003343F00403CBF800308DE70023AC
:1046E000059306938DF81C302278142A00F05B8124
:1046F000FF221D468DF8232003238DF82030E27819
:10470000B8E72378042B98BF8DF82020B1D9042571
:104710000027DFF85C81059706978DF81C70635DB4
:10472000691C625A484803F00F0320F813206219ED
:10473000B2F803000C4445494FEAC30E21F81300B8
:10474000B2F805004249093521F81300B2F80720F4
:1047500040498DF814E021F8132022686368404630
:10476000CDF81520CDF81930FFF7A8F9002309225C
:1047700005A90097502000F085FD0520FFF75CFE9D
:104780004046FFF72BF9049CEDB22378AB42C2D828
:104790000323E2788DF82030042A7FF460AF2E4A9C
:1047A0002E4D2F482F4908AB35F8027F32F802EF23
:1047B000DF8031F8027FA3F804E05F812A4F30F8F0
:1047C00002EF9742A3F808E003F10803ECD183233A
:1047D0008DF82030E2788427F02A7FF445AF4FF03F
:1047E0000F0E08AA214BD51993E8070085E80700AA
:1047F0008DF820E0E278F12A7FF439AFF0231C48ED
:104800008DF81430FFF75AF9102208AB3B440092A0
:1048100005A90122502000F035FD1548FFF7DEF80C
:104820001323049C8DF82030E27820E7D028002064
:10483000F07C000810080020641600208816002074
:10484000682600203808002060080020A00800200A
:10485000C0080020800800205E0800209E0800207C
:10486000BE0800207E0800207E080020E8F7FF1F19
:104870000C2600200CED00E02378042B88BF0427D1
:1048800040F2A280E25DE31902F00F047C4AB3F823
:1048900001A002EB04152846B3F8038093F80590B5
:1048A000FFF70CF9774B04EB840403EBC404D4E961
:1048B00000235046C4E90423FBF71EFE724BC4E9F3
:1048C000060153F82930A4F8088063622846FFF7F0
:1048D00085F8049C06372378FFB2BB42D2D8032365
:1048E000E2788DF82030022A7FF4B4AE2378042BCE
:1048F00088BF4FF0040A52D914F80A2004EB0A03C7
:1049000002F00F045E4AB3F9058002EB0415B3F818
:1049100003202846B3F901700392FFF7CFF8594BF3
:1049200004EB840403EBC404A4F8228027844046EB
:10493000FBF7F2FD50A3D3E90023FBF753FE00225F
:10494000524BFBF779FF00F0B9FD804689463846A7
:10495000FBF7E2FD42464B46FBF744FE02460B46A0
:10496000D4E90001FBF78AFCBDF80C30C4E904016E
:104970002381474B28466362FFF730F8049C0AF115
:10498000070A23785FFA8AFA5345B5D80323E278F9
:104990008DF820305EE672B63E4BB362FEE703232D
:1049A0008DF8203065E6E11C04F1130011F8012FA9
:1049B00013448142DBB2F9D1227D9A4221D0FF23F8
:1049C00000258DF8233097E603238DF8203046E646
:1049D0002378032B7FF45FAE8DF82030FFF76EF85D
:1049E0009DF8202008A94FF6FF7301322A48FEF7F0
:1049F00095FD2A48FEF7F2FF0499294800F0E4FBF0
:104A00005DE60027F02354F8041F26486268CDF8BD
:104A10001510CDF819208DF81430FFF74FF83B46EC
:104A2000092205A90097502000F02CFC0520FFF773
:104A300003FD1C48FEF7D2FFF822049B194853F8E7
:104A40000C1F01255B68CDF81510CDF819308DF8D5
:104A50001420FFF733F83B46092205A900975020A0
:104A600000F010FC0520FFF7E7FC0E48FEF7B6FF4C
:104A7000049C41E6AFF30080182D4454FB2109400B
:104A80009816002080230020787C00080080664073
:104A90002D1F00082C7D00086826002088160020A5
:104AA000380800200C2600202DE98048604F614A1C
:104AB000BB69DFF898A1DFF898915F4DDFF894812A
:104AC0005E4EC3B09A614FF6FF73012202A92846D9
:104AD000FEF732FE9DF80840012CF4D94FF6FF7323
:104AE00002220DF109012846FEF726FE9DF8093045
:104AF0009DF80A201344FF2BE5D1022C43D0A4F1EA
:104B0000020B5A46C8230DF10B012846FEF714FE8E
:104B1000C0B28345D7D1202383F31188FFF7D0F8A3
:104B2000FFF750FB694600224046FEF7A1FC834692
:104B3000FFF71EFBFFF7B2F83B68BB4204D0BA692F
:104B40009B6892689A422CD3002383F31188BBF1AF
:104B5000000F2AD19AF8003033B9B9F80030B3F514
:104B6000805F01D99B0741D002A9621C0098FCF725
:104B700031F80099324800F027FBB9F800300133D2
:104B8000A9F800309FE73046FEF798FF4FF6FF7315
:104B9000032202A92B48FEF7C1FC3046FEF71EFF98
:104BA00091E772B6284BBB62FEE7FF2103249DF814
:104BB00009209DF80A3030468DF807108DF8052041
:104BC0008DF806308DF80440FEF778FF04224FF68A
:104BD000FF730DEB02011B48FEF7A0FC3046FEF709
:104BE000FDFE0099404600F0EFFA6CE7FE21032439
:104BF0009DF809209DF80A3030468DF807108DF891
:104C000005208DF806308DF80440FEF757FF04228A
:104C10004FF6FF730DEB02010A48FEF77FFC3046AA
:104C2000FEF7DCFE0099404600F0CEFAA5E700BF93
:104C3000D0280020E87C00084426002088160020A8
:104C400010080020682600202C7D00086416002033
:104C50007A2300203808002000262DE98048DFF85C
:104C600068928B4AD9F8183085B09A618948FEF766
:104C700025FF3346022288490096402000F002FBBF
:104C80003346022285490096402000F0FBFA334665
:104C9000022283490096402000F0F4FA7D48FEF796
:104CA0009DFE804D804CDFF8248205F1200735F809
:104CB000020FFBF721FCBD422681C4E90001C4E9D3
:104CC0000401C4E906016681C4F8248004F12804C3
:104CD000EDD10622754BDFF8F8811A70FEF71EF948
:104CE000714F0022724E05E0724B28379F4206F149
:104CF000100617D03B89002BF6D03046FEF7DEFEBB
:104D00007B893D89AB4226D300237B813B813046A2
:104D1000FEF764FE674B28379F424FF0010206F111
:104D20001006E7D10AB1FEF7F9F8202383F31188C2
:104D3000FEF7C6FFFFF746FAFEF7C8FFD8F80830BF
:104D4000D8F80020002B3FDB42453FD072B65A4BCB
:104D5000C9F82830FEE701339CB27C812046FBF77E
:104D6000CBFB824628468B46FBF7C6FB02460B462A
:104D700050465946FBF760FD7B6A504ACDE9020177
:104D800093423AD09847D7E90623D7E90445CDE9BD
:104D90000201FBF727FC22462B46FBF771FA22465D
:104DA0002B4682468B46DDE90201FBF71BFC0246DF
:104DB0000B4650465946FBF761FA7C893D89A5426E
:104DC000C7E90001A3D89FE74245BFD0013B002BB4
:104DD000C8F8083042DBFFF7CBF9FEF75FFFD9F8E0
:104DE00000304B4505D0D9F818209B6892689A424C
:104DF00044D3002383F3118872E7B7F92200FBF74D
:104E00008BFB21A3D3E90023FBF7ECFB00222C4B07
:104E1000FBF712FDDDE9022382468B461046194658
:104E2000FBF72EFA18A3D3E90023FBF7DBFB0246BE
:104E30000B4650465946FBF723FA00F03FFB8246EB
:104E40008B46B7F92000FBF767FB52465B46FBF742
:104E5000C9FBD7E90423FBF713FAB0E7D9F81830F8
:104E6000D8F80420C3F82480C3F800805A600520D5
:104E70001360C8F80430FEF739FFACE772B6114B87
:104E8000C9F82830FEE700BF182D4454FB21094023
:104E9000F87C00080C260020E0080020E208002032
:104EA000E40800205E080020802300203823002032
:104EB0009816002000260020107D00082D1F0008F5
:104EC00000806640047D0008D0280020291F0008CB
:104ED0005816002070B51E4C0546FEF7F7FE2368F5
:104EE000A069A34232D09A68836893422AD30021F2
:104EF000AA6869629A4220D9FFF772F8012385F8FF
:104F00002030D4F8A43006460133483005F148017A
:104F1000A561C4F8A430FEF77BFEEFF30983F269C4
:104F2000243B9A4205D831462846BDE87040FBF73D
:104F300081B972B6074BA362FEE72846BDE8704010
:104F4000FFF74EB872B6044BA362FEE78368CEE764
:104F5000D0280020E87B0008847D00080368984280
:104F600010D01A680260506093F82020042A04D000
:104F700072B6054B054A9A62FEE7002218465A624D
:104F8000FFF72EB8704700BFD0280020507D0008E2
:104F90002DE9F843204E0746FEF7D6FE56F8044F9B
:104FA000B44228D04FF0000802E02468B44222D076
:104FB000E3683B43E36017B122691342F5D06568AB
:104FC000D4F80890FEF7C0FE05B36B6B95F820206F
:104FD00049EA03030A2A6B630FD00B2AE5D16A6AF8
:104FE00032EA0303E1D1C5F824802846FEF7F8FF32
:104FF0002468B442DCD1BDE8F8836A6A1342D4D095
:10500000C5F824802846FEF7EBFFF1E772B6034BA4
:10501000034A9A62FEE700BF38260020D02800200D
:10502000947D000800284CD00123F0B5274C457C26
:10503000226803FA05F73A4229D1254B254E43F859
:10504000351003EBC5035E6053061AD00E254FF0F2
:10505000000E43681E6826F00F061E6090F810C010
:10506000066805FA0CF57560C3F800E029B16568BB
:1050700083681D420DD03D4365603A4322600020A5
:10508000F0BD154D6B6943F001036B61DEE7184617
:10509000F0BD01264FF0500E817C4B099B0001F1C1
:1050A000604003F1604301F01F0103F5614306FA1C
:1050B00001F100F5614080F800E3C3F88011196048
:1050C000D9E772B6054B064A9A62FEE7A829002086
:1050D000942800200026002000100240D028002044
:1050E000D87D0008A8B1E72913D911F0070F10D116
:1050F000FF2A0ED86BB12DE9F04107461E46154632
:105100000C46FFF76FF848B172B62B4B2B4A9A62E8
:10511000FEE772B6284B294A9A62FEE73A1997428F
:1051200005D23B46552103F8011B9A42FBD12023AF
:1051300083F31188FEF7C4FD4FF00208FFF742F831
:1051400000234FF0010C4FF0FF3E00210020603C97
:105150003C44194AA560E563A4F12405E560184DB7
:10516000226144F8246C44F8045C164E556984F8B6
:1051700022C0656144F8203CA66184F82130A36315
:105180006363E76184F8208004F128062C6104F150
:105190002C05C4E91601E364204623656365C4F861
:1051A00048E0A662E56225635461FFF793FEFEF7CF
:1051B000EFFF2046BDE8F081D0280020707D000878
:1051C000450200080C7E00082DE9F041202304462A
:1051D000884683F31188FEF773FD04F11807FEF784
:1051E000F1FFFEF773FD9CB941E0FEF7ADFD94E8D9
:1051F0006000FEF7A9FD2369721BC3EBA203002B1D
:105200001EDC4FF6FF713846FEF7D6FE054620B984
:10521000237D002BE9D06FF00105FEF7A9FFFEF713
:105220003DFD154B1A689A4204D0996992688968C5
:10523000914218D3002383F311882846BDE8F081FA
:10524000A26804F12000131DA360C2F800809E42F2
:10525000236998BFA56001332361FFF77FFE002516
:10526000FEF7CCFDD9E772B6044A9A62FEE772B641
:10527000014B034A9A62FEE7D02800202C7D0008EB
:10528000647D00082DE9F04F83B00C9E60B15AB1E7
:1052900051B106B143B15D4F3C78022C09D072B6D2
:1052A0005B4B5C4A9A62FEE772B6594B594A9A6266
:1052B000FEE78DE8060081461D46202282F3118814
:1052C000FEF7FEFCFEF77EFF00210322B9603A7074
:1052D000D7F834801EB1012E69D9002D67D04C4C0F
:1052E0004FEA49023A84FEF743FFFEF7D7FC2168F4
:1052F000A14204D0A269896892688A425CD34FF0C7
:10530000000989F311884FF0804E4FF0200AF346D0
:10531000396BBA6A4B68F96A1A60009A4968DA60B0
:10532000019A5A607A6A0A60CD604E60DEF82450B5
:10533000ADB28AF31188FEF7C3FCFEF743FFD8F83D
:105340001820910703D4D8F80020920538D5DBF84F
:105350002420521B92B2312A0ED8FEF709FFFEF725
:105360009DFC2168A14204D0A269896892688A42A2
:1053700047D389F31188DCE705224FF0FF353A70F7
:10538000FEF7F6FEFEF78AFC2368A34204D0A2696A
:105390009B6892689A4206D3002383F311882846BB
:1053A00003B0BDE8F08F72B61B4BA362FEE772B686
:1053B000174B1A4A9A62FEE772B6194BA362FEE7D0
:1053C000D8F80420F96942F40072C8F80420D8F82B
:1053D0000020A56942F48072C8F8002019B172B6A5
:1053E000104BA362FEE7104AFD616A624FF6FF713F
:1053F0000320FEF717FD431C0546BDD002223A707C
:10540000BEE772B6064BA362FEE700BF002600208F
:10541000D0280020BC7D0008387D0008EC7D000805
:10542000447D0008A47D00081C26002030B5214AD8
:1054300021F00043934287B01BDD1F4A934205DDF4
:1054400002460B46FAF71AFF07B030BD02AA00F079
:10545000CFFA00F0030001281AD002280FD008B3B9
:10546000DDE90423DDE902010124009401F000FBE1
:10547000EAE70022002300F08FFD07B030BDDDE930
:105480000423DDE9020100F087FD01F10041DBE7C3
:105490000090DDE90423DDE9020101F0E9FA01F100
:1054A0000041D1E7DDE90423DDE9020100F074FDEC
:1054B000CAE700BFFB21E93FFFFFEF7F30B5214A7C
:1054C00021F00043934287B01BDD1F4A934205DD64
:1054D00002460B46FAF7D2FE07B030BD02AA00F032
:1054E00087FA00F0030001281ED0022811D0DDE960
:1054F000042300B3DDE9020100F04EFD01F100419B
:10550000EAE7002400220023009401F0B1FA07B07A
:1055100030BD0124DDE90423DDE90201009401F03E
:10552000A7FA01F10041D7E7DDE90423DDE9020133
:1055300000F032FDD0E70124DDE90201009401F022
:1055400097FAC9E7FB21E93FFFFFEF7F000000006A
:105550002DE9F0438BB004460D4600F0D1F8DFF89A
:10556000DC80064698F900300F46013333D02046E0
:10557000294601F037FB70B329A3D3E90023204665
:105580002946FBF7BFFA814650BB27A3D3E9002386
:1055900020462946FBF798FAE8B1042600200021AE
:1055A00098F90030224A022BCDF82090CDE904452D
:1055B000CDE902450096CDE90601019229D0684661
:1055C00001F0A2FB28B3089B1BB101F01BFC089B58
:1055D0000360DDE90667304639460BB0BDE8F0836D
:1055E00003200021124A98F90030CDE90445CDE9A5
:1055F00002450090089101922BB94FF060420D4B8B
:10560000CDE90623DBE700200B49022BCDE906019B
:10561000D5D101F0F7FB22230360D4E7AFF300807C
:10562000EF39FAFE422E864051302DD5104987C001
:10563000147E0008FFFFEF470000F07FE60800201F
:105640002DE9F04F8BB004460D4600F0E7FB294BE7
:10565000064693F900A00F46BAF1FF3F12D022464A
:105660002B4620462946FBF757FA834650B94FF0A0
:1056700000084FF000092046294642464B46FBF7FA
:1056800023FA20B9304639460BB0BDE8F08F01222D
:10569000194BCDF820B0CDE90445CDE902458DE8A0
:1056A0000C00BAF1000F17D042464B46404649461F
:1056B000FBF7C2F8BAF1020FCDE906010ED101F0F5
:1056C000A1FB21230360089B73B9DDE9066730461F
:1056D00039460BB0BDE8F08FCDE90689684601F088
:1056E00013FB0028EFD1EAE701F08CFB089B036075
:1056F000EBE700BFE6080020187E0008000000006D
:105700002DE9F04FB04F21F00042BA4283B00C4671
:105710004FEAD17605460DD9AC4FBA4225D9C1F32F
:105720001303034340F0EF800EB10020014603B0A5
:10573000BDE8F08FA64B9A4200F2CC80A54B9A426E
:1057400000F2DE808AA3D3E90023FAF799FD002254
:10575000A14BFBF7D7F9002800F005812846214628
:1057600000229D4BFAF78CFDE1E783A3D3E90023E8
:10577000FBF7C8F9002840F0CB8081A3D3E90023D0
:1057800028462146FBF7A0F90028CED17EA3D3E915
:105790000023924F284607EBC6062146FAF722FF60
:1057A000D6E90023FAF76CFDFBF7CCF98046FAF74F
:1057B000B3FE77A3D3E9002306460F46FAF712FF9C
:1057C00002460B4628462146FAF758FD72A3D3E954
:1057D0000023CDE9000130463946FAF703FF82463F
:1057E0008B46DDE9000152465B46FAF747FD054668
:1057F0000C462A46234628462146FAF7F3FE68A3BC
:10580000D3E9002306460F46FAF7ECFE66A3D3E978
:105810000023FAF733FD32463B46FAF7E3FE64A372
:10582000D3E90023FAF72CFD32463B46FAF7DAFEBD
:1058300061A3D3E90023FAF721FD32463B46FAF78C
:10584000D1FE5FA3D3E90023FAF71AFD32463B46A7
:10585000FAF7C8FE02460B4628462146FAF70EFD27
:1058600006460F462846214632463B46B8F1000F11
:1058700056D0FAF7B7FE324604460D463B460020A6
:105880004FF08041FAF7FAFC02460B4620462946C3
:10589000FAF7D2FF02460B4650465946FAF7EEFC9D
:1058A000DDE90023FAF7EAFC0B4602464A490020EC
:1058B000FAF7E4FC6FF47F7398454FDA08F57A78CD
:1058C00001EB085100224FF0B873FAF78BFE03B0DA
:1058D000BDE8F08F424B9A423FF658AF414BF4007F
:1058E0002344D3E90023FAF7C9FC3F4BC6F1010872
:1058F0002344CDE90001D3E900ABA8EB060870E72B
:105900004FF0000875E702460B46FAF7B9FC0EE7C0
:1059100017A3D3E9002310461946FAF763FE06E7FA
:10592000FAF760FE0022804689464FF080433046F9
:105930003946FAF7A3FC02460B4640464946FAF7B9
:105940007BFF2A462346FAF799FC02460B460020C5
:105950002149FAF793FC03B0BDE8F08F01EB085141
:1059600003B0BDE8F08F804643E700BFAFF300808F
:105970009C7500883CE4377EEF39FAFE422E864063
:1059800051302DD5104987C0FE822B654715F73F52
:105990000000E0FE422EE63F763C7935EF39EA3DE5
:1059A000D0A4BE726937663EF16BD2C541BDBB3E25
:1059B0002CDE25AF6A56113F93BDBE166CC1663F03
:1059C0003E5555555555C53F412E8640FFFFEF7F4B
:1059D000422ED63FFFFF2F3E0000F03F207E000802
:1059E000B1A2F03F307E0008407E000800000000B9
:1059F0002DE9F04F984C21F00047A7428FB040F3BB
:105A00008A801446954A0D46974226DC88A3D3E93E
:105A10000023002940F3A881FAF730FC904B804620
:105A20009F42894600F08C8083A3D3E90023FAF7D4
:105A300025FC02460B464046C4E900234946FAF7D6
:105A40001DFC7DA3D3E90023FAF718FC0126C4E965
:105A5000020130460FB0BDE8F08F824A974240F312
:105A60008C80814A974261DC4FEA275AAAF2164A93
:105A7000A7EB0A5189468046FBF764F8FAF74CFD1C
:105A800006460F4632463B4640464946CDE9086742
:105A9000FAF7F4FB0022754BFAF7A4FD894680461D
:105AA000FBF750F8FAF738FD06460F4632463B46FC
:105AB00040464946CDE90A67FAF7E0FB00226B4B06
:105AC000FAF790FD00220023CDE90C01FAF7F2FF6E
:105AD000002800F067810023304639460022FAF79B
