:020000040800F2
:100000000004002061010008E52F0008E52F00082A
:10001000E52F0008E52F0008E52F0008E52F000870
:10002000E52F0008E52F0008E52F0008553B0008E4
:10003000E52F0008E52F0008E52F0008E52F000850
:10004000E52F0008E52F0008E52F0008E52F000840
:10005000E52F0008E52F0008E52F0008E52F000830
:10006000E52F0008E52F0008E52F00082D490008BE
:10007000E9480008A5480008614800081D48000834
:10008000D947000895470008E52F0008E52F00082C
:10009000A9500008E52F0008E52F0008E52F00080B
:1000A000E52F000855470008E52F0008E52F000858
:1000B000754B0008E52F0008E52F0008654D000886
:1000C000714C0008E52F0008E52F0008E52F000817
:1000D000E52F00086D490008E52F0008E52F00080E
:1000E000E52F0008E52F0008E52F0008E52F0008A0
:1000F000E52F0008E52F0008E52F0008E52F000890
:10010000E52F0008E52F0008E52F0008E52F00087F
:10011000E52F0008E52F0008E52F0008E52F00086F
:10012000E52F0008E52F0008E52F0008E52F00085F
:10013000E52F0008E52F0008E52F0008E52F00084F
:10014000E52F0008E52F0008E52F0008E52F00083F
:10015000E52F0008E52F0008E52F0008E52F00082F
:1001600072B6274880F30888264880F30988264815
:100170004EF60851CEF200010860022080F3148888
:10018000BFF36F8F02F066FF04F0B2FE4FF0553000
:100190001E491B4A91423CBF41F8040BFAE71C4937
:1001A000184A91423CBF41F8040BFAE719491A4A30
:1001B0001A4B9A423EBF51F8040B42F8040BF8E781
:1001C00000201749174A91423CBF41F8040BFAE757
:1001D00002F00AFF02F03CFF134C144DAC4203DA6C
:1001E00054F8041B8847F9E701F042FA104C114D0E
:1001F000AC4203DA54F8041B8847F9E702F026BF43
:10020000000400200008002000000008000000207A
:1002100000040020F8A0000800080020981000202A
:100220009810002050320020600100086001000892
:1002300060010008600100082DE9F04FC1F80CD002
:10024000C3689D46BDE8F08F02F09CFB02F0EAF81F
:10025000002383F311882846A047002002F020FEE7
:1002600002F0F2F802F0B8FB02F042F902F08AFB69
:1002700002F0D8F800DFFEE781F0004102E000BFA5
:1002800083F0004330B54FEA41044FEA430594EA56
:10029000050F08BF90EA020F1FBF54EA000C55EA91
:1002A000020C7FEA645C7FEA655C00F0E2804FEA62
:1002B0005454D4EB5555B8BF6D420CDD2C4480EA44
:1002C000020281EA030382EA000083EA010180EA74
:1002D000020281EA0303362D88BF30BD11F0004FC2
:1002E0004FEA01314FF4801C4CEA113102D04042F8
:1002F00061EB410113F0004F4FEA03334CEA133333
:1003000002D0524263EB430394EA050F00F0A7804A
:10031000A4F10104D5F1200E0DDB02FA0EFC22FA45
:1003200005F2801841F1000103FA0EF2801843FA39
:1003300005F359410EE0A5F120050EF1200E012A2A
:1003400003FA0EFC28BF4CF0020C43FA05F3C01868
:1003500051EBE37101F0004507D54FF0000EDCF1E1
:10036000000C7EEB00006EEB0101B1F5801F1BD38A
:10037000B1F5001F0CD349085FEA30004FEA3C0C8E
:1003800004F101044FEA445212F5800F80F09A8084
:10039000BCF1004F08BF5FEA500C50F1000041EB88
:1003A000045141EA050130BD5FEA4C0C404141EB8C
:1003B000010111F4801FA4F10104E9D191F0000FB3
:1003C00004BF01460020B1FA81F308BF2033A3F136
:1003D0000B03B3F120020CDA0C3208DD02F1140C2D
:1003E000C2F10C0201FA0CF021FA02F10CE002F168
:1003F0001402D8BFC2F1200C01FA02F120FA0CFC61
:10040000DCBF41EA0C019040E41AA2BF01EB0451A9
:10041000294330BD6FEA04041F3C1CDA0C340EDCA7
:1004200004F11404C4F1200220FA04F001FA02F3EA
:1004300040EA030021FA04F345EA030130BDC4F1A8
:100440000C04C4F1200220FA02F001FA04F340EA9D
:100450000300294630BD21FA04F0294630BD94F04E
:10046000000F83F4801306BF81F480110134013D35
:100470004EE77FEA645C18BF7FEA655C29D094EAA6
:10048000050F08BF90EA020F05D054EA000C04BF24
:100490001946104630BD91EA030F1EBF002100200F
:1004A00030BD5FEA545C05D14000494128BF41F0AE
:1004B000004130BD14F580043CBF01F5801130BD12
:1004C00001F0004545F0FE4141F470014FF000009D
:1004D00030BD7FEA645C1ABF194610467FEA655C4E
:1004E0001CBF0B46024650EA013406BF52EA0335F0
:1004F00091EA030F41F4002130BD00BF90F0000FDE
:1005000004BF0021704730B54FF4806404F1320419
:100510004FF000054FF0000150E700BF90F0000FD2
:1005200004BF0021704730B54FF4806404F13204F9
:1005300010F0004548BF40424FF000013EE700BFC9
:1005400042004FEAE2014FEA31014FEA02701FBF59
:1005500012F07F4393F07F4F81F06051704792F02B
:10056000000F14BF93F07F4F704730B54FF46074A5
:1005700001F0004521F0004120E700BF50EA0102F0
:1005800008BF704730B54FF000050AE050EA01029D
:1005900008BF704730B511F0004502D5404261EB0D
:1005A00041014FF4806404F132045FEA915C3FF44E
:1005B000DCAE4FF003025FEADC0C18BF03325FEAE7
:1005C000DC0C18BF033202EBDC02C2F1200300FA9C
:1005D00003FC20FA02F001FA03FE40EA0E0021FAC1
:1005E00002F11444C1E600BF70B54FF0FF0C4CF4AB
:1005F000E06C1CEA11541DBF1CEA135594EA0C0F61
:1006000095EA0C0F00F0DEF82C4481EA030621EA9B
:100610004C5123EA4C5350EA013518BF52EA0335D6
:1006200041F4801143F4801338D0A0FB02CE4FF088
:100630000005E1FB02E506F00042E0FB03E54FF0B8
:100640000006E1FB03569CF0000F18BF4EF0010EB0
:10065000A4F1FF04B6F5007F64F5407404D25FEAAC
:100660004E0E6D4146EB060642EAC62141EA55515F
:100670004FEAC52040EA5E504FEACE2EB4F1FD0CA1
:1006800088BFBCF5E06F1ED8BEF1004F08BF5FEA1F
:10069000500E50F1000041EB045170BD06F00046D1
:1006A00046EA010140EA020081EA0301B4EB5C047E
:1006B000C2BFD4EB0C0541EA045170BD41F4801176
:1006C0004FF0000E013C00F3AB8014F1360FDEBF9B
:1006D000002001F0004170BDC4F10004203C35DA77
:1006E0000C341BDC04F11404C4F1200500FA05F3FA
:1006F00020FA04F001FA05F240EA020001F000429B
:1007000021F0004110EBD37021FA04F642EB060110
:100710005EEA430E08BF20EAD37070BDC4F10C043A
:10072000C4F1200500FA04F320FA05F001FA04F2FE
:1007300040EA020001F0004110EBD37041F10001EA
:100740005EEA430E08BF20EAD37070BDC4F12005F5
:1007500000FA05F24EEA020E20FA04F301FA05F25D
:1007600043EA020321FA04F001F0004121FA04F205
:1007700020EA020000EBD3705EEA430E08BF20EAD5
:10078000D37070BD94F0000F0FD101F0004640000F
:1007900041EB010111F4801F08BF013CF7D041EA91
:1007A000060195F0000F18BF704703F00046520095
:1007B00043EB030313F4801F08BF013DF7D043EA66
:1007C0000603704794EA0C0F0CEA135518BF95EA1C
:1007D0000C0F0CD050EA410618BF52EA4306D1D1A3
:1007E00081EA030101F000414FF0000070BD50EAC2
:1007F000410606BF1046194652EA430619D094EA4C
:100800000C0F02D150EA013613D195EA0C0F05D135
:1008100052EA03361CBF104619460AD181EA030189
:1008200001F0004141F0FE4141F470014FF0000041
:1008300070BD41F0FE4141F4780170BD70B54FF0DC
:10084000FF0C4CF4E06C1CEA11541DBF1CEA13555C
:1008500094EA0C0F95EA0C0F00F0A7F8A4EB05043E
:1008600081EA030E52EA03354FEA013100F0888035
:100870004FEA03334FF0805545EA131343EA1263FE
:100880004FEA022245EA111545EA10654FEA0026B3
:100890000EF000419D4208BF964244F1FD0404F56C
:1008A000407402D25B084FEA3202B61A65EB0305C8
:1008B0005B084FEA32024FF480104FF4002CB6EB85
:1008C000020E75EB030E22BFB61A754640EA0C0005
:1008D0005B084FEA3202B6EB020E75EB030E22BF45
:1008E000B61A754640EA5C005B084FEA3202B6EB86
:1008F000020E75EB030E22BFB61A754640EA9C0045
:100900005B084FEA3202B6EB020E75EB030E22BF14
:10091000B61A754640EADC0055EA060E18D04FEAD2
:10092000051545EA16754FEA06164FEAC30343EA72
:1009300052734FEAC2025FEA1C1CC0D111F4801F3F
:100940000BD141EA00014FF000004FF0004CB6E738
:1009500011F4801F04BF01430020B4F1FD0C88BFD7
:10096000BCF5E06F3FF6AFAEB5EB030C04BFB6EBE2
:10097000020C5FEA500C50F1000041EB045170BDD5
:100980000EF0004E4EEA113114EB5C04C2BFD4EB02
:100990000C0541EA045170BD41F480114FF0000E86
:1009A000013C90E645EA060E8DE60CEA135594EA02
:1009B0000C0F08BF95EA0C0F3FF43BAF94EA0C0F05
:1009C0000AD150EA01347FF434AF95EA0C0F7FF47A
:1009D00025AF104619462CE795EA0C0F06D152EACE
:1009E00003353FF4FDAE1046194622E750EA4106B2
:1009F00018BF52EA43067FF4C5AE50EA41047FF4C3
:100A00000DAF52EA43057FF4EBAE12E74FF0FF3C27
:100A100006E000BF4FF0010C02E000BF4FF0010CF8
:100A20004DF804CD4FEA410C7FEA6C5C4FEA430C71
:100A300018BF7FEA6C5C1BD001B050EA410C0CBFC0
:100A400052EA430C91EA030F02BF90EA020F002022
:100A5000704710F1000F91EA030F58BF994208BF89
:100A600090422CBFD8176FEAE37040F00100704746
:100A70004FEA410C7FEA6C5C02D150EA013C07D19D
:100A80004FEA430C7FEA6C5CD6D152EA033CD3D0E8
:100A90005DF8040B704700BF8446104662468C46E2
:100AA0001946634600E000BF01B5FFF7B7FF002815
:100AB00048BF10F1000F01BD4DF808EDFFF7F4FF3E
:100AC0000CBF012000205DF808FB00BF4DF808EDC9
:100AD000FFF7EAFF34BF012000205DF808FB00BFEC
:100AE0004DF808EDFFF7E0FF94BF012000205DF80E
:100AF00008FB00BF4DF808EDFFF7CEFF94BF0120C3
:100B000000205DF808FB00BF4DF808EDFFF7C4FFBB
:100B100034BF012000205DF808FB00BF4FEA410C04
:100B20007FEA6C5C02D150EA013C0AD14FEA430CE7
:100B30007FEA6C5C02D152EA033C02D14FF0000024
:100B400070474FF0010070474FEA410212F5001262
:100B500015D211D56FF47873B3EB625212D94FEA04
:100B6000C12343F0004343EA505311F0004F23FAEE
:100B700002F018BF404270474FF00000704750EA43
:100B8000013005D111F0004008BF6FF00040704700
:100B90004FF00000704700BF4A0011D212F500125A
:100BA00011D20DD56FF47873B3EB62520ED44FEAC5
:100BB000C12343F0004343EA505323FA02F0704745
:100BC0004FF00000704750EA013002D14FF0FF3083
:100BD00070474FF000007047844641EA000313F06D
:100BE000030349D1403A23D30B6803604B68436049
:100BF0008B688360CB68C3600B6903614B69436199
:100C00008B698361CB69C3610B6A03624B6A436280
:100C10008B6A8362CB6AC3620B6B03634B6B436368
:100C20008B6B8363CB6BC36340304031403ADBD284
:100C300030320BD30B6803604B6843608B68836072
:100C4000CB68C36010301031103AF3D20C3205D3A8
:100C500051F8043B40F8043B043AF9D2043208D07E
:100C6000D2071CBF11F8013B00F8013B01D30B88F0
:100C700003806046704700BF082A13D38B07B1D0AA
:100C800010F00303AED0C3F10403D21ADB071CBF7C
:100C900011F8013B00F8013BA4D331F8023B20F8E6
:100CA000023B9FE7043AD9D3013A11F8013B00F81F
:100CB000013BF9D20B7803704B7843708B788370CB
:100CC000604670472DE9F04F0225D5B0DFF860E2AD
:100CD00028AB1DAF02931E460446BEE80F000FC7A7
:100CE000BEE80F000FC79EE8070087E807008C49A1
:100CF00001F11000CB784F788A7843EA056343EA24
:100D00000743043143EA0223884246F8043B01D0FA
:100D10000D78EFE70420834E27AD82072B6919D1A8
:100D20004FEA3363190EDAB2775CB25CC3F3074162
:100D3000C3F3072316F801E042EA076220F003013B
:100D4000F75C54AB194442EA0E4251F8DC3C42EAEB
:100D50000722534055F8042F013053402C282B61B3
:100D6000DBD1102007F0A8FE0546102007F0A4FEF6
:100D700080461A90102007F09FFEF02307461B9034
:100D800054AE204606F8DD3D02F0A8FF102332469F
:100D90005021019320460123009506F0C5F8204616
:100DA00002F08EFF604B614C93E807004346FC6005
:100DB00087E80700002B00F04584002D00F04284F6
:100DC00095E80F001DAC84E80F009DF874109DF8A5
:100DD0007B3003919DF88010519D06919DF8811004
:100DE0009DF87A6050989DF875909DF876809DF8F2
:100DF00077C0049308919DF87F30039986EA152601
:100E0000529A81EA10619DF878E09DF879709DF81A
:100E10007C409DF87DB09DF87EA0059389EA10493D
:100E2000539B88EA10288CEA000C9DF882000396F8
:100E3000049E8EEA156E87EA154775409DF883601B
:100E400084EA12640496059E8BEA124B8AEA122AFF
:100E50007240069E5FFA8CFC86EA13660796089E2F
:100E6000FFB286EA13460896049E8DF87C405FFA2E
:100E70008BF480EA1320EDB27340CDF850C00E978A
:100E800004949DF80C705FFA8AF49DF820C01195C7
:100E90000594C5B2DCB28DF874101097E3460F4686
:100EA0002B462146D2B206929DF81C205FFA89F9A2
:100EB0005FFA88F8CDF84890CDF84C808DF878E04E
:100EC0008DF880208DF87A309DF818301DAA8DF8A5
:100ED0007B309DF8383018928DF87D309DF84C307D
:100EE00016468DF87E309DF814209DF810308DF850
:100EF00076208DF881309DF844209DF840308DF8A3
:100F000077208DF882309DF848209DF850308DF87C
:100F100075B08DF879208DF87F108DF883300AE058
:100F2000D4930008E4940008E8F7FF1FDCD7465884
:100F3000A89300083778044BDB5D06F8013B21AB32
:100F4000B342F7D102E000BFE4930008029A9DF893
:100F50007710D2F8903003911146D2F89420199668
:100F600016460A46D2F89C20D1F898100B929DF8AC
:100F700083209DF8740004929DF878209DF875A058
:100F800009929DF87C209DF876900C929DF8802027
:100F900080EA13601092039A07919DF879809DF87A
:100FA0007AC09DF87BB09DF87DE09DF87E709DF83D
:100FB0007F509DF881409DF8821011908AEA134A73
:100FC00089EA132908965340079A88EA164887EA5F
:100FD00012278EEA124E55400B9A8BEA060B8CEACA
:100FE000162C164681EA122184EA12445FFA8AFA24
:100FF000049ACDF80CA05FFA83FA5FFA88F3724086
:101000000493089E099B5FFA8CFCCDF814C05FFA2C
:101010008EFE5FFA8BFCCDF818C0CDF820E083EA95
:10102000166C5FFA87FE079E0C9FCDF824E087EAD6
:10103000166ECDF83CE05FFA84FE109F0B9ECDF853
:101040001CE05FFA81FECDF830E05FFA82FEEDB27F
:10105000CDF834E087EA166ECDF838C0CDF82CE034
:101060000A9505F08BF8109005F088F8054605F014
:1010700085F80446DDF80C8065405FFA85FE404641
:10108000764605F07BF8CDF80C80054605F076F83D
:10109000169005F073F85FFA89F9834688EA090724
:1010A00010988AEA070747404846139505F066F806
:1010B000159005F063F86F40054605F05FF8FFB244
:1010C00087EA0B075FFA87FE804645405046CDF819
:1010D00048E005F053F8074605F050F8149005F085
:1010E0004DF8119B039A159983EA020E109A83EA30
:1010F000090389EA0E098AEA030C82EA09098AEAE5
:101100000E0A139A84EA0C0C8BEA0A0A84EA09098B
:1011100082EA0C0C81EA0A0A169A88EA090981EA2D
:101120000C0C87EA0A0A149982EA0B0287EA090979
:1011300080EA0A0A129FD2B24140EDB288EA0C0C52
:1011400086EA0A0A82EA0C0C87EA000385EA0A0AA0
:10115000C8B280EA0C0C82EA09095FFA8AFE80EACA
:10116000090973400E98CDF84CE05FFA8CFE6B4095
:10117000CDF848E05FFA89FEDFB2CDF850E004F028
:10118000FDFF814604F0FAFF054604F0F7FF044630
:10119000DDF810B065405FFA85FE5846CDF80CE0EA
:1011A00004F0ECFFCDF810B0824604F0E7FF159094
:1011B00004F0E4FF059D02998BEA0508A1F1100EE9
:1011C00083462846CDF808E00595CDF8449004F014
:1011D000D5FF179004F0D2FF054604F0CFFF069E1E
:1011E000454086EA080889EA08088AEA08085FFA9A
:1011F00088F88BEA08085FFA88FE81463046CDF809
:1012000040E0069604F0BAFF804604F0B7FF16905F
:1012100004F0B4FF0E9E049B059986EA030E81EA52
:101220000E0C86EA01031199069E81EA0C0C1599B1
:10123000179A734086EA0E0E63408BEA0E0E81EA1F
:101240000B0B10998AEA030382EA0E0E84EA0C045F
:10125000534080EA010C039A88EA0E0E169980EA40
:101260000E0E82EA0E0EEDB25FFA8BFB89EA0404E1
:1012700089EA03034140C9B288EA04048BEA030304
:1012800085EA0E0E82EA0C0C4B408BEA04045FFAEE
:101290008EFE85EA0C0C4C40CDF840E05FFA83FEF0
:1012A0005FFA8CF10F98CDF838E05FFA84FE159163
:1012B000CDF844E004F062FF054604F05FFF044609
:1012C00004F05CFF8346DDF8208084EA0B04E3B27F
:1012D0004046039304F052FFCDF82080824604F08C
:1012E0004DFF069004F04AFF099C81462046059573
:1012F000099404F043FF179004F040FF0A9E88EA27
:10130000040886EA080885EA0808054604F036FF5E
:101310008AEA08085FFA88F889EA08085FFA88FE0E
:10132000044645403046CDF810E00A9604F026FF0A
:10133000804604F023FF169004F020FF0F9A0899CE
:10134000164682EA0103099A0A9986EA020E82EA9F
:10135000030C81EA0E0E4B400599069A81EA0C0CAB
:101360008BEA0E0E17998AEA0E0A8BEA0C0B81EAB9
:101370000A0A049E89EA030382EA0909169A4B4085
:1013800084EA0A0A84EA0B0B039C80EA060E88EAC8
:1013900003035FFA89F9424088EA0B0BEDB2434040
:1013A00084EA0E0ED2B289EA0B0B82EA0B0B89EAB1
:1013B0000A09634085EA0E0E82EA09026B405FFA71
:1013C0008EF55FFA8BFEDBB20B98CDF818E05FFA72
:1013D00082FECDF810E00593099504F0CFFE03904E
:1013E00004F0CCFE044604F0C9FE8046DDF81C90F3
:1013F00084EA0804E3B24846089304F0BFFECDF83F
:101400001C90834604F0BAFE0F9004F0B7FE0C9DCA
:101410000D9E039B89EA05048246744028465C4081
:101420000C9504F0ABFE179004F0A8FE814604F082
:10143000A5FE8BEA0404E4B28AEA04045FFA84FE9F
:10144000054689EA00093046CDF828E00D9604F0FB
:1014500095FE044604F092FE169004F08FFE0B9E5B
:101460000799179A86EA010C0C995FFA89F986EABE
:10147000010E0D9E8DF8747086EA0C0386EA0E0E3E
:10148000039E81EA0C0C86EA0C0C8AEA030388EAC4
:101490000C0C534085EA0C0C634084EA0C0C169942
:1014A0000A9C88EA0E0E8BEA0E0B434080EA040E7B
:1014B00041400F9E9DF8540082EA0B0B089C86EA7F
:1014C0000A0A8DF878009DF824005FFA8AFA85EA06
:1014D0000B0B029AC9B28AEA0B0B8AEA0C0C84EA5B
:1014E0000E0E63408DF87C0004A881EA0B0B89EA9C
:1014F0000E0E89EA030381EA0C0190428DF880E028
:10150000DBB25FFA8BFBC9B27FF4DCAC1D460C4644
:101510009DF8143039468DF876309DF84430199A8C
:101520008DF877309DF848308DF875B08DF87930AA
:101530009DF818308DF87A508DF87B309DF8383052
:101540008DF87F408DF87D309DF84C308DF87E30E1
:101550009DF810308DF881309DF840308DF8823044
:101560009DF850308DF88330189B00E019783E4884
:10157000415C03F8011B9A42F8D1289A9DF8744007
:101580009DF875009DF876109DF8775084EA1264F6
:1015900080EA124081EA1221299B6A408DF874404A
:1015A0009DF878509DF879408DF875008DF876108B
:1015B0009DF87A009DF87B1085EA136584EA134450
:1015C00080EA132059408DF877202A9B9DF87C20D3
:1015D0008DF878508DF879409DF87D509DF87E40CB
:1015E0008DF87A009DF87F0082EA136284EA132462
:1015F000584085EA13458DF87B102B9B9DF8801091
:101600008DF87C209DF8812081EA136182EA1342E3
:101610008DF87E408DF87F008DF881208DF87D500B
:101620008DF880109DF882109DF8832081EA1321A7
:101630001A9C53408DF883308DF882101DAB0FCB70
:1016400084E80F001B991A98102207F0E7FC28B1D4
:101650000022064B1A7055B0BDE8F08F0122034BF3
:101660001A7055B0BDE8F08FE4930008A030002058
:1016700000214FF0FF34104B2DE980481D691C619B
:101680001961DD68DC60D960DC690C4D44F0805480
:10169000DC61DC690A4E44F000646960DC61336837
:1016A0008BB043F48073336008460A46054C064FFE
:1016B000064B29600EE000BF00100240F031002010
:1016C00000700040DC96000808000240DC3000207A
:1016D00054F8147C3A6043F830200130072804F1B4
:1016E0001404F5D14FF0FF304FF08831B44D012490
:1016F0002F464FF4807E0023B24EDFF8F0C27060B8
:10170000DCF81860DFF81CB346F07D06CCF81860F2
:10171000AD4EACF5843CCCF80C00CCF80410CCF801
:101720000010F06071603160A84ECCF80C08CCF865
:101730000468CCF80018A64EDFF8ECC2F0607160C7
:10174000C6F800C0DFF8E4C2C6F80C04C6F80414FA
:10175000A048C6F80014A04E47F804CB9F496F601C
:101760009F4F7063F16200F5584014393163F8609F
:1017700006F10C019B48F16031619B497260726116
:10178000F2617A6034703C702C72E86405F10C00F0
:101790006A61AA62C5F838E0C5F8541205F5157EED
:1017A00005F15401CBF80420E86005F5AA72286120
:1017B00005F13000A96169622962EA61EA63AA64FD
:1017C0006A64ED622D65C5F840E08BF8004028633F
:1017D00068630BF12C020BF1480142F8043B8A428A
:1017E0009361FAD14FF0010A4FF0FF307F4CABF814
:1017F0000830E169DFF838E241EA0A01ABF80A3063
:10180000E1617B4CDEF804104FF08042A0844BF67F
:101810007F3041F40061CEF8041090624FF6FF7003
:1018200004F11C0ED062936164605363A360D360C3
:1018300024615360E384E3622363C4F898306461F5
:10184000C2F814A0C4F81CE0C2F800A06FF07F0238
:1018500068494FF0805C81F81C234FF000084FF07E
:1018600000094FF0FF3204A8C4F820E0C1F880C19D
:10187000C1F800C005930693049224600793029375
:10188000CDE9088900F0D4FD04A800F0A3FD4FF0D5
:10189000FF31C4F8A810C4F8C01080214FF6FF0C27
:1018A0000698554AC4F898005448029B2164616721
:1018B0005349106002F10C00536093605361D06093
:1018C000106121654F4A5049D4F814E00A604F4A2C
:1018D000C4F8A030C4F8A430C4F8AC30C4F8B030B8
:1018E000C4F8B430C4F8C430C4F8C830C4F8CC303C
:1018F00084F859302367E366C4F84CE0C4E92E89C4
:10190000C4E9348984F85AA0A4644A60404A04F1C6
:101910003800CEF81000D2F80CE03E490EEA0C0E6A
:101920004EEA01010CF1604C6061ACF60F3CD160F5
:10193000DCF80C10A06141F08071CCF80C104FF075
:10194000FF31DFF8F0E04FF0200CDEF80000C4F8C3
:10195000801040EA0A00CEF800004FF010002E4937
:10196000D07704F1600E82F822C004F16402C4F85A
:101970008430C4F88830C4F88C3004F18000C4E9A5
:10198000248984F858A0C4F860E061656266A266A4
:1019900000F04EFDE36A0BB9236B1BB172B61F4B0F
:1019A000A362FEE783F3118862B6DFF88C804046BD
:1019B00001F01EF9002841D072B6194BA362FEE770
:1019C000A810002000000240000C014088883888E0
:1019D0000014014000540040A43000203C9700084F
:1019E000981000200947000800380140001002400C
:1019F0001831002000E100E0301D0020754600088D
:101A00005097000850320020281D00200050002070
:101A100000ED00E00003FA050004002084970008B0
:101A2000189600089417002044888888AC9700080E
:101A3000002004E0001000E0301C00204346552147
:101A400008F1F80203F8011B9342FBD14FF0200A82
:101A50008AF3118800F0F8FC4FF0020900F0BCFF97
:101A600000F036FD002201218748884BC8F8740039
:101A70008748D4F814C0C8F894008648C8F8ACC0A9
:101A8000C8F8B00003F12400C8F8A010C8F8D410BA
:101A900088F8BA10C8F8A430C8F8782088F8B920B7
:101AA000C8F8D020C8F8CC20C8F8B480C8F8A8403E
:101AB00088F8B890CCF81000C8F8E420C8F8E820FE
:101AC000C8F8EC2003F14C0250334FF0FF3EC8F849
:101AD000C020C8F8C4300022C8F8C8300023C8F8B5
:101AE000E0E0C8E93C23606105F0D6F800F05AFF59
:101AF00007224FF40051684803F072FCDFF8B08110
:101B000011224FF40071654803F06AFC4A464FF415
:101B10008061624803F064FC40461122402103F0DA
:101B20005FFC40461122802103F05AFC07225146F7
:101B3000404603F055FCC8F810A033785A1E012A1D
:101B400005D9052B03D072B6554BA362FEE72023BF
:101B500083F3118800F078FC00F03EFF96F800A0B7
:101B6000504BBAF1010F7360D6F8348000F05C82FC
:101B70004FF4106E4FF4004C0022F16A336B706822
:101B8000D1F80490D3F804A008F110014368C9F813
:101B90000810DFF82091CAF8081003F1FF3AC8F8DE
:101BA00000C0CA45C8F80020C8F804E090F808E072
:101BB000716B00F2EF814FF6C07AD1F804C0DFF804
:101BC000F8900CEA0A0CC1F804C0D1F804C04B45E7
:101BD0004CF0180CC1F804C000F3A381BEF1010F52
:101BE00003D072B6304BA362FEE7DFF8D0E05B00B3
:101BF0009EFBF3F203FB12E3002B40F08E8192B2C6
:101C0000032A40F259821923B2F5805F0B62C2F3B6
:101C10000B0380F04D82CB6102780B68022A9BB2E5
:101C200000F07581032A00F06F81012A02D123F0B0
:101C30000A039BB202220B60D8F8003043F0010384
:101C4000C8F80030327000F09DFE00F0EBFB236816
:101C5000A34205D0A2699B6892689A42C0F04C8169
:101C6000002383F311884FF0200888F3118800F0D7
:101C7000EBFB00F0B1FE2B7A5A1E012A20D972B676
:101C80000A4BA362FEE700BF75230008A41C0020D6
:101C9000490200088C97000800100140000801402C
:101CA00030960008789700084C9600089496000833
:101CB000000C0140FF083D00A086010000366E01C7
:101CC000012B0CD1C020B549B54B8A6942F4804242
:101CD0008A6183F82503C3F88481C3F80480D02285
:101CE000D5F854324FF0010C42F22C1E00204FF078
:101CF00040089A60FF210222C3F81080C3F814C084
:101D0000C3F80CE0186018685B6885F858122A72EE
:101D100000F038FE00F086FB2368A34205D0A269DC
:101D20009B6892689A42C0F0EB804FF0000989F3FB
:101D300011889C4B80201B605B60C3F808908DF875
:101D4000109006F0B9FE8046974800F0B9FE802357
:101D500004AA019350210123CDF80080934805F097
:101D6000E3F8914800F048FE4B464246DFF898E21F
:101D70008F48DFF898A2B2F80090B2F802C08D49FF
:101D80002EF813C021F81390B2F806C0B2F80490F0
:101D90002AF813C020F813900133102B02F1080227
:101DA000E9D100234046029306F08EFE029BDFF845
:101DB00060A29846DFF85C927F4A03927D4A0293C4
:101DC00032F81300FEF79AFB029B039ACAE900015E
:101DD000CAE90401CAE90601AAF80880AAF80A803B
:101DE000CAF8242001330AF1280A4FF00001B9F1A2
:101DF000000F00F06581102BC9F80090C9F804901D
:101E0000C9F8088009F11009D7D1DFF80C926B4AA4
:101E10006B48C9F80020C9F80C20C9F80820103216
:101E2000C9F8042009F11802664BC9F81820C9F84E
:101E30001C2009F12002DFF8E4E1C9F82020C9F8EC
:101E4000242000F1100219755A6089F8141003F16A
:101E5000200203F11801CEF800E0CEF804E0CEF83D
:101E600008801860D86098609961D9611A625A62D6
:101E700048465549C3F81080C9F8108004F0F6FFB1
:101E80004846524904F0F2FF4846514904F0EEFF3B
:101E90004846504904F0EAFFCDF800804E4B8522B9
:101EA000E8214E4801F02CF800964D4B84224FF467
:101EB0003A714C4801F024F800954B4B82224FF4C4
:101EC0003A714A4801F01CF80096494B81224FF4C0
:101ED0009D61484801F014F8202383F3118800F035
:101EE000B3FA00F079FD3B785A1E012A40F2EC80EB
:101EF00072B6414BA362FEE772B6404BA362FEE7A7
:101F000072B63F4BA362FEE743F00A0392E623F06A
:101F100008039BB243F002038CE672B6394BA3620E
:101F2000FEE7DFF8FCC063451FDCAEF10202012AC8
:101F300003D972B6334BA362FEE7BEF1020F1AD08B
:101F4000192202FB03F2DFF8DCE09EFBF2F302FB56
:101F500013E262B94FF480429BB24FF0080E134374
:101F600043F40043C1F820E055E6134653E672B649
:101F7000244BA362FEE7DFF8ACE003EB43039EFBD8
:101F8000F3F203FB12EEBEF1000F40F0858093B236
:101F90007246E2E772B61B4BA362FEE700100240F6
:101FA00000E100E0781D0020B0300020A4300020C7
:101FB000F02F0020902F002049540008681D0020B9
:101FC000581D0020000800201C18002020190020A7
:101FD000241A0020281B0020A95B000808210020EB
:101FE00081630008A82C00205D630008D82400202D
:101FF00059660008C027002024960008309E00087B
:10200000E49500084C960008D02F0020B02F002047
:10201000881E0020881D0020280800204C1D00205C
:10202000801A060000366E019A238A210022DFF80A
:102030005C92B362D9F81030F06A43F40013716215
:10204000C9F810308949C9F8102004F0AFFE58BB18
:102050008749306B04F0AAFE10BB50214FF00040BE
:10206000D9F81C20736A42F40012C9F81C20B26A25
:1020700043F4405E7F4B42F4405283F81F13C3F891
:102080008001C6F824E01860B26283F82013C3F818
:1020900084A1C3F804A06BE572B6774BA362FEE798
:1020A00072B6764BA362FEE772B6744BA362FEE78C
:1020B00072B6714BA362FEE772B66F4BA362FEE786
:1020C00072B66F4BA362FEE76E4A012B7A600ED0A8
:1020D00042F21072B968B1FBF2F3013B9BB203FB11
:1020E000022291421BD072B6674BA362FEE77025B5
:1020F000664B4FF000709A6942F400629A61D968A9
:102100005C4A41F40061D960C3F80C80604B82F8EE
:102110001953BB6041F2BF23C2F880011060002553
:102120000221FA681560556093621561D5603970B7
:1021300001F06EFE202383F3118800F085F900F092
:102140004BFC00F0C5F93B78022B03D072B6514B23
:10215000A362FEE76126012103207A68FB685268CA
:102160003870DE6259615D621D6112B1DA680A433E
:10217000DA608522484D1A6001F04AFE2A460023A3
:10218000012102264FF48270DFF82CE1434F42F820
:1021900004EB6A6005F10C02EF63EA6005F28C471C
:1021A0002A6105F17C02EF652A623D4FEA612A63EC
:1021B00005F521726A62AA656A65AA6605F144029C
:1021C000AB616B63AB63EB662B672D64AD676F67C9
:1021D0006A64AA642972297585F84C10A862286679
:1021E000EE622E656E66202383F3118800F02CF9D1
:1021F00000F0F2FB2B7A013B012B03D972B6294B7D
:10220000A362FEE7284BCBF82C50C5F88C34CBF8F2
:102210004850CBF830502E7200F0B4FB00F002F9B9
:102220002368A34204D0A2699B6892689A4219D39A
:10223000002686F311884FF4FA7000F003FE1B4865
:10224000FEF740FD202383F3118800F0FDF800F035
:10225000C3FB9BF80020531E012B2FD972B6144BE1
:10226000A362FEE772B6134BA362FEE77D4E000841
:102270001947000800E100E04C960008A896000805
:1022800008960008689700083C9600080010024075
:10229000006CDC0260960008041300204D3B00082F
:1022A000A13900089C96000894970008A4300020EB
:1022B000B8960008F0950008CC97000833462649E8
:1022C000CBF804100BEB03010433202BCE60F9D1C3
:1022D000012A1ED14FF480104FF400274FF0D00C8C
:1022E0004FF0E00E1D49CB6943F40003CB611C4B5A
:1022F000A1F5DA310A6483F813C3C3F880711F6053
:1023000083F814E3C3F88001186016480E6402F0E5
:10231000AFFE02238BF8003000F034FB00F082F8AF
:102320002368A34204D0A2699B6892689A420FD3A3
:10233000002383F311880C4B009583224FF43A71EC
:102340000A4800F0DDFD4FF47A7000F07BFDFAE7FB
:1023500072B6074BA362FEE79C970008001002408C
:1023600000E100E09417002039630008F02100200C
:10237000FC950008FEE700BF202383F31188054A7F
:102380000021D2F8A0300133C2F8A03081F31188C7
:10239000704700BF183100200D4B70B4D0E90445E0
:1023A0005B68C6688B60816842685B1AE41845F117
:1023B00000059342026806F1010688BF436093421C
:1023C000C660C0E9044570BC836038BF03607047D5
:1023D000001000E00E4B0F4A5B688168D2F898202D
:1023E0005B1A9B1AC26830B4D0E9044541680132D7
:1023F000E418C260026845F100058B4288BF436063
:102400009342C0E9044530BC836038BF0360704725
:10241000001000E0183100200148FFF7DBBF00BFCB
:10242000D83100200148FFF7D5BF00BFC0310020E0
:10243000014B5B6883607047001000E00148FFF7C4
:10244000F7BF00BFD83100200148FFF7F1BF00BF40
:10245000C0310020054BDA6A1AB91A6B002A00DD78
:10246000704772B6024A9A62FEE700BF1831002038
:102470004499000870B5FFF7EDFF0122124CA569E1
:10248000236885F820001E6803F14801746083F812
:102490002020D4F8A42005F1480001322660A36171
:1024A000C4F8A420FFF778FFEFF30983EA69243B1F
:1024B0009A4205D82946A069BDE87040FDF7BCBE28
:1024C00072B6024BA362FEE7183100204C99000857
:1024D000054BDA6A002A03DB1A6B002A00DD70471D
:1024E00072B6024A9A62FEE7183100203C99000851
:1024F000012238B5204C2368A56919684C6083F81F
:1025000020202160A361FFF7E3FF6DB395F8203031
:1025100033B30F2B24D00023AA6885F8203000E0C5
:1025200009688B689A42FBD34B6805F1480085E83F
:102530000A001D604D60D4F8A430A1690133483110
:10254000C4F8A430FFF728FFEFF30983EA69243BBE
:102550009A420DD82946A069BDE83840FDF76CBE07
:1025600072B6064BA362FEE772B6044BA362FEE7A7
:1025700072B6034BA362FEE7183100204C980008A6
:102580004C99000808B5FFF765FFFFF7A1FF064B60
:102590001A689B6992689B689A4200D808BDBDE89A
:1025A0000840FFF7A5BF00BF183100202DE9F04318
:1025B00087B08046FFF74EFF4FF6FF73994235D044
:1025C000FFF786FF21B972B6594B5A4A9A62FEE765
:1025D000574E4FF08040B14659F81C5F426AB369CC
:1025E0000129554C08BF02214D450593049493B22F
:1025F00051D0F08C92B21B1A19448CB2131A9C421F
:102600002B895BDA2D68E41A2B89A4B29C4201AFB6
:1026100006D813E02D68E41A2B89A4B29C420DD988
:10262000BD42F7D172B6434BB362FEE7FFF722FF1C
:102630003F4EB369586A07B0BDE8F0834FF6FF72AA
:102640006B68019502931F606F60ADF80C402B8999
:102650001C1B2C81B2844046FFF70CFFFFF738FFAC
:10266000049B002BE5D0FFF733FFF369BB422DD06D
:102670000021029A019B1360019B4B455A60049113
:10268000D7D01A89BDF80C100A441A81B369586A68
:1026900007B0BDE8F083C26801AFF38412F0020214
:1026A0000B449BB201950295ADF80C10F7613762AF
:1026B00031D1022143630261C160CCE79C42A5D2C3
:1026C000204480B201F02AFB2B899FE70023019868
:1026D0004845F061C0F80490049320D04FF0804347
:1026E0005A6AF18C0389BDF80C4092B2511A234406
:1026F0009BB289B28B4203819BD95B1A9BB2022B9E
:102700002CBFD318931C98B201F008FBB369586A28
:1027100007B0BDE8F08372B6084BB362FEE74FF036
:102720008042D360B369586A07B0BDE8F08300BF48
:10273000183100203498000819290008FC98000876
:1027400061B10246074B10B49B694468042083E8DA
:1027500014002360536010BCFFF728BF4FF0FF3018
:10276000704700BF1831002008B5FFF7B1FED0B1A7
:1027700090F8203001468BB10F2B0FD000220C4B6C
:10278000806881F820201B689A688242FBD25A68D0
:1027900008460B604A601160596008BD72B6044B70
:1027A000044A9A62FEE772B6014B024A9A62FEE759
:1027B0001831002028980008F8B5FFF789FE002896
:1027C00035D004680546A04224D00E46002702E01A
:1027D0002468A5421ED0E3683343E36016B1226942
:1027E0001342F5D06068A168FFF772FED0B1436B69
:1027F00090F820200B430A2A43630CD00B2AE7D120
:10280000426A32EA0303E3D14762FFF7ADFF24686F
:10281000A542E0D1F8BD426A1342D9D04762FFF722
:10282000A3FFF4E772B6044B044A9A62FEE772B65D
:10283000014B034A9A62FEE718310020B098000865
:102840006098000803688BB1024693F820000328C3
:1028500004D072B6064B074A9A62FEE710B4002411
:1028600014605962184610BCFFF77EBF704700BF66
:1028700018310020DC980008202383F31188074BCF
:10288000DA6A002A01DD196B19B172B6044A9A623C
:10289000FEE7013ADA6281F31188704718310020AF
:1028A00014990008202383F31188074BDA6A002A61
:1028B00001DB196B19B172B6044A9A62FEE7013264
:1028C000DA6281F311887047183100200C990008F2
:1028D000064BDA6A002A05DD1A6B002A02DD0022A7
:1028E0001A63704772B6024A9A62FEE718310020F6
:1028F00034990008064BDA6A002A01DD1A6B1AB116
:1029000072B6044A9A62FEE701221A63704700BF5A
:10291000183100202499000808B50146202383F3CC
:102920001188FFF78BFDFFF7E5FF91F82030072BAB
:1029300010D8DFE803F0150F0F1D0A040F0A486ACC
:10294000FFF7C6FD83680133836091E80C001A60CD
:102950000A6853604FF0FF3308464B62FFF704FFED
:10296000FFF7B6FFFFF758FD002383F3118808BD7A
:1029700000224B6A08461A604FF0FF334B62FFF7A4
:10298000F3FEEDE7054BDA6A22B9196B002901DD88
:102990001A63704772B6024A9A62FEE71831002045
:1029A0002C99000808B5FFF7EDFFFFF73BFD084B3A
:1029B0001A689A4204D0996992688968914203D34F
:1029C000002383F3118808BD72B6024A9A62FEE7BB
:1029D00018310020EC970008054BDA6A0AB91A6B27
:1029E0001AB172B6034A9A62FEE701221A6370476F
:1029F000183100201C990008F8B52E4FBD6988B128
:102A00000146202383F31188FFF71EFDFFF7E4FF43
:102A1000AB6B002B49D09A68954207D072B6264B13
:102A2000BB62FEE772B6244BBB62FEE7994203D05D
:102A300072B6214BBB62FEE7C868A863FFF70AFDC8
:102A40000C68A1422ED0EE6B58B1FFF703FD03686E
:102A5000984203D09B689E4238BF1E46C06800283B
:102A6000F3D1A26B23682046AE600B6059608C6086
:102A7000CA60A163FFF778FEFFF784FDFFF782FFCE
:102A8000FFF7D0FC3B68BB4204D0BA699B689268F0
:102A90009A4203D3002383F31188F8BD72B6074B23
:102AA000BB62FEE700238B60E8E772B6024BBB62B5
:102AB000FEE700BF1831002090980008F897000842
:102AC000F8B50546202383F31188464EFFF7BCFC7A
:102AD000FFF782FFB469FFF7BDFC45B3A868002883
:102AE00030D0A26883689A4208D990F8203082607A
:102AF000062B5ED0072B48D0002B3BD02B4603E0A3
:102B00009968A268914202D31B689D42F8D15A6825
:102B100006202360626014605C606562FFF7AAFCB7
:102B2000AB689C4207D072B62F4BB362FEE772B619
:102B30002D4BB362FEE7A36B9D4207D072B62A4BC2
:102B4000B362FEE7A36BAC60EB60A563FFF71AFF0F
:102B5000FFF768FC3368B34204D0B2699B6892689F
:102B60009A4203D3002383F31188F8BD72B61F4B3A
:102B7000B362FEE7012190E80C0080F820101A6093
:102B800002685360FFF7F0FDB8E790E80A001960AB
:102B900001684B60416A0B4602E09F68974202D38E
:102BA0001B689942F9D15A6803604260106058600E
:102BB000A4E790E80A00196001684B60416A0B467F
:102BC00002E09F68974202D31B689942F9D15A6884
:102BD00003604260106058608868A26883689A4207
:102BE00083D88BE71831002040980008F897000838
:102BF0002DE9F84F8146202383F31188894CFFF794
:102C000023FCFFF7E9FE256995F82230013385F8AA
:102C10002230FFF7B7FEFFF705FC2368A34204D07C
:102C2000A2699B6892689A424CD3002787F3118867
:102C30004FF02008EB69994500F0988088F31188DF
:102C4000FFF702FCFFF7C8FE2E69A64200F08C8059
:102C500096F82230FF2B00F08380013386F8223073
:102C6000FFF790FEFFF7DEFB2368A34204D0A269C2
:102C70009B6892689A4229D387F3118888F3118858
:102C8000FFF7E2FBFFF7A8FE95F82230002B75D086
:102C9000013B85F822302B6A03F0FF130F2B19D06C
:102CA000FFF770FEFFF7BEFB2368A34204D0A269C2
:102CB0009B6892689A425DD387F311883546002E4F
:102CC000B8D154E072B6584BA362FEE772B6564BC9
:102CD000A362FEE76B692A691A612A695361FFF7EB
:102CE00051FEFFF79FFB2368A34204D0A2699B68B3
:102CF00092689A4246D387F3118895F8213003F001
:102D00000303012B24D0022BD8D1296CED6988F361
:102D10001188FFF799FBFFF75FFEFFF7D9FB99B129
:102D200095B10B682B600D60FFF72CFEFFF77AFB67
:102D30002368A342C0D0A2699B6892689A42BBD222
:102D400072B63A4BA362FEE772B6394BA362FEE756
:102D5000ED690DB16B0719D072B6364BA362FEE771
:102D600072B6354BA362FEE7002679E72E46304661
:102D7000BDE8F88F72B6314BA362FEE772B6304BF6
:102D8000A362FEE772B62D4BA362FEE715E90C00C5
:102D90000733DB0802F10C0A02F1040B504645F838
:102DA000043CFFF78DFE5946A5F10800884205D383
:102DB0004B68013301EBC30398422ED38B450B685C
:102DC00001D0884202D91BB1984201D31946EDE7E0
:102DD00045F8083C086015E90C00013300EBC30E10
:102DE000964508D1DEF804201A4445F8042C50F822
:102DF000333045F8083C4A68531C01EBC303984242
:102E000007D155F8043C013313444B6055F8083C96
:102E10000B605046FFF7F0FD50E772B6054BA3621A
:102E2000FEE700BF183100201C9800080498000835
:102E30007898000884980008EC980008EC9700083F
:102E4000C098000808B50146202383F31188FFF7D6
:102E5000FBFAFFF7C1FD99B10820FFF7A7FBFFF7C9
:102E600091FDFFF7DFFA0B4B1A689A4204D099697B
:102E700092688968914208D3002383F3118808BDC2
:102E800072B6044B044A9A62FEE772B6034A9A622B
:102E9000FEE700BF1831002010980008EC970008EA
:102EA00008B50146202383F31188FFF7CDFAFFF719
:102EB00093FD114DAC69A06A04F128068642616257
:102EC00006D00268A262FFF74FFCA06AB042F8D1B8
:102ED00094F8223043B994F821309B0704D1226939
:102EE00063691A61226953610F20FFF7C3FA72B652
:102EF000024BAB62FEE700BF18310020D0980008FB
:102F00002DE9F041069E90B1E72910D94C070ED16A
:102F1000FF2A0CD85BB10546984617460C46FFF7CA
:102F200067FE48B172B62B4B2B4A9A62FEE772B627
:102F3000284B294A9A62FEE72A19954205D22B4668
:102F4000552103F8011B9A42FBD1202383F31188FA
:102F5000FFF77AFAFFF740FD012000214FF0020C45
:102F60004FF0FF3E00220023603C2C4444F8206CCC
:102F7000E561A4F12406174DE660184E256144F87A
:102F8000046C84F82200164E686944F8248C606151
:102F9000A76084F820C0A66184F82110A163616352
:102FA000E76304F12806046104F12C00E164216563
:102FB0006165C4F848E0C4E91623E0622063A662B4
:102FC00020466C6103F068FEFFF7ECFC2046BDE88C
:102FD000F08100BF183100209C98000849020008C9
:102FE0005C990008FEE700BFF0B50026124F134DB4
:102FF000134C144B144907F1700E9C4211D91A4618
:10300000043951F8040F42F8040B9442F9D8DA431A
:10301000144424F00304043423449D4203D943F8A8
:10302000046B9D42FBD8774504D007F110013AC9E3
:103030001037E2E7F0BD00BF64990008503200206D
:10304000503200205032002090A90008FEE700BF57
:10305000704700BF704700BF90F87630426880F834
:103060007E300649126843F0800310B50446CB64F5
:103070000AB1012190470323237010BD005C00407A
:10308000704700BF90F87430024603F06003202BB5
:1030900001D00020704790F87530212B03D0222BEF
:1030A00009D0202BF5D107200021064BD0661167EF
:1030B000936601207047002301209366D36613674F
:1030C000704700BF500800202DE9F04106460C462D
:1030D00090461D46FFF7FCF90EB1072C04D972B6D5
:1030E0001B4B1C4A9A62FEE70127738907FA04F119
:1030F00089B213EA010223D106EB8400C0680B43B6
:1031000081697381C1F808800D604A60EDB1428A1F
:103110006B1E1344B3FBF2F38B81A30003F18043D6
:1031200003F5B8431A6822F4904222F0700282F448
:10313000405242F4004242F080021A60BDE8F08141
:1031400072B6034B034A9A62FEE78F81E5E700BF40
:10315000183100203C9A00080C3001F085B900BFFE
:103160000C304FF6FF7301F07FB900BF443001F01F
:1031700063B800BF44304FF6FF7301F05DB800BF85
:103180000C3001F02FBA00BF0C304FF6FF7101F088
:1031900029BA00BF443001F015B900BF44304FF6E2
:1031A000FF7201F00FB900BF0C3000F04BBF00BF41
:1031B000303000F047BE00BF0C3000F0EDBF00BF64
:1031C0000C304FF6FF7100F0E7BF00BF303000F069
:1031D000E3BE00BF30304FF6FF7200F0DDBE00BF2F
:1031E0002DE9F04107460D4616469846FFF770F95F
:1031F0000FB1072D04D972B6264B274A9A62FEE713
:1032000001213A89A94089B212EA010E3DD107EBAA
:103210008503DB680A431C8A5869444528BF444635
:103220003A8180E800411D4BC460196D2A0101F10B
:10323000804101F5C04153580A4403F1005303F59E
:10324000405386605B00546064B1601E40080433E4
:1032500003EB800000E0043336F8022B984243F879
:10326000042CF8D1AA0002F1804202F5B84213689A
:1032700023F4F04323F0400383F0300343F400438E
:1032800043F080031360BDE8F08172B6014B024A3F
:103290009A62FEE718310020509A0008005C004056
:1032A00010B590F864300446152B54D8DFE803F0CD
:1032B0004E53535353532F53534E4E4E5353535316
:1032C00053535353230B0B22202380F8642083F3A2
:1032D0001188FFF7B3F8FFF70DFB002320461A46CD
:1032E0001946FFF77DFFFFF7F3FAFFF795F8002384
:1032F00083F3118810BDC3689B695B68002B2FD1D5
:10330000036F03B19847002384F8643010BD48F27E
:103310008000144962680B68126823F4F04323F0BC
:10332000400383F0100303430B600B6823F49043C6
:1033300023F0700383F4805303430B6012B1062122
:1033400020469047062384F8643010BD72B6064BC1
:10335000064A9A62FEE772B6034B044A9A62FEE797
:1033600010BD00BF005C004018310020709A0008BA
:1033700038B590F864300446152B59D8DFE803F0CF
:103380005358585858583458580B1C5D585858586A
:1033900058585858535390F87B1090F87A20C36EC1
:1033A00042EA01229A4207D9C268128AB3FBF2F5B7
:1033B00002FB1535002D47D01422202384F8642009
:1033C00083F31188FFF73AF8FFF794FA00232046B9
:1033D0001A461946FFF778FEFFF77AFAFFF71CF84E
:1033E000002383F3118838BD48F2800022496268C7
:1033F0000B68126823F4F04323F0400383F01003BA
:1034000003430B600B6823F4904323F0700383F4B1
:10341000805303430B6012B10621204690470623D8
:1034200084F8643038BD72B6144B154A9A62FEE7D0
:1034300072B6124B124A9A62FEE7036F03B19847C5
:10344000002384F8643038BD202383F31188FEF70D
:10345000F5FFFFF74FFA2B462A4629462046FFF78D
:10346000BFFEFFF735FAFEF7D7FF85F311880A2371
:1034700084F8643038BD00BF005C00401831002083
:10348000649A000870B590F86430044613B10023C4
:1034900080F86430BD4B04F174021B6D03F180436E
:1034A00003F5C04303EB01139B6803F1005303F5DD
:1034B00040535B0003F1100053F8041B834222F8D1
:1034C000021BF9D163689B6863B32046984748B3F1
:1034D000E26E94F8743094F87B0094F87A1041EA24
:1034E000002191422CBF1146E1661A0600F1978037
:1034F000002966D10B22202384F8642083F31188ED
:10350000FEF79CFFFFF7F6F9002320461A4600213C
:10351000FFF766FEFFF7DCF9FEF77EFF002383F37B
:10352000118870BD94F8743013F0600518461ED0F1
:1035300048F28000954963680A681D6822F4F042E9
:1035400022F0400282F0100202430A600B6823F46A
:10355000904323F0700383F4805303430B6015B151
:1035600006212046A847062384F8643070BD40F247
:10357000023194F8756003F07F0242EA06228A4223
:1035800000F0248135D8022A00F00A8140F2C78079
:10359000B2F5817F00F0CC80B2F5407F00F08580ED
:1035A000B2F5807FC4D194F87630012BC0D1B4F845
:1035B0007C30A56623F00203E5662567A4F87C301D
:1035C00047E01522202384F8642083F31188FEF756
:1035D00035FFFFF78FF92046E36EA26E0021FFF75B
:1035E00073FDFFF775F9FEF717FF002383F31188CA
:1035F00070BD40F201618A4220D9B2F5106F39D016
:1036000040F602418A4200F0B980B2F5006F8FD1D6
:10361000012204F17F012567E266A1665BE7D9B16B
:103620000922202384F8642083F31188FEF706FF23
:10363000FFF760F9E36EA26E204668E7B2F5C06F4F
:1036400042D2B2F5A06F7FF473AF514BA566E56629
:10365000236703067FF54EAF1422202384F86420ED
:1036600083F31188FEF7EAFEFFF744F900232046B2
:103670001A46B3E794F8763094F87F209A420FD038
:103680002278042A39D04BB10421626884F87F3053
:103690002170136813B102212046984794F87400F2
:1036A0000023A366E3662367D3E794F87630012B03
:1036B0007FF43EAFB4F87C30A56643F00203E566C4
:1036C0002567A4F87C30C4E794F87910626894F810
:1036D0007830566843EA012394F8762094F87710FE
:1036E0002046B04700283FF423AF90E80C00256740
:1036F000A366E26694F87430EDE6202383F3118824
:10370000FEF79CFEFFF7F6F8FEF7E2FE2378042BA7
:1037100000F0A58072B61F4B1F4A9A62FEE752BBAB
:10372000022104F17C002267E1660A46A066D2E627
:1037300094F87630002B7FF4FBAE94F8782012F0EA
:103740000F03ADD09B0003F1804303F5B84312F0A3
:10375000800F1A6871D102F44052B2F5405F9FD0D9
:103760001A6822F4F04222F0400242F4204242F071
:1037700080021A6094E7012A7FF4DAAE0222002068
:103780000649E2662067A166A5E600BF005C00402E
:1037900059300008183100200C9A0008849A00085B
:1037A00094F87810484811F0800F01F00F0150F89C
:1037B00021102BD111F440513FF4BAAEB1F5805F26
:1037C0002AD14249E2662567A16684E694F87630FC
:1037D000002B7FF4ADAE94F8782012F00F033FF485
:1037E0005FAF9B0003F1804303F5B84312F0800FF5
:1037F0001A6816D122F4904222F0700282F48052AC
:1038000042F4004242F080021A6049E711F03001B0
:103810003FF48EAE1029D4D02D49E2662567A1660B
:1038200059E622F4F04222F0400282F0100242F403
:10383000004242F080021A6032E702F03002302A81
:103840003FF42EAF1A6822F4F04222F0400282F0D8
:10385000200242F4004242F080021A6020E72289EE
:10386000638902F0010203F001032281638104F104
:103870002C0204F1100343F8045B9A42FBD140236D
:10388000012248F28000C4F88430930003F18043A1
:1038900003F5B843196801320143082A196018601A
:1038A000F3D1FFF715F8FEF7B7FD002383F3118876
:1038B0000321626884F87F30217013680BB12046C1
:1038C000984794F87630DEE6005C0040809A000865
:1038D0007C9A0008F0B500EB81039C6A83B02CB39E
:1038E0000E460546202383F31188FEF7A7FD05EB5E
:1038F0008607FEF7FFFF201D0821FEF75DFFFB682E
:103900005B691B68A3B94434204601A900F0F4F9AF
:10391000024648B331462846019BFFF761FCFEF79B
:10392000D7FFFEF779FD002383F3118803B0F0BDC4
:10393000FEF7CEFDA36D626D9A4225D0206E226DFA
:10394000E16D034401328B422265A36501D3A36E6E
:10395000A3654434204603F0E3F9204601A900F0B2
:10396000CBF902460028D5D1FB685A691268002AB3
:10397000D5D01B8A013B1340D1D1314605F17402E9
:103980002846FFF72DFCCAE7226D002AD6D072B672
:10399000014B024A9A62FEE718310020249A00087F
:1039A00010B5446B82B0D4F88C24136819780429BC
:1039B00001D002B010BD217A0229FAD1012110797B
:1039C0001A8901FA00F31342F3D101A904F144006A
:1039D00000F092F90028ECD0D4F88C340246197922
:1039E0001868019BFFF7FCFBE3E700BFF8B505464D
:1039F0000F461646FEF76CFD8DB186B12B78042B71
:103A000004D072B6124B134A9A62FEE705EB8702A6
:103A1000D4684CB172B60E4B0E4A9A62FEE772B68B
:103A20000B4B0C4A9A62FEE77369D6601BB11C60AF
:103A30005C609C60DC60B36923B100221A605A604C
:103A40009A60DA6039462846BDE8F84001F086BA47
:103A500018310020F8990008F8B5D0F88C64376860
:103A60003B78042B01D00120F8BD037A022BFAD158
:103A7000012533797A8905FA03F31342F3D1044619
:103A8000FEF726FDE269236A9A4209D00432EAD0A1
:103A9000384671794FF48073FFF716FB0020F8BDAC
:103AA000A369002BDFD1F1E7113138B550F821407F
:103AB000FCB1202383F31188FEF7C0FCFEF71AFF48
:103AC000201D0421FEF778FED4F88C241368527967
:103AD00003EB8203DB689B695D68FEF7F9FC1DB1AF
:103AE000A36A043B9D4205D972B6164B164A9A62E8
:103AF000FEE738BDE369226A93421AD01D60A06ACE
:103B0000A269616A034401328B42A261E36101D37D
:103B1000236BE36104F10C0003F002F92046FFF788
:103B20009BFFFEF7D5FEFEF777FC002383F3118899
:103B300038BDA269002AE1D072B6024B024A9A62ED
:103B4000FEE700BF18310020E4990008406BFFF742
:103B500083BF00BF80B400AFEFF30983203383F34A
:103B60000988002383F31188BD4680BC704700BFDD
:103B700070B50D460446FEF76DFC1DB1E369043BCC
:103B80009D4204D972B6114B114A9A62FEE7E3686E
:103B9000ABB12369A1691D60E268E069013AE260A6
:103BA000002203448B42236128BF636AA26228BFBC
:103BB0002361236B43B12046BDE87040184772B6BD
:103BC000024B034A9A62FEE770BD00BF1831002025
:103BD000709B000838B504460D46FEF73BFC07E035
:103BE000237A93B929462046FEF7AAFD00280EDB6A
:103BF000E368002BF4D0E36853B12369E1691A1D2F
:103C00000B44A262E362002038BD6FF0010038BDB2
:103C100072B6024B024A9A62FEE700BF18310020DA
:103C2000549B000810B50446FEF714FCE368A3B1EA
:103C3000E2686369013AE2600022E069A169034435
:103C40008B42636128BF636AA26228BF6361236BF2
:103C500043B12046BDE81040184772B6024B034AF4
:103C60009A62FEE710BD00BF183100202C9B0008AF
:103C700038B504460D46FEF7EDFB07E0237A93B90D
:103C800029462046FEF75CFD00280EDBE368002B8A
:103C9000F4D0E36853B1636900201A6804331A440E
:103CA000E262A36238BD6FF0010038BD72B6024B0C
:103CB000024A9A62FEE700BF18310020109B0008FC
:103CC00010B10C30FEF798BE72B6024B024A9A62EF
:103CD000FEE700BF183100208496000810B10C30B8
:103CE000FEF7EEBE72B6024B024A9A62FEE700BFD2
:103CF000183100207496000838B504460D46FEF7CA
:103D0000E7FB60692269824203D050F8043B2B60D4
:103D100038BDE268002AF8D0002038BD4FF080435B
:103D2000DA68920701D55863704772B6014B024AB0
:103D30009A62FEE718310020E49A0008202383F3FA
:103D40001188114B5B6813F4006302D183F311886F
:103D5000704780B400AFEFF309834FF08071A3F197
:103D6000200243F8041C82F30988084A116892690A
:103D70008968926891428CBF054A064A43F8082C2C
:103D8000BD4680BC704700BF00ED00E01831002048
:103D90006102000874020008F8B504460E46174692
:103DA000FEF758FB9CB196B104F1200509E0FEF73F
:103DB0008FFB2369002B10DC39462846FEF7C0FC38
:103DC00050B9237D002BF2D06FF00100F8BD72B620
:103DD0000D4B0E4A9A62FEE7F8BDE3686268196807
:103DE00004339342E36028BF2368316028BFE36057
:103DF000236904F11800013B236102F091FFFEF7F3
:103E0000C1FB0020F8BD00BF18310020D89A00087F
:103E100008B5FEF7B7FDFEF705FB084B1A689A4296
:103E200004D0996992688968914203D3002383F38F
:103E3000118808BD72B6024A9A62FEE71831002066
:103E4000A09A0008002A00F081802DE9F04F9846E2
:103E500083B004468A469146D0F81CB0202383F3F1
:103E60001188FEF7F1FAFEF7B7FD4FF08043002707
:103E70005E6A08F1FF35ABB24644414DB6B20193DC
:103E8000A268002A33D06169A268481C013A6061C7
:103E9000A2609AF800200A7022696169914224BFE9
:103EA000E2686261BBF1000F01D02046D847FEF7FF
:103EB00069FDFEF7B7FA2A68AA4204D0A969926898
:103EC000896891423ED3002383F31188B9F1010937
:103ED00007F101072BD00AF1010A202282F3118891
:103EE000FEF7B2FAFEF778FDA268002ACBD14FF6B2
:103EF000FD72019B93421ED84FF08042516A711AA5
:103F000089B2884527D32046FEF71AFC0028B7D08F
:103F1000FEF738FDFEF786FA2A68AA4204D0A9699E
:103F200092688968914226D3002383F3118838462A
:103F300003B0BDE8F08F41462046FEF701FC0028A3
:103F40009ED0E5E772B60F4AAA62FEE772B60C4B46
:103F50000D4A9A62FEE7FEF715FDFEF763FA2A683E
:103F6000AA42E1D0A969926889689142DCD272B60E
:103F7000044AAA62FEE772B6024AAA62FEE700BFDE
:103F800018310020949A0008009B000830304FF64A
:103F9000FF73FFF757BF00BFF8B504460F4616463C
:103FA000202383F31188FEF74FFAFEF715FD05E095
:103FB00031462046FEF7C4FB051E25DBA368002B17
:103FC000F6D06269A368511C013B6161A360177060
:103FD000236962699A4224BFE3686361E3690BB1B4
:103FE00020469847FEF7CEFCFEF71CFA134B1A68E2
:103FF0009A4204D099699268896891421AD300253F
:1040000085F311882846F8BDFEF7BCFCFEF70AFAD6
:104010000A4B1A689A4204D0996992688968914259
:1040200004D3002383F311882846F8BD72B6044AEE
:104030009A62FEE772B6024A9A62FEE718310020E1
:10404000949A0008002A00F081802DE9F04F9846EC
:1040500083B004468A469146D0F81CB0202383F3EF
:104060001188FEF7F1F9FEF7B7FC4FF08043002707
:104070005E6A08F1FF35ABB24644414DB6B20193DA
:10408000A268002A33D0A169A268481C013AA06145
:10409000A2600A788AF800202269A169914224BFAF
:1040A000E268A261BBF1000F01D02046D847FEF7BD
:1040B00069FCFEF7B7F92A68AA4204D0A969926898
:1040C000896891423ED3002383F31188B9F1010935
:1040D00007F101072BD00AF1010A202282F311888F
:1040E000FEF7B2F9FEF778FCA268002ACBD14FF6B2
:1040F000FD72019B93421ED84FF08042516A711AA3
:1041000089B2884527D32046FEF71AFB0028B7D08E
:10411000FEF738FCFEF786F92A68AA4204D0A9699E
:1041200092688968914226D3002383F31188384628
:1041300003B0BDE8F08F41462046FEF701FB0028A2
:104140009ED0E5E772B60F4AAA62FEE772B60C4B44
:104150000D4A9A62FEE7FEF715FCFEF763F92A683E
:10416000AA42E1D0A969926889689142DCD272B60C
:10417000044AAA62FEE772B6024AAA62FEE700BFDC
:1041800018310020949A0008F09A00080C304FF67D
:10419000FF73FFF757BF00BF70B5202304460E46DC
:1041A00083F31188FEF750F9FEF716FC05E031465F
:1041B0002046FEF7C5FA051E25DBA368002BF6D0C6
:1041C000A169A36820694A1C013B8242A36028BF01
:1041D000E368A2610D7828BFA361E3690BB12046B3
:1041E0009847FEF7CFFBFEF71DF9114B1A689A426C
:1041F00004D0996992688968914215D3002383F3AA
:104200001188284670BDFEF7BDFBFEF70BF9084B81
:104210001A689A42F2D09969926889689142EDD2FF
:1042200072B6044A9A62FEE772B6024A9A62FEE7E2
:1042300018310020949A0008002A00F085802DE9AA
:10424000F04F994683B006460C469246202383F3EE
:104250001188FEF7F9F8FEF7BFFB4FF08043D3F863
:10426000248009F1FF32B06AC84493B20027DFF816
:104270004CB11FFA88F8019300284DD0F36AAAEBDD
:1042800007051B1A9D4228BF1D46402D16D903461F
:1042900004F14002D4F800E06568A068E1681034D9
:1042A0009442C3F800E05D609860D96003F11003A8
:1042B000F0D1B36A40374033B36208E021462A4662
:1042C000FCF78AFCB36A2F442B442C44B362F26A95
:1042D0009A4204D8F16930460439FFF749FCFEF7E9
:1042E00051FBFEF79FF8DBF800305B4505D0DBF8AB
:1042F00018209B6892689A4221D3002383F3118887
:10430000574537D2202383F31188FEF79DF8FEF737
:1043100063FBB06A0028B1D14FF6FD72019B934256
:104320002CD84FF08043596AA8EB010189B2894526
:1043300029D33046FFF74EFC58B9B06A9EE772B6F3
:104340001D4ACBF82820FEE772B61C4B1C4A9A6225
:10435000FEE7FEF717FBFEF765F8DBF800205A458D
:1043600005D0DBF818109268896891421ED30023AB
:1043700083F31188384603B0BDE8F08F49463046D4
:10438000FFF728FCD8E7FEF7FDFAFEF74BF8DBF85D
:1043900000205A45EBD0DBF81810926889689142EA
:1043A000E5D272B6044ACBF82820FEE772B6024A7C
:1043B000CBF82820FEE700BFAC9A00081831002097
:1043C000849B000870B5202304460E46154683F3EF
:1043D0001188FEF739F8FEF7FFFAA36A0BB31E70D7
:1043E000A36AE26A01339342A36204D3E1692046DF
:1043F0000439FFF7BDFBFEF7C5FAFEF713F8184BBB
:104400001A689A4204D0996992688968914204D3E3
:10441000002585F31188284670BD72B6114A9A624C
:10442000FEE729462046FFF7D5FB054608B9A36AF3
:10443000D5E7FEF7A7FAFDF7F5FF094B1A689A4290
:1044400004D0996992688968914204D3002383F368
:104450001188284670BD72B6024A9A62FEE700BF14
:1044600018310020AC9A0008002A00F084802DE961
:10447000F04F984683B005460F469146202383F3BC
:104480001188FDF7E1FFFEF7A7FA4FF080435A6A63
:10449000A96A08F1FF33424492B29BB200264FF65C
:1044A000FD7A4D4C0092019300294FD0EB6AA9EBA5
:1044B000060B5B1A9B4528BF9B46BBF1400F1BD9DF
:1044C0003A460B464031D3F800B0D3F804C0D3F8D5
:1044D00008E0D86810338B42C2F800B0C2F804C0BC
:1044E000C2F808E0D06002F11002ECD1AB6A4037AC
:1044F00040334036AB6208E038465A46FCF76CFB66
:10450000AB6A5E445B445F44AB62EA6A9A4202D89B
:104510002846FFF787FBFEF735FAFDF783FF236890
:10452000A34204D0A2699B6892689A421FD30023D9
:1045300083F311884E4532D2202383F31188FDF78F
:1045400083FFFEF749FAA96A0029AFD1019B5345C1
:1045500029D84FF08043596A009B591A89B288457F
:1045600026D32846FFF784FB50B9A96A9EE772B6A6
:104570001A4BA362FEE772B6174B194A9A62FEE71E
:10458000FEF700FAFDF74EFF2368A34204D0A269AC
:104590009B6892689A421BD3002383F311883046AC
:1045A00003B0BDE8F08F41462846FFF761FBDBE72B
:1045B000FEF7E8F9FDF736FF2368A342ECD0A269C5
:1045C0009B6892689A42E7D272B6044BA362FEE7F8
:1045D00072B6024BA362FEE718310020AC9A0008C5
:1045E000449B000838B504460D46202383F3118808
:1045F000FDF72AFFFEF7F0F9A36AF3B113F8015BA8
:10460000E26AA362934202D32046FFF70BFBFEF758
:10461000B9F9FDF707FF154B1A689A4204D099695A
:1046200092688968914204D3002383F31188284655
:1046300038BD72B60E4A9A62FEE729462046FFF759
:1046400017FB054608B9A36AD8E7FEF79BF9FDF703
:10465000E9FE064B1A689A42E6D099699268896821
:104660009142E1D272B6024A9A62FEE71831002006
:10467000AC9A0008F8B504460E461546202383F38D
:104680001188FDF7E1FEFEF7A7F9FDF721FF1EB146
:10469000701E16EA000104D072B6174B174A9A62D0
:1046A000FEE7174F7642D7F800E023180EEB05021D
:1046B00002443340324078681344834204D89E4514
:1046C00002D83B60144600E00C46FEF75BF9FDF7AC
:1046D000A9FE094B1A689A4204D0996992688968C0
:1046E000914204D3002383F311882046F8BD72B6AB
:1046F000044A9A62FEE700BF18310020B89A000809
:10470000281D0020889A0008024AD36843F08003DD
:10471000D3607047003801400B0712D40E23026BA0
:1047200030B4546815682168406B21F00F01216096
:10473000127C93406B60436830BC43F40073436069
:10474000704772B6014B024A9A62FEE718310020A8
:10475000009C000808B5FDF70FFEFEF7A3F8002146
:104760000B4B1878DA680428116107D10220187001
:1047700011601161D16821F0FF01D1605B680448CC
:104780005B689847FEF778F8BDE80840FFF7D6BAAF
:104790009810002010B5FDF7EFFDFEF783F80B4BE6
:1047A0000B4A19681268090E01F00E01114206D079
:1047B00008480A06046B5A600CB1406BA047FEF72C
:1047C0005BF8BDE81040FFF7B9BA00BF0000024037
:1047D00080000240DC30002010B5FDF7CDFDFEF773
:1047E00061F80B4B0B4A19681268090D01F00E01B4
:1047F000114206D008480A05846A5A600CB1C06AA2
:10480000A047FEF739F8BDE81040FFF797BA00BFA0
:10481000000002406C000240DC30002010B5FDF7C3
:10482000ABFDFEF73FF80B4B0B4A19681268090CF9
:1048300001F00E01114206D008480A04046A5A60C9
:104840000CB1406AA047FEF717F8BDE81040FFF72B
:1048500075BA00BF0000024058000240DC30002062
:1048600010B5FDF789FDFEF71DF80B4B0B4A1968D3
:104870001268090B01F00E01114206D008480A0324
:1048800084695A600CB1C069A047FDF7F5FFBDE827
:104890001040FFF753BA00BF00000240440002403E
:1048A000DC30002010B5FDF767FDFDF7FBFF0B4B7B
:1048B0000B4A19681268090A01F00E01114206D06C
:1048C00008480A0204695A600CB14069A047FDF724
:1048D000D3FFBDE81040FFF731BA00BF000002402F
:1048E00030000240DC30002010B5FDF745FDFDF73B
:1048F000D9FF0B4B0B4A19681268090901F00E0128
:10490000114206D008480A0184685A600CB1C06898
:10491000A047FDF7B1FFBDE81040FFF70FBA00BF99
:10492000000002401C000240DC30002008B5FDF70A
:1049300023FDFDF7B7FF0A4B0A4A1968126801F018
:104940000E01114205D0084A596013680BB1506836
:104950009847FDF791FFBDE80840FFF7EFB900BFAA
:104960000000024008000240DC3000202DE9F04742
:104970007D4DFDF701FDFDF795FFD5F85462D6F8A2
:104980000C903368DA059CB200F19780202383F302
:104990001188FDF753FDFDF7ADFF14F02F0F4AD03E
:1049A000724F07F1080808E0A006D6F804A01ED44C
:1049B0003468A4B214F02F0F3DD02307F4D014F0C4
:1049C000080F0CBF00218021E00748BF41F0200103
:1049D000A20748BF41F04001630748BF41F480711E
:1049E0003846FDF7E9FEA006D6F804A0E0D5FDF7AD
:1049F0006FFD6B6995F85842002B33D0FDF768FDC9
:104A00002B6A6A6A934237D06A69591C013204EAF8
:104A10000A0A6A61296283F800A02A6AEB699A424D
:104A200001D3AB692B62404602F07AF93468A4B234
:104A300014F02F0FC1D1FDF74BFFFDF7EDFC002364
:104A400083F3118819F0800F01D022064CD419F09D
:104A5000400F01D0630618D4FDF70EFFBDE8F04704
:104A6000FFF76CB904213846FDF7A6FEFDF730FDCF
:104A70002B6A6A6A9342C7D16A69002AC4D04FF48C
:104A800080613846FDF798FE92E7202383F3118872
:104A9000FDF7D4FCFDF72EFF6A6CAB6C9A4247D051
:104AA000FDF716FFFDF7B8FC002383F31188FDF72F
:104AB000E3FEBDE8F047FFF741B9202383F31188F7
:104AC000FDF7BCFCFDF716FF281D4FF40071FDF744
:104AD00073FE6FF480733360FDF7FAFEFDF79CFC04
:104AE000002383F3118851E7202383F31188FDF716
:104AF000A5FCFDF7FFFEFDF7EBFCAB6C6A6C9A4280
:104B000023D0AA6B286C591C0132AA63A964814284
:104B10001F7801D3EB6BAB64154802F001F97760A5
:104B2000FDF7D6FEFDF778FC002383F311888EE7AE
:104B3000AB6B002BB4D010210C48FDF73DFE4FF6B7
:104B4000BF7309EA0303F360AAE7AA6B002AD8D06F
:104B500008210648FDF730FE4FF63F7309EA0303CC
:104B600043F04003F360DBE7A8100020AC10002006
:104B7000D81000202DE9F0474FF08046FDF7FCFBF0
:104B8000FDF790FE33699B0705D4FDF775FEBDE880
:104B9000F047FFF7D3B800274FF02008376188F3BC
:104BA0001188314DFDF74AFCFDF7A4FEFDF790FC9E
:104BB000FDF78EFC736AE98CEC699BB2581A228966
:104BC00080B2904238BF05F11C0627D3B94637465C
:104BD00005F11C0623680A44B342EA84D4F80CA009
:104BE0005E60EB61C4F80C9008BFC7F80C90FDF74D
:104BF0006FFEFDF711FC89F311882069D04788F317
:104C00001188FDF71BFCFDF775FE7B6AE98CEC69EA
:104C10009BB2581A228980B28242DBD9B44216D0A4
:104C20000A44D21A92B2022A2CBF9C189C1CA0B231
:104C3000FFF774F84FF080435A6AE98C92B2631A16
:104C4000521A9A4203DD72B6084BAB62FEE7FDF7DB
:104C50003FFEFDF7E1FB002383F31188FDF70CFE17
:104C6000BDE8F047FFF76AB818310020949B0008B0
:104C7000F8B53A4C636B5D69FDF77EFBFDF712FEFC
:104C800005F45F42D2430E23266B616B77684A615D
:104C90003868E26A20F00F003860307C376803FA29
:104CA00000F0566878603068176820F00F003060B8
:104CB000107CAAB283407B6012F480731BBF01207A
:104CC0000346A360A060960544BF43F00203A360BF
:104CD00050050AD5486843F0040320F4007048608A
:104CE000086840F400700860A360170544BF43F0F3
:104CF0000803A360560444BF43F02003A360D0041C
:104D00001DD543F010032904A36022D4202383F38C
:104D10001188FDF793FBFDF7EDFD6FF001011048E1
:104D2000FDF790FDFDF7D4FDFDF776FB002383F33F
:104D30001188FDF7A1FDBDE8F840FEF7FFBF2A048A
:104D400007D4002BE2D1FDF797FDBDE8F840FEF750
:104D5000F5BF43F04003A360D8E700BFA4300020B4
:104D6000C0300020F8B5424DFDF706FBFDF79AFD77
:104D70006C6B404AA369666946EA034323F07F43AC
:104D8000934250D020D8073A934240D00132934208
:104D900010D16268EB6A22F400725B6862601A6884
:104DA00042F001021A60626842F4805262605B68FD
:104DB000012B58D916F00A0F18BFA369FDF75CFD47
:104DC000BDE8F840FEF7BABF2B4A934214D0023236
:104DD0009342EFD1EB6A5B685F684FB32A8C23681C
:104DE00042F0010243F4A0632A842360FDF744FDEE
:104DF000BDE8F840FEF7A2BF63682A6B23F4007396
:104E000052686360136843F001031360D2E72B8C90
:104E10001A0A0BD003F0010343F0F00302F006027C
:104E200013432361C6E72B8CC3F347032361C1E718
:104E30006368202223F400736360236843F40073E3
:104E4000236082F31188FDF7F9FAFDF753FD394627
:104E500005F11C00FDF7F6FCFDF73AFDFDF7DCFA65
:104E600087F31188A6E7236823F480632360A1E712
:104E7000A43000200800030082000700F8B511F0FC
:104E800008052BD10E22C16A436B4E680446306878
:104E90000F6820F00F003060087C202182407A608B
:104EA0005A6822F480525A601A6822F480621A60AA
:104EB0001A6842F400721A6081F31188FDF7BEFA95
:104EC000FDF718FD294604F11C00FDF7BBFCFDF7BA
:104ED000FFFCFDF7A1FA85F31188F8BD72B6024B0D
:104EE000024A9A62FEE700BF18310020009C0008C9
:104EF000174B19461A6842F001021A600B689A07AC
:104F0000FCD500200B68124A03F0F9030B604860DF
:104F1000536813F00C0FFBD153680D4943F4201371
:104F20005360136843F0807313600B689B01FCD5DA
:104F30001122084B084848601A604B68044A43F045
:104F400002034B60536803F00C03082BFAD170473F
:104F500000100240002002400064680000EB810362
:104F6000F0B5DE68336803F00303022B74D0032B23
:104F70006FD0012B54D04FF40072384C7369246DFC
:104F80000F0104F1804404F5C0443D199BB14FF07A
:104F9000000E338AC5F804E0D0F884E0013323F032
:104FA00001037344B3F5007FC0F884303DD847F85F
:104FB00004E042F02002B369D3B1748A3E2C3ED99A
:104FC000661E46F01F060136254B761143EA8623FE
:104FD0009BB2EB60631CD0F8844023F001032344B0
:104FE000B3F5007FC0F8843024D8AC6042F400529E
:104FF00048F2800047F6700542EA010323F4784343
:10500000890023F0F00301F1804101F5B841034329
:105010000B600C6802EA0503634003430B60F0BDBC
:1050200072B6104B104A9A62FEE772B60D4B0F4AE9
:105030009A62FEE772B60B4B0C4A9A62FEE7631E59
:1050400043F00103013303EBD3735B0203F47C43AE
:10505000BFE74FF4C06290E700228EE7005C00409B
:105060000080FFFF18310020B09B0008A09B0008C3
:1050700000214368F0B4DB6880278B420CBF4FF4FB
:105080001C464FF41E464025054B064C19655964D5
:10509000DF641E64C0F88450C460F0BCFFF75EBFDC
:1050A000005C0040DC9B00082DE9F04F85B0FDF767
:1050B00063F9FDF7F7FBC84B5D6C6F0500F14C81A0
:1050C0002E0500F12E81EC0408D5C34B9A6C100418
:1050D00040F16D816FF48052BF4B5A64A9050BD526
:1050E000DFF8F8B2DBF80430DB680BB158469847BC
:1050F0006FF40072B84B5A642A0440F1DF80DFF885
:10510000DCB2DFF8D4A205F00F05AC0004F1804456
:1051100004F5B844D4F80080AE1C0BEB860318F0FD
:10512000800F5F684CD0D7F814E02268DEF80430B6
:10513000DEF80C1022F47842DEF8000022F0F002D3
:105140000B4442F400422260CEF80430C31A00F04F
:10515000CE80388A4FEA051C984228BF1846CEF800
:105160000C00DAF85030DEF8082003F1804909F528
:10517000C0495CF809300A4403F10053CC4403F5FC
:105180004053CEF808205B00CCF8040060B1013831
:105190004008043303EB800000E0043332F8021BC4
:1051A000984243F8041CF8D1236823F4F04323F019
:1051B000400383F0300343F4004343F08003236053
:1051C00018F4004F75D0236818F4006F23F4784367
:1051D00023F0F00343F08003236040F09880DAF876
:1051E0005030D7F8188003F1804303F5C04303EB38
:1051F00005139A68DB6802F1005CC3F309090193A7
:10520000D8F808300CF5405CB9F1010F4FEA4C0CAE
:10521000009340F284806246A9F1020103910CF1EF
:10522000040E490802910EEB810E023352F8041B62
:105230000233080A964503F8041C03F8030CF5D161
:10524000039B009923F001030233029A1944019B46
:10525000013200910CEB820C03F001031BB1DCF86E
:105260000030009A1370B8F80C007F8AD8F8083024
:10527000D8F80410D8F80020013880B24B444944D3
:10528000A2EB09024F45A8F80C00C8F80830C8F88E
:105290000410C8F8002018D8B8B1236823F490434C
:1052A00023F0700383F4405343F4004343F080033E
:1052B0002360DAF844502B043FF525AFFDF7DCFA04
:1052C00005B0BDE8F04FFEF739BD01220BEB8606B5
:1052D0007168BBF80A30AA40CC6823EA0203ABF835
:1052E0000A30002CE5D029463C48A047E1E70121DF
:1052F000BBF80830A940BA6823EA0103ABF80830CC
:10530000002A3FF45DAF29463448904758E70BEB3D
:105310008606736829465B6830489847C9E74B465C
:105320009CE76FF4006405202B4BDFF8B0B01A6CDB
:10533000DBF8041042F008021A645C649BF8003049
:105340008BF800008BF880300B68002B3FF4BBAE6D
:10535000584604219847B6E600216FF48064022085
:10536000DFF878B05C640A46ABF87C108BF87E10EE
:105370008BF87F10ABF80810ABF80A100BF10C0398
:105380008BF800000BF12C0143F8042B8B42FBD16E
:1053900012488BF86420FFF76BFEDBF804301B68C3
:1053A000002B3FF48DAE00210C48984788E61A6C1C
:1053B000DFF828B022F008021A649BF88020DBF89E
:1053C00004308BF800201B68002B3FF483AE584656
:1053D000052198477EE600BF005C0040941700203E
:1053E000032AF0B52CD0042A08BF41610025082704
:1053F0002E462B462C46DFF84CE01EF8022011F01A
:10540000800F4FEA03134FEA05154FEA04144FEAE1
:1054100006160CBF43F00F03154311F4004F0CBFE9
:1054200044F00F041643013F4FEA4101E7D14268BF
:10543000144034434460026813402B430360F0BDC2
:105440000161D3E7C89B0008704700BF704700BFE9
:10545000F8B545A3D3E9002304460D46FBF736FB18
:10546000002850D142A3D3E9002320462946FBF768
:105470002DFB40BB40A3D3E9002320462946FBF780
:1054800025FB00284ED13EA3D3E900232046294620
:10549000FBF7AAF822462B46FBF7A6F83AA3D3E976
:1054A000002306460F4620462946FBF79DF8024694
:1054B0000B4630463946FAF7E3FE35A3D3E900231D
:1054C000FAF7E0FEF8BD34A3D3E9002320462946CD
:1054D000FBF78AF822462B46FBF786F830A3D3E980
:1054E000002306460F4620462946FBF77DF8024674
:1054F0000B4630463946FAF7C3FE2BA3D3E9002307
:10550000FAF7C0FEF8BD00222F4B20462946FBF7D4
:105510006BF822462B46FBF767F800222B4BFBF774
:1055200063F8F8BD22A3D3E9002320462946FBF700
:105530005BF822462B46FBF757F81FA3D3E900235D
:1055400006460F4620462946FBF74EF802460B4614
:1055500030463946FAF794FE19A3D3E90023FAF747
:1055600091FEF8BDAFF3008046175D74D145D73F7B
:1055700046175D74D145E73FCDCCCCCCCCCCEC3FCD
:105580009A9999999999254085EB51B81E8534408F
:10559000713D0AD7A370254066666666662622407E
:1055A000CDCCCCCCCCCC23403333333333330B4052
:1055B000A7F48FED09222840A4A76A50ADA233407A
:1055C00044EFCDA4CECB214000405E400000B03F70
:1055D00038B50022184B04460D46FBF777FA2246F1
:1055E0002B4690B920462946FAF74CFE0022134B71
:1055F000FAF746FEFFF72CFF00220F4BFAF7F4FFF5
:1056000000220D4BFAF73EFE38BD20462946FAF738
:1056100039FE02460B4600200849FAF731FEFFF733
:1056200017FF02460B4600200449FAF729FE002224
:10563000014BFAF7D9FF38BD0000E03F0000F03F12
:1056400008B502460B4600200549FAF719FEFFF798
:10565000FFFE02460B4600200149FAF711FE08BD85
:105660000000F03F38B500221B4B04460D46FBF707
:105670002DFAF0B9204629460022184BFAF700FE11
:1056800004460D460022164BFAF7AEFF22462B4683
:10569000FAF7AAFF22462B46FAF7A6FF22462B4628
:1056A000FAF7A2FF02460B4600200C49FAF7E8FD84
:1056B00038BD00220A4B20462946FAF795FF2246BC
:1056C0002B46FAF791FF22462B46FAF78DFF22462A
:1056D0002B46FAF789FF38BD0000E03F0000F03F9D
:1056E00000002040F8B50022104B06460F46FAF79E
:1056F000C7FD04460D4602460B46FAF775FF2246E3
:105700002B46FAF771FF324604460D463B46002011
:105710000649FAF7B5FD02460B4620462946FAF738
:1057200063FF0022014BFAF7ADFDF8BD0000F03F2A
:1057300038B504460D4602460B46FAF755FF224699
:105740002B46FAF751FF22462B46FAF74DFF38BD9C
:1057500038B50022194B04460D46FBF7B7F9E8B9F6
:1057600022462B4620462946FAF78CFD00224FF0B0
:105770008043FAF785FD04460D4600220F4BFAF7E9
:1057800033FF22462B46FAF72FFF22462B46FAF725
:105790002BFF00220A4BFAF775FD38BD0022094B9A
:1057A00020462946FAF720FF22462B46FAF71CFF2F
:1057B00022462B46FAF718FF38BD00BF0000E03F35
:1057C0000000F03F0000104038B50022084BFAF707
:1057D00057FD04460D4602460B46FAF705FF2246E2
:1057E0002B46FAF701FF0022014BFAF74BFD38BDBB
:1057F0000000F03F38B504460D4602460B46FAF766
:10580000F3FE22462B46FAF7EFFE38BDF8B500222C
:10581000174B04460D46FBF759F9E8B900224FF043
:10582000404320462946FAF7DFFE22462B46FAF788
:10583000DBFE002206460F460E4B20462946FAF7AD
:10584000D3FE02460B4630463946FAF71BFD0022CE
:10585000094BFAF715FDF8BD22462B46204629468E
:10586000FAF710FD22462B46FAF7BEFEF8BD00BF40
:105870000000E03F000010400000F03F38B5044653
:105880000D4622462B4600204FF08041FAF7F8FCE7
:1058900022462B46FAF7A8FE38BD00BF08B50246DF
:1058A0000B46FAF7A1FE08BD022906D0032906D04F
:1058B0000129064818BF0020704705487047032A91
:1058C0009ABF044800EBC20000207047F49C000817
:1058D000A89C00087C9D00082DE9F04F83464FF0FE
:1058E00000081A4CDFF87490194F1A4E1A4D83B005
:1058F00004F5207A4B46F4E80A014246FAF7C2FC66
:10590000FBF74AF937F8023F80B2834228BF0346CB
:1059100036F8020F984238BF184654454FEA102314
:10592000E87005F8043FE5D15846FEF7D7F90022A4
:105930004123019200924021074A584601F0F4FAAF
:10594000584603B0BDE8F04FFEF7BAB9881E0020F4
:10595000AE2F0020EE2F0020283000200000E03F76
:105960002DE9F84300223E4B04460D46FBF7AEF806
:1059700022462B46002840D120462946FAF782FCD1
:105980000022384BFAF77CFC02460B4600203549D2
:10599000FAF776FC30A3D3E9002304460D46FAF764
:1059A00023FE01F0DFFB2246804689462B46204637
:1059B0002946FAF719FE22462B46FAF715FE42460B
:1059C00006460F464B4620462946FAF70DFE02468C
:1059D0000B4630463946FAF753FC02460B46002088
:1059E0002049FAF74DFC00221D4BFAF7FDFD00227D
:1059F0001B4BFAF747FCBDE8F88320462946FAF727
:105A000041FC15A3D3E9002304460D46FAF7ECFD4B
:105A100001F0A8FB2246804689462B4620462946AF
:105A2000FAF7E2FD22462B46FAF7DEFD424606462D
:105A30000F464B4620462946FAF7D6FD02460B464E
:105A400030463946FAF71CFC0022054BFAF7CCFD2C
:105A5000BDE8F883AFF30080182D4454FB210940C2
:105A60000000E03F0000F03F2DE9F84302460B46FE
:105A700000201949FAF704FC15A3D3E900230446D2
:105A80000D46FAF7B1FD01F06DFB224680468946CE
:105A90002B4620462946FAF7A7FD22462B46FAF761
:105AA000A3FD424606460F464B4620462946FAF7D6
:105AB0009BFD02460B4630463946FAF7E1FB0246AB
:105AC0000B4600200449FAF7DBFBBDE8F88300BF72
:105AD000182D4454FB2109400000F03F0000000055
