:020000040800F2
:100000000004002061010008512D0008512D000856
:10001000512D0008512D0008512D0008512D0008C8
:10002000512D0008512D0008512D00084D460008A3
:10003000512D0008512D0008512D0008512D0008A8
:10004000512D0008512D0008512D0008512D000898
:10005000512D0008512D0008512D0008512D000888
:10006000512D0008512D0008512D0008E92F0008DE
:10007000A52F0008612F00081D2F0008D92E0008A9
:10008000952E0008512E0008512D0008512D000812
:10009000C9370008512D0008512D0008512D0008C6
:1000A000512D0008112E0008512D0008512D000877
:1000B00031320008512D0008512D0008213400086C
:1000C0002D330008512D0008512D0008512D000836
:1000D000512D000829300008512D0008512D00082D
:1000E000512D0008512D0008512D0008512D0008F8
:1000F000512D0008512D0008512D0008512D0008E8
:10010000512D0008512D0008512D0008512D0008D7
:10011000512D0008512D0008512D0008512D0008C7
:10012000512D0008512D0008512D0008512D0008B7
:10013000512D0008512D0008512D0008512D0008A7
:10014000512D0008512D0008512D0008512D000897
:10015000512D0008512D0008512D0008512D000887
:1001600072B6264880F3098825484EF60851CEF22B
:1001700000010860022080F31488BFF36F8F02F043
:100180001FFE06F07FFC4FF055301E491E4A91427B
:100190003CBF41F8040BFAE71C49184A91423CBFA6
:1001A00041F8040BFAE71A491A4A1B4B9A423EBF20
:1001B00051F8040B42F8040BF8E700201749184ADD
:1001C00091423CBF41F8040BFAE702F0C3FD02F094
:1001D000F5FD144C144DAC4203DA54F8041B884767
:1001E000F9E700F06DFD114C114DAC4203DA54F803
:1001F000041B8847F9E702F0DFBD0000000800207B
:10020000000000080000002000040020000400207E
:1002100090A40008000800209810002098100020EA
:1002200050320020600100086001000860010008F1
:10023000600100082DE9F04FC1F80CD0C3689D465D
:10024000BDE8F08F02F0B8FA02F04CF8002383F317
:1002500011882846A047002002F0D8FC02F054F88C
:1002600002F0D4FA02F0A4F802F0A6FA02F03AF88A
:1002700000DFFEE781F0004102E000BF83F00043B1
:1002800030B54FEA41044FEA430594EA050F08BF31
:1002900090EA020F1FBF54EA000C55EA020C7FEAF5
:1002A000645C7FEA655C00F0E2804FEA5454D4EB72
:1002B0005555B8BF6D420CDD2C4480EA020281EA3C
:1002C000030382EA000083EA010180EA020281EA74
:1002D0000303362D88BF30BD11F0004F4FEA0131C6
:1002E0004FF4801C4CEA113102D0404261EB4101D5
:1002F00013F0004F4FEA03334CEA133302D052425B
:1003000063EB430394EA050F00F0A780A4F1010416
:10031000D5F1200E0DDB02FA0EFC22FA05F2801850
:1003200041F1000103FA0EF2801843FA05F3594136
:100330000EE0A5F120050EF1200E012A03FA0EFCB5
:1003400028BF4CF0020C43FA05F3C01851EBE371DF
:1003500001F0004507D54FF0000EDCF1000C7EEBFC
:1003600000006EEB0101B1F5801F1BD3B1F5001F3A
:100370000CD349085FEA30004FEA3C0C04F1010459
:100380004FEA445212F5800F80F09A80BCF1004F82
:1003900008BF5FEA500C50F1000041EB045141EA04
:1003A000050130BD5FEA4C0C404141EB010111F405
:1003B000801FA4F10104E9D191F0000F04BF0146B0
:1003C0000020B1FA81F308BF2033A3F10B03B3F18E
:1003D00020020CDA0C3208DD02F1140CC2F10C021E
:1003E00001FA0CF021FA02F10CE002F11402D8BF7C
:1003F000C2F1200C01FA02F120FA0CFCDCBF41EA48
:100400000C019040E41AA2BF01EB0451294330BD16
:100410006FEA04041F3C1CDA0C340EDC04F11404F3
:10042000C4F1200220FA04F001FA02F340EA0300CA
:1004300021FA04F345EA030130BDC4F10C04C4F110
:10044000200220FA02F001FA04F340EA03002946F0
:1004500030BD21FA04F0294630BD94F0000F83F43A
:10046000801306BF81F480110134013D4EE77FEA1D
:10047000645C18BF7FEA655C29D094EA050F08BF69
:1004800090EA020F05D054EA000C04BF194610464A
:1004900030BD91EA030F1EBF0021002030BD5FEA8E
:1004A000545C05D14000494128BF41F0004130BDB6
:1004B00014F580043CBF01F5801130BD01F000450A
:1004C00045F0FE4141F470014FF0000030BD7FEA7D
:1004D000645C1ABF194610467FEA655C1CBF0B4678
:1004E000024650EA013406BF52EA033591EA030F8F
:1004F00041F4002130BD00BF90F0000F04BF002187
:10050000704730B54FF4806404F132044FF00005B9
:100510004FF0000150E700BF90F0000F04BF002132
:10052000704730B54FF4806404F1320410F0004598
:1005300048BF40424FF000013EE700BF42004FEA93
:10054000E2014FEA31014FEA02701FBF12F07F4310
:1005500093F07F4F81F06051704792F0000F14BF0D
:1005600093F07F4F704730B54FF4607401F0004551
:1005700021F0004120E700BF50EA010208BF7047A8
:1005800030B54FF000050AE050EA010208BF70479D
:1005900030B511F0004502D5404261EB41014FF406
:1005A000806404F132045FEA915C3FF4DCAE4FF00A
:1005B00003025FEADC0C18BF03325FEADC0C18BFF1
:1005C000033202EBDC02C2F1200300FA03FC20FA42
:1005D00002F001FA03FE40EA0E0021FA02F114448F
:1005E000C1E600BF70B54FF0FF0C4CF4E06C1CEAA4
:1005F00011541DBF1CEA135594EA0C0F95EA0C0F19
:1006000000F0DEF82C4481EA030621EA4C5123EA8B
:100610004C5350EA013518BF52EA033541F48011BA
:1006200043F4801338D0A0FB02CE4FF00005E1FB6D
:1006300002E506F00042E0FB03E54FF00006E1FBB7
:1006400003569CF0000F18BF4EF0010EA4F1FF04FA
:10065000B6F5007F64F5407404D25FEA4E0E6D413A
:1006600046EB060642EAC62141EA55514FEAC5204B
:1006700040EA5E504FEACE2EB4F1FD0C88BFBCF5C7
:10068000E06F1ED8BEF1004F08BF5FEA500E50F178
:10069000000041EB045170BD06F0004646EA01013E
:1006A00040EA020081EA0301B4EB5C04C2BFD4EB70
:1006B0000C0541EA045170BD41F480114FF0000E69
:1006C000013C00F3AB8014F1360FDEBF002001F0D7
:1006D000004170BDC4F10004203C35DA0C341BDC51
:1006E00004F11404C4F1200500FA05F320FA04F023
:1006F00001FA05F240EA020001F0004221F0004157
:1007000010EBD37021FA04F642EB06015EEA430EC9
:1007100008BF20EAD37070BDC4F10C04C4F12005F9
:1007200000FA04F320FA05F001FA04F240EA0200AC
:1007300001F0004110EBD37041F100015EEA430E7D
:1007400008BF20EAD37070BDC4F1200500FA05F29D
:100750004EEA020E20FA04F301FA05F243EA02031C
:1007600021FA04F001F0004121FA04F220EA02002B
:1007700000EBD3705EEA430E08BF20EAD37070BD71
:1007800094F0000F0FD101F00046400041EB010151
:1007900011F4801F08BF013CF7D041EA060195F033
:1007A000000F18BF704703F00046520043EB0303ED
:1007B00013F4801F08BF013DF7D043EA06037047DA
:1007C00094EA0C0F0CEA135518BF95EA0C0F0CD0E5
:1007D00050EA410618BF52EA4306D1D181EA03012B
:1007E00001F000414FF0000070BD50EA410606BF25
:1007F0001046194652EA430619D094EA0C0F02D16A
:1008000050EA013613D195EA0C0F05D152EA0336AE
:100810001CBF104619460AD181EA030101F00041CC
:1008200041F0FE4141F470014FF0000070BD41F015
:10083000FE4141F4780170BD70B54FF0FF0C4CF4EF
:10084000E06C1CEA11541DBF1CEA135594EA0C0F0E
:1008500095EA0C0F00F0A7F8A4EB050481EA030E5B
:1008600052EA03354FEA013100F088804FEA033342
:100870004FF0805545EA131343EA12634FEA022210
:1008800045EA111545EA10654FEA00260EF00041D1
:100890009D4208BF964244F1FD0404F5407402D223
:1008A0005B084FEA3202B61A65EB03055B084FEAB4
:1008B00032024FF480104FF4002CB6EB020E75EBB1
:1008C000030E22BFB61A754640EA0C005B084FEAD9
:1008D0003202B6EB020E75EB030E22BFB61A754656
:1008E00040EA5C005B084FEA3202B6EB020E75EBA1
:1008F000030E22BFB61A754640EA9C005B084FEA19
:100900003202B6EB020E75EB030E22BFB61A754625
:1009100040EADC0055EA060E18D04FEA051545EA14
:1009200016754FEA06164FEAC30343EA52734FEABD
:10093000C2025FEA1C1CC0D111F4801F0BD141EA36
:1009400000014FF000004FF0004CB6E711F4801F9B
:1009500004BF01430020B4F1FD0C88BFBCF5E06F7B
:100960003FF6AFAEB5EB030C04BFB6EB020C5FEA8B
:10097000500C50F1000041EB045170BD0EF0004EE0
:100980004EEA113114EB5C04C2BFD4EB0C0541EA12
:10099000045170BD41F480114FF0000E013C90E60F
:1009A00045EA060E8DE60CEA135594EA0C0F08BFD3
:1009B00095EA0C0F3FF43BAF94EA0C0F0AD150EAD2
:1009C00001347FF434AF95EA0C0F7FF425AF104665
:1009D00019462CE795EA0C0F06D152EA03353FF48D
:1009E000FDAE1046194622E750EA410618BF52EA0A
:1009F00043067FF4C5AE50EA41047FF40DAF52EADE
:100A000043057FF4EBAE12E74FF0FF3C06E000BF7A
:100A10004FF0010C02E000BF4FF0010C4DF804CD87
:100A20004FEA410C7FEA6C5C4FEA430C18BF7FEA47
:100A30006C5C1BD001B050EA410C0CBF52EA430C75
:100A400091EA030F02BF90EA020F0020704710F1F5
:100A5000000F91EA030F58BF994208BF90422CBF84
:100A6000D8176FEAE37040F0010070474FEA410C7D
:100A70007FEA6C5C02D150EA013C07D14FEA430C9B
:100A80007FEA6C5CD6D152EA033CD3D05DF8040B0C
:100A9000704700BF8446104662468C46194663463E
:100AA00000E000BF01B5FFF7B7FF002848BF10F115
:100AB000000F01BD4DF808EDFFF7F4FF0CBF01205A
:100AC00000205DF808FB00BF4DF808EDFFF7EAFFD6
:100AD00034BF012000205DF808FB00BF4DF808ED91
:100AE000FFF7E0FF94BF012000205DF808FB00BF86
:100AF0004DF808EDFFF7CEFF94BF012000205DF810
:100B000008FB00BF4DF808EDFFF7C4FF34BF01201C
:100B100000205DF808FB00BF4FEA410C7FEA6C5CE7
:100B200002D150EA013C0AD14FEA430C7FEA6C5CE7
:100B300002D152EA033C02D14FF0000070474FF05F
:100B4000010070474FEA410212F5001215D211D58B
:100B50006FF47873B3EB625212D94FEAC12343F0BA
:100B6000004343EA505311F0004F23FA02F018BF3C
:100B7000404270474FF00000704750EA013005D105
:100B800011F0004008BF6FF0004070474FF00000C8
:100B9000704700BF4A0011D212F5001211D20DD5D4
:100BA0006FF47873B3EB62520ED44FEAC12343F073
:100BB000004343EA505323FA02F070474FF000001D
:100BC000704750EA013002D14FF0FF3070474FF0CC
:100BD00000007047844641EA000313F0030349D143
:100BE000403A23D30B6803604B6843608B68836093
:100BF000CB68C3600B6903614B6943618B69836197
:100C0000CB69C3610B6A03624B6A43628B6A83627E
:100C1000CB6AC3620B6B03634B6B43638B6B836366
:100C2000CB6BC36340304031403ADBD230320BD320
:100C30000B6803604B6843608B688360CB68C3605C
:100C400010301031103AF3D20C3205D351F8043B76
:100C500040F8043B043AF9D2043208D0D2071CBF52
:100C600011F8013B00F8013B01D30B88038060467B
:100C7000704700BF082A13D38B07B1D010F00303CD
:100C8000AED0C3F10403D21ADB071CBF11F8013B3D
:100C900000F8013BA4D331F8023B20F8023B9FE768
:100CA000043AD9D3013A11F8013B00F8013BF9D2DB
:100CB0000B7803704B7843708B7883706046704775
:100CC00000214FF0FF34104B2DE980481D691C6155
:100CD0001961DD68DC60D960DC690C4D44F080543A
:100CE000DC61DC690A4E44F000646960DC613368F1
:100CF000D5B043F48073336008460A46054C064F6E
:100D0000064B29600EE000BF00100240F0310020C9
:100D1000007000405498000808000240E0300020B5
:100D200054F8147C3A6043F830200130072804F16D
:100D30001404F5D14FF0FF314FF08833BB4C012044
:100D400026464FF4807E0027B94DDFF810C3696056
:100D5000DCF8185045F07D05CCF81850B54DACF5D1
:100D6000843CCCF80C10CCF80430CCF80030E960AE
:100D70006B602B60B04DCCF80C18CCF80458CCF854
:100D80000038AE4DDFF814C3E9606B60C5F800C0F1
:100D9000C5F80C14C5F80434C5F80034A84DA94BA7
:100DA000DFF8FCC2EB62143B46F804CBA6492B6388
:100DB00005F10C036660EB60A44E2B61A44B6963E4
:100DC00001F558416A606A61EA617260F1602870F9
:100DD00030702072C4F854329E4B9F495A6018708C
:100DE00004F5AA73E361E363A3646364994B6261EE
:100DF000C4F838E004F5157EA262C4F840E004F1BE
:100E0000300204F10C0EE1642C3304F1540122632E
:100E10006263E4622465C4F80CE0C4F810E0A161E8
:100E20006162216203F11C0243F8047B9A429F61D4
:100E3000FAD14FF001094FF6FF724FF080414BF6A7
:100E40007F3C4FF0805E4FF0800A8448814BD0F8A1
:100E50001CB01F815F814BEA0903C3618048DFF842
:100E600044B24368ABF8242043F4006343607D4BF5
:100E7000C1F828C0CA620BF11C028F614FF0FF3825
:100E8000CBF804B04F63CBF80870CF60CBF810B04C
:100E90004F60ABF82670CBF82C70CBF83070CBF8E5
:100EA0009870CBF814B0C1F81490CBF81C20C1F89E
:100EB000009083F81CA3CBF82020C3F880E1002227
:100EC000C3F800E0002328A829972A97CDF8A0802E
:100ED000CBF800B02B97CDE92C2301F009FA28A814
:100EE00001F0D8F92A990020029100214FF0100C4E
:100EF0004FF6FF0ECBE92E01CBE9340102995A4B94
:100F0000CBF8981059495A4A196003EB0C01DBF8E9
:100F100014009F60DF609F6119615961CBF8502018
:100F2000544B554ACBF8A070CBF8A470CBF8A880EE
:100F3000CBF8AC70CBF8B070CBF8B470CBF8C08005
:100F4000CBF8C470CBF8C870CBF8CC708BF8597064
:100F5000CBF87070CBF86C70CBF84C00CBF840A09D
:100F6000CBF874A08BF85A90CBF848B01360434B81
:100F70000BF138015360424B0161D868414A00EAE5
:100F80000E0002430EF1604ECBF81410AEF60F3E89
:100F9000DA60DEF80C20CBF8181042F08072CEF840
:100FA0000C204FF0200E3848384A0168CBF880807A
:100FB00041EA090101604FF0000883F81FC083F87F
:100FC00022E0CBF88470CBF88870CBF88C700027C7
:100FD0000BF164030BF16001CBF86430CBF868309F
:100FE0000BEB0A00CBE924788BF85890CBF8601013
:100FF000CBF8542001F07CF9DBF82C3013B9DBF886
:10100000303023B172B6224BCBF82830FEE783F3A1
:10101000118862B61F4F384601F0A0FC002843D06B
:1010200072B61D4BCBF82830FEE700BFA810002099
:1010300000000240000C01408888388800140140FC
:10104000A8300020B49800080054004098100020F8
:101050000038014094170020C52D00080010024000
:10106000002004E000E100E0301D002041500008B5
:10107000D898000850320020281D00200050002081
:1010800000ED00E00003FA05001000E0000400207D
:101090000C9A0008301C002090970008448888882B
:1010A0003C9B0008183100203B46552107F1F8020F
:1010B00003F8011B9342FBD14FF0200989F31188FB
:1010C00001F022F901F0A2FB01F062F901200022F7
:1010D0004FF00208DFF840E2874BC7F874E0DFF812
:1010E0003CE2C7F8A000C7F894E0DFF834E2C7F8A4
:1010F000D400C7F8B0E0DBF814E087F8BA0003F1D9
:101100002400C7F8ACE0C7F8A430BA6787F8B92064
:10111000C7F8D020C7F8CC20C7F8B470C7F8A8B07B
:1011200087F8B880CEF81000C7F8E420C7F8E820A8
:10113000C7F8EC2003F14C0250334FF0FF31C7F8F1
:10114000C020C7F8C4300022C7F8C8300023C7F851
:10115000E010C7E93C23CBF8140005F053FD01F083
:101160003BFB07224FF40051644802F0C9FC644F76
:1011700011224FF40071634802F0C2FC42464FF462
:101180008061604802F0BCFC38461122402102F028
:10119000B7FC38461122802102F0B2FC07224946F2
:1011A000384602F0ADFCC7F810902B785A1E012A81
:1011B00006D9052B04D072B6534BCBF82830FEE786
:1011C000202383F3118801F09FF801F01FFB95F8AD
:1011D00000904E4BB9F1010F6B606F6B00F04C82C9
:1011E0004FF4106E4FF4004C0022E96A2B6B6868D4
:1011F000D1F80480D3F8049007F110014368C8F8CF
:101200000810DFF82081C9F8081003F1FF39C7F88A
:1012100000C0C1453A60C7F804E090F808E0696B87
:1012200000F2E1814FF6C079D1F804C0DFF8F88010
:101230000CEA090CC1F804C0D1F804C043454CF0D5
:10124000180CC1F804C000F3A581BEF1010F04D051
:1012500072B62F4BCBF82830FEE7DFF8D0E05A000B
:101260009EFBF2F302FB13E2002A40F08E819BB258
:10127000032B40F261821922B3F5805F0A62C3F347
:101280000B0280F05482CA6102780B68022A9BB27A
:1012900000F07581032A00F06F81012A02D123F04A
:1012A0000A039BB202220B603B6843F001033B60E0
:1012B0002A7001F081FA01F015F8DBF800305B4587
:1012C00006D0DBF818209B6892689A42C0F04A81E9
:1012D000002383F31188202787F3118801F014F885
:1012E00001F094FA237A5A1E012A21D972B6094BC9
:1012F000CBF82830FEE700BFA41C002000100140FE
:10130000000C014000080140A8970008009900085F
:10131000C49700080C980008352200084502000810
:10132000149A0008FF083D00A086010000366E01F7
:10133000012B0BD1C020AE49AE4B8A6942F48042EA
:101340008A6183F82503C3F884715F60D022D4F8E2
:1013500054324FF0400C4FF0010E002042F22C1797
:101360009A60FF210222C3F810C0C3F814E0DF60C6
:10137000186018685B6884F85812227201F01CFA31
:1013800000F0B0FFDBF800305B4506D0DBF818203A
:101390009B6892689A42C0F0EA804FF0000888F398
:1013A0001188954B80201B605B60C3F808808DF826
:1013B000A08007F045FD0746904801F037FA8023EA
:1013C00028AA01935021012300978D4805F072FF50
:1013D0008A4803F07FFE43463A46DFF87CE28948BC
:1013E000DFF87892B2F80080B2F802C086492EF891
:1013F00013C021F81380B2F806C0B2F8048029F8AF
:1014000013C020F813800133102B02F10802E9D138
:101410004FF0000AD046384607F01AFDDFF8409238
:101420007A4F7B4B0293784B09F1280933F81A0065
:10143000FFF762F8029B49E90A0149E9060149E917
:10144000040129F8208C29F81E8C49F8043C0AF183
:10145000010A4FF00000002F00F07381BAF1100F65
:101460003F607F60C7F8088007F11007DAD10027D6
:10147000684BDFF8F0E1684AC3F800E0C3F808E021
:10148000C3F80CE00EF1100E6449C3F804E003F158
:10149000180EC3F818E0C3F81CE003F1200EC3F8DF
:1014A000108099461875C3F820E0C3F824E0116055
:1014B0005B4BD16091601031516002F11801C2F8AC
:1014C00010809161D161C3F8088002F12001DFF83A
:1014D00098A1DFF898811075116251621B605B6002
:1014E0000AEB070211464846029207F5827705F09B
:1014F00083FE029A4B49404605F06EFCB7F5826FB9
:10150000EED10027484B00978122E821474801F09F
:10151000ADFB0095464B81224FF43A71454801F0EE
:10152000A5FB0094444B80224FF43A71434801F0EC
:101530009DFB0095424B80224FF49D61414801F094
:1015400095FB202383F3118800F0DEFE01F05EF9A5
:1015500033785A1E012A40F2F98072B63A4BCBF822
:101560002830FEE772B6394BCBF82830FEE772B66A
:10157000374BCBF82830FEE743F00A0392E623F01E
:1015800008039BB243F002038CE672B6314BCBF8F2
:101590002830FEE7DFF8D8C063453FF774AEAEF100
:1015A0000202012A04D972B62A4BCBF82830FEE792
:1015B000BEF1020F00F09E80192202FB03F2DFF859
:1015C000B4E09EFBF2F302FB13E2002A40F08D80B0
:1015D0004FF480429BB24FF0080E1A4342F400428F
:1015E000C1F820E04FE672B61A4BCBF82830FEE780
:1015F0000010024000E100E0801D0020B430002017
:10160000A8300020F82F0020982F0020901D0020E7
:10161000956100082808002000080020601D0020B7
:10162000501D00201C9A0008BD5200081021002007
:10163000695B0008B02C0020455B0008E024002016
:1016400081530008C82700209C970008C0A100080B
:101650005C970008C4970008D82F0020B82F0020FE
:10166000901E0020701D00201C180020A8100020D3
:10167000801A060000366E019A238A210022DFF8C4
:101680006882AB62D8F81030E86A43F400136962EC
:10169000C8F810308C49C8F8102005F03DFB002830
:1016A0003BD18A49286B05F037FB88BB50214FF0AE
:1016B0000040D8F81C206B6A42F40012C8F81C20C5
:1016C000AA6A43F4405E824B42F4405283F81F13EF
:1016D000C3F88001C5F824E01860AA6283F82013DB
:1016E000C3F88491C3F804907AE572B6794BCBF8CD
:1016F0002830FEE7DFF80CE203EB43039EFBF3F236
:1017000003FB12EEBEF1000F0CD193B2724662E7FA
:1017100072B6714BCBF82830FEE772B66E4BCBF841
:101720002830FEE772B66B4BCBF82830FEE772B676
:10173000684BCBF82830FEE772B6664BCBF8283002
:10174000FEE772B6654BCBF82830FEE7644A012B02
:1017500072600FD042F21072B168B1FBF2F3013B3C
:101760009BB203FB022291421BD072B65D4BCBF8B9
:101770002830FEE770245C4B4FF000709A6942F409
:1017800000629A61D968524A41F40061D960DF6011
:10179000564B82F81943B36041F2BF23C2F880016F
:1017A000106000240221F268146054609362146196
:1017B000D460317002F082FE202383F3118800F0A0
:1017C000A3FD01F023F800F0E3FD3378022B04D0F1
:1017D00072B6474BCBF82830FEE762250120032183
:1017E0007268F3685268DD62317058615C621C6136
:1017F00012B1DA680243DA608522DFF80C811A60E0
:1018000002F05CFE42460023012102244FF4827064
:10181000384DC8F81830C8F83C5008F28C45C8F864
:101820005C50354DC8F83430C8F87450334DC8F8A2
:10183000383042F8045BC8F8042008F10C02C8F8FC
:101840000C20C8F8102008F17C02C8F82020C8F845
:101850001C20C8F8302008F52172C8F82420C8F8E8
:101860005820C8F85420C8F8682008F14402C8F885
:101870006C30C8F87030C8F84080C8F87880C8F874
:101880004420C8F8482088F8081088F8141088F810
:101890004C10C8F82800C8F86000C8F82C40C8F8F8
:1018A0005040C8F86440202383F3118800F02CFDD9
:1018B00000F0ACFF98F80830013B012B26D972B636
:1018C0000F4BCBF82830FEE739350008D52D00083E
:1018D00000E100E0C4970008209800088097000805
:1018E000F0980008B497000800100240006CDC0279
:1018F000D89700087D440008F13D00085C9B000873
:101900001498000800366E01041300206A4A6B4BDD
:10191000C2F82C80C8F88C34C2F84880C2F83080F5
:1019200088F8084000F048FF00F0DCFCDBF80030ED
:101930005B4506D0DBF818209B6892689A42C0F09D
:101940000C84002484F311885D4E1DAD0FCE0FC5AD
:101950000FCE0FC596E8070085E80700594F7B7842
:101960003A78F9781B0443EA0263BA780B4343EAF6
:10197000022328AA42F824300134042C07F104077A
:10198000EDD1514827A9A2070B6919D14FEA33635A
:101990001D0EDAB2455D825CC3F3074642EA05627A
:1019A000C3F3072324F00305875DC65C2B4654ADC3
:1019B0002B4442EA074253F8DC3C42EA06225340F9
:1019C00051F8042F013453402C2C0B61DBD1102033
:1019D00007F036FA0446102007F032FA099007465D
:1019E000102007F02DFAF023064654AD1290374828
:1019F00005F8DD3D00F01AFF10232A46502101931F
:101A000000940123324805F055FC304803F062FB96
:101A1000304D314B93E80700F56086E80700002F52
:101A200000F08183002C00F07E8394E80F001DAC51
:101A300084E80F0050A9204604F0C2FF28AB1946E5
:101A400000239DF87E009DF876208DF876008DF8B5
:101A50007E209DF87B009DF877208DF877009DF81B
:101A600083008DF883209DF87F208DF87F008DF80E
:101A70007B209DF875009DF879208DF879009DF800
:101A80007D008DF87D209DF881208DF881008DF8F6
:101A900075209DF882009DF87A208DF87A008DF8E7
:101AA00082201DAAD25C0D48825C1DA8C25401335D
:101AB000102BF6D114E000BF94170020249B0008DF
:101AC00030970008C8980008249A0008B430002015
:101AD000A8300020DCD74658E8F7FF1F0C99000813
:101AE0009DF87F00D1F890400A909DF882009DF803
:101AF00074600E909DF8830086EA1466109030465C
:101B00009DF87A309DF8786002939DF875909DF865
:101B10007D309DF876C09DF877E004969DF87C6056
:101B2000D1F894509DF87BA08CEA142C8EEA040E18
:101B3000039306969DF87E309DF8806089EA1449EB
:101B4000029C8AEA050AD1F898209DF879700893DA
:101B50001B91D1F89C300C969DF8811084EA1526D3
:101B60000D90CDF814A0039CF6B284EA124A089CAA
:101B7000CDF81CA087EA154784EA122A03960A9C2E
:101B8000049EFFB2CDF820A084EA020A0E9C0E97B4
:101B900086EA15670A979DF820509DF81C70CDF8CD
:101BA0002CA0139704959DF82C70069D84EA132AA7
:101BB0005FFA89F9109C81EA1341CDF83CA0CDF879
:101BC00008909DF81490059785EA126784EA030A45
:101BD000CDB20B979DF83C70CDF840A006950C9DBA
:101BE00007979DF8407085EA13625FFA8CF45FFAFC
:101BF0008EFA0C92089704F0D9FE064604F0D6FE41
:101C00000F9004F0D3FE864672460F9B029F53400E
:101C1000DDB23846CDF854E0109504F0C7FE87EAEF
:101C2000040305460F93029704F0C0FE179004F0DA
:101C3000BDFE0F9B07468AEA030373406B40DBB28D
:101C4000204611931496169504F0B0FE189004F0F7
:101C5000ADFE0F9004F0AAFE119B0F9A7B4042400C
:101C60005FFA83FE1990CDF83CE050465FFA82FEA1
:101C7000CDF844E004F09AFE3D46074604F096FE97
:101C80001A9004F093FE0D99029B189E81EA0302BC
:101C900081EA0403149954404C4015998AEA0303DD
:101CA0004B404C4016998AEA02026A404B4072400F
:101CB00073403E4619997A404C4074400F9E179FDE
:101CC00086EA000C1A9E87EA050E4B4010995FFACF
:101CD0008EFE42404640F0B28EEA030381EA0C0CCD
:101CE0004A40119943408EEA040481EA0C0C4A40B0
:101CF0005FFA83FE44405FFA8CF7D5B20A98CDF8BC
:101D00003CE05FFA84FECDF844E01597109504F0AE
:101D10004DFE824604F04AFE044604F047FE0346A8
:101D20000E9E84EA03025FFA82FE30461A93CDF8D3
:101D300008E004F03BFE039A054686EA020404F03C
:101D400035FE149004F032FE52461B9907461039B6
:101D5000039889EA040454401B91CDF834A00E95F1
:101D600004F024FE199004F021FE824604F01EFEC9
:101D700016908AEA000A484604F018FE6C40179054
:101D80003D4604F013FE189004F010FE29460A9B0D
:101D9000E4B27C40E7B283EA0604039E0D9A83EA2C
:101DA000060E664089EA04041A9B6C4056400E9D5C
:101DB000199A89EA0E0E83EA0E0E5E4082EA040347
:101DC000149C85EA0E0E179D4C40169982EA0E0E61
:101DD00085EA030280EA0703189F4E4087EA000C59
:101DE000E4B26E405FFA8CFC81EA0E0E424066401F
:101DF00002988CEA060684EA0E048CEA04045FFA70
:101E00008AFA5FFA86FE434042408AEA03038AEA7E
:101E10000202CDF838E05FFA84FEDFB20B98CDF80D
:101E200028E05FFA82FECDF834E0149704F0BEFD9E
:101E3000074604F0BBFD044604F0B8FD8146139E3E
:101E400084EA09045FFA84FE3046CDF808E004F025
:101E5000ADFD049A824686EA020404F0A7FD1690BE
:101E600004F0A4FD5246059B35465C4006467C4086
:101E700004985440CDF84CA004F098FD179004F05D
:101E800095FD824604F092FDE4B274405FFA84FE50
:101E90008AEA000A1A900598CDF80CE004F086FD55
:101EA000189004F083FD199004F080FD0B9C059BB5
:101EB00084EA0502049D5FFA8AFA6C405C40554052
:101EC0005A40169B724073401E467D40139F89EA1C
:101ED00004047C40179F1A9B7A4018996740039C22
:101EE00089EA050583EA050980EA0405199C4A4048
:101EF00081EA0909F6B24440E4B27B40424086EAF6
:101F00000909029884EA0909734063405FFA89FE6F
:101F1000454042408AEA02028AEA0505CDF810E00F
:101F20005FFA83FEEEB20C98CDF808E05FFA82FE0D
:101F3000CDF80CE0139604F039FD824604F036FD2E
:101F4000044604F033FD0646DDF8189074405FFA4D
:101F500084FE4846CDF82CE004F028FDCDF818901A
:101F6000059004F023FD179004F020FD079C0899CC
:101F700089EA04054D40074605988AEA050545406B
:101F80002046079404F012FD1A9004F00FFD8146DC
:101F900004F00CFDEDB27D405FFA85FE044689EA4F
:101FA00000090898CDF858E004F000FD189004F0FE
:101FB000FDFC199004F0FAFC0C99069B8E4681EA10
:101FC00003050799089B8EEA01025A4083EA050E31
:101FD000059B72405A401A9B87EA0E0E83EA0E0E4A
:101FE0005A40179B4D407B401F468AEA05051899C9
:101FF0007540654081EA0E0E4D40199B1699FFB25F
:10200000624080EA0E0E43407A407D4048400B9F7C
:102010009DF854105FFA89F98DF874109DF85010EE
:1020200078408DF878109DF84C10DBB28DF87C105C
:102030009DF83C1089EA00008DF875109DF840105D
:1020400087EA0E0E8DF876109DF844105A408DF8F0
:1020500077109DF8281089EA0E0E8DF879109DF8FA
:1020600034106B408DF87A109DF838108DF8800090
:102070008DF87B109DF8081004A88DF87D109DF850
:102080000C105FFA8EFE8DF87E109DF81010D2B203
:102090008DF87F101B99DBB288428DF882E08DF8B5
:1020A00081208DF883307FF4CBAC1C4600238DF863
:1020B00075209DF80C208DF87AE08DF876209DF83B
:1020C00038208DF87F408DF877209DF83C208DF8E2
:1020D00079209DF810208DF87B209DF828208DF820
:1020E0007D209DF840208DF87E209DF808208DF8F9
:1020F00081209DF834208DF882209DF844208DF8B1
:1021000083201DAAD25C40498A5C1DA9CA540133B0
:10211000102BF6D128A91DA804F052FC099C1DAB78
:102120000FCB84E80F0012990998102207F03AF9B2
:1021300010B90122354B1A70202383F3118800F067
:10214000E3F800F063FB324B1A78531E012B09D9D8
:1021500072B6304BCBF82830FEE772B62E4BCBF878
:102160002830FEE700231C462C49294841602849B5
:1021700019440433202BCC60F9D1012A1CD14FF42F
:1021800080104FF40025D027E0262549CB6943F481
:102190000003CB61234BA1F5DA310A6483F8137392
:1021A000C3F880511D6083F81463C3F88001186080
:1021B00017480C6401F0ECFA0223154A137000F082
:1021C000FBFA00F08FF8DBF800305B4505D0DBF858
:1021D00018209B6892689A4210D3002383F31188D9
:1021E000114BCDF800807F224FF43A710F4800F078
:1021F0003DFD4FF47A7000F0DBFCFAE772B60C4B51
:10220000CBF82830FEE700BF0C9900085C1D0020C9
:102210009417002030980008689700082C9B00084D
:102220000010024000E100E0215B0008F8210020DE
:1022300074970008FEE700BF202383F31188054A46
:102240000021D2F8A0300133C2F8A03081F3118808
:10225000704700BF183100200D4B70B4D0E9044521
:102260005B68C6688B60816842685B1AE41845F158
:1022700000059342026806F1010688BF436093425D
:10228000C660C0E9044570BC836038BF0360704716
:10229000001000E00E4B0F4A5B688168D2F898206E
:1022A0005B1A9B1AC26830B4D0E904454168013218
:1022B000E418C260026845F100058B4288BF4360A4
:1022C0009342C0E9044530BC836038BF0360704767
:1022D000001000E0183100200148FFF7DBBF00BF0D
:1022E000D83100200148FFF7D5BF00BFC031002022
:1022F000014B5B6883607047001000E00148FFF706
:10230000F7BF00BFD83100200148FFF7F1BF00BF81
:10231000C0310020054BDA6A1AB91A6B002A00DDB9
:10232000704772B6024A9A62FEE700BF1831002079
:10233000949C000870B5FFF7EDFF0122124CA569CF
:10234000236885F820001E6803F14801746083F853
:102350002020D4F8A42005F1480001322660A361B2
:10236000C4F8A420FFF778FFEFF30983EA69243B60
:102370009A4205D82946A069BDE87040FDF75ABFCA
:1023800072B6024BA362FEE7183100209C9C000845
:10239000054BDA6A002A03DB1A6B002A00DD70475E
:1023A00072B6024A9A62FEE7183100208C9C00083F
:1023B000012238B5204C2368A56919684C6083F860
:1023C00020202160A361FFF7E3FF6DB395F8203073
:1023D00033B30F2B24D00023AA6885F8203000E007
:1023E00009688B689A42FBD34B6805F1480085E881
:1023F0000A001D604D60D4F8A430A1690133483152
:10240000C4F8A430FFF728FFEFF30983EA69243BFF
:102410009A420DD82946A069BDE83840FDF70ABFA9
:1024200072B6064BA362FEE772B6044BA362FEE7E8
:1024300072B6034BA362FEE718310020D09B000860
:102440009C9C000808B5FFF765FFFFF7A1FF064B4E
:102450001A689B6992689B689A4200D808BDBDE8DB
:102460000840FFF7A5BF00BF183100202DE9F04359
:1024700087B08046FFF74EFF4FF6FF73994235D085
:10248000FFF786FF21B972B6594B5A4A9A62FEE7A6
:10249000574E4FF08040B14659F81C5F426AB3690D
:1024A0000129554C08BF02214D450593049493B270
:1024B00051D0F08C92B21B1A19448CB2131A9C4260
:1024C0002B895BDA2D68E41A2B89A4B29C4201AFF8
:1024D00006D813E02D68E41A2B89A4B29C420DD9CA
:1024E000BD42F7D172B6434BB362FEE7FFF722FF5E
:1024F0003F4EB369586A07B0BDE8F0834FF6FF72EC
:102500006B68019502931F606F60ADF80C402B89DA
:102510001C1B2C81B2844046FFF70CFFFFF738FFED
:10252000049B002BE5D0FFF733FFF369BB422DD0AE
:102530000021029A019B1360019B4B455A60049154
:10254000D7D01A89BDF80C100A441A81B369586AA9
:1025500007B0BDE8F083C26801AFF38412F0020255
:102560000B449BB201950295ADF80C10F7613762F0
:1025700031D1022143630261C160CCE79C42A5D204
:10258000204480B202F02AF92B899FE700230198AA
:102590004845F061C0F80490049320D04FF0804388
:1025A0005A6AF18C0389BDF80C4092B2511A234447
:1025B0009BB289B28B4203819BD95B1A9BB2022BDF
:1025C0002CBFD318931C98B202F008F9B369586A6B
:1025D00007B0BDE8F08372B6084BB362FEE74FF078
:1025E0008042D360B369586A07B0BDE8F08300BF8A
:1025F00018310020B89B00084D2700084C9C0008AB
:1026000061B10246074B10B49B694468042083E81B
:1026100014002360536010BCFFF728BF4FF0FF3059
:10262000704700BF1831002008B5FFF7B1FED0B1E8
:1026300090F8203001468BB10F2B0FD000220C4BAD
:10264000806881F820201B689A688242FBD25A6811
:1026500008460B604A601160596008BD72B6044BB1
:10266000044A9A62FEE772B6014B024A9A62FEE79A
:1026700018310020AC9B000803688BB1024693F828
:102680002000032804D072B6064B074A9A62FEE780
:1026900010B4002414605962184610BCFFF7C4BF80
:1026A000704700BF183100202C9C0008202383F3C2
:1026B0001188074BDA6A002A01DD196B19B172B66D
:1026C000044A9A62FEE7013ADA6281F311887047A0
:1026D00018310020649C0008202383F31188074BE5
:1026E000DA6A002A01DB196B19B172B6044A9A62E0
:1026F000FEE70132DA6281F3118870471831002059
:102700005C9C0008064BDA6A002A05DD1A6B002A79
:1027100002DD00221A63704772B6024A9A62FEE72F
:1027200018310020849C0008064BDA6A002A01DD7B
:102730001A6B1AB172B6044A9A62FEE701221A6352
:10274000704700BF18310020749C000808B501468E
:10275000202383F31188FFF7D1FDFFF7E5FF91F800
:102760002030072B10D8DFE803F0150F0F1D0A04E7
:102770000F0A486AFFF70CFE83680133836091E813
:102780000C001A600A6853604FF0FF3308464B6232
:10279000FFF74AFFFFF7B6FFFFF79EFD002383F325
:1027A000118808BD00224B6A08461A604FF0FF33BB
:1027B0004B62FFF739FFEDE7054BDA6A22B9196B77
:1027C000002901DD1A63704772B6024A9A62FEE779
:1027D000183100207C9C000808B5FFF7EDFFFFF7DB
:1027E00081FD084B1A689A4204D0996992688968F9
:1027F000914203D3002383F3118808BD72B6024AC5
:102800009A62FEE7183100207C9B0008054BDA6ACB
:102810000AB91A6B1AB172B6034A9A62FEE701222C
:102820001A637047183100206C9C0008F8B5054603
:10283000202383F31188464EFFF766FDFFF7E6FF7E
:10284000B469FFF767FD45B3A868002830D0A268D7
:1028500083689A4208D990F820308260062B5ED0B7
:10286000072B48D0002B3BD02B4603E09968A26889
:10287000914202D31B689D42F8D15A68062023601A
:10288000626014605C606562FFF754FDAB689C4257
:1028900007D072B62F4BB362FEE772B62D4BB36210
:1028A000FEE7A36B9D4207D072B62A4BB362FEE7E8
:1028B000A36BAC60EB60A563FFF77EFFFFF712FD33
:1028C0003368B34204D0B2699B6892689A4203D3DA
:1028D000002383F31188F8BD72B61F4BB362FEE785
:1028E000012190E80C0080F820101A600268536003
:1028F000FFF79AFEB8E790E80A00196001684B609C
:10290000416A0B4602E09F68974202D31B689942D6
:10291000F9D15A680360426010605860A4E790E8FB
:102920000A00196001684B60416A0B4602E09F682B
:10293000974202D31B689942F9D15A6803604260FA
:10294000106058608868A26883689A4283D88BE7D1
:1029500018310020C49B0008509E00082DE9F84F54
:102960008146202383F31188894CFFF7CDFCFFF7C4
:102970004DFF256995F82230013385F82230FFF7A5
:102980001BFFFFF7AFFC2368A34204D0A2699B683A
:1029900092689A424CD3002787F311884FF02008A1
:1029A000EB69994500F0988088F31188FFF7ACFC3B
:1029B000FFF72CFF2E69A64200F08C8096F822309B
:1029C000FF2B00F08380013386F82230FFF7F4FEFE
:1029D000FFF788FC2368A34204D0A2699B68926831
:1029E0009A4229D387F3118888F31188FFF78CFC6A
:1029F000FFF70CFF95F82230002B75D0013B85F8CE
:102A000022302B6A03F0FF130F2B19D0FFF7D4FEEF
:102A1000FFF768FC2368A34204D0A2699B68926810
:102A20009A425DD387F311883546002EB8D154E021
:102A300072B6584BA362FEE772B6564BA362FEE72E
:102A40006B692A691A612A695361FFF7B5FEFFF7BE
:102A500049FC2368A34204D0A2699B6892689A4209
:102A600046D387F3118895F8213003F00303012B37
:102A700024D0022BD8D1296CED6988F31188FFF797
:102A800043FCFFF7C3FEFFF783FC99B195B10B68D8
:102A90002B600D60FFF790FEFFF724FC2368A34234
:102AA000C0D0A2699B6892689A42BBD272B63A4B78
:102AB000A362FEE772B6394BA362FEE7ED690DB182
:102AC0006B0719D072B6364BA362FEE772B6354B70
:102AD000A362FEE7002679E72E463046BDE8F88F70
:102AE00072B6314BA362FEE772B6304BA362FEE7CB
:102AF00072B62D4BA362FEE715E90C000733DB0825
:102B000002F1100A02F1080B504645F8043CFFF7A9
:102B10008DFE5946A5F10800884205D34B68013364
:102B200001EBC30398422ED38B450B6801D088423A
:102B300002D91BB1984201D31946EDE745F8083C8C
:102B4000086015E90C00013300EBC30E964508D16F
:102B5000DEF804201A4445F8042C50F8333045F8C8
:102B6000083C4A68531C01EBC303984207D155F84F
:102B7000043C013313444B6055F8083C0B6050464D
:102B800002F0A8FA50E772B6054BA362FEE700BF59
:102B900018310020A09B0008889B0008E49B0008D7
:102BA000F09B00083C9C00087C9B0008109C0008DF
:102BB00008B50146202383F31188FFF7A5FBFFF733
:102BC00025FE99B10820FFF751FCFFF7F5FDFFF74F
:102BD00089FB0B4B1A689A4204D0996992688968FC
:102BE000914208D3002383F3118808BD72B6044BC9
:102BF000044A9A62FEE772B6034A9A62FEE700BF91
:102C000018310020949B00087C9B000808B5014601
:102C1000202383F31188FFF777FBFFF7F7FD114DB2
:102C2000AC69A06A04F128068642616206D0026897
:102C3000A262FFF7F9FCA06AB042F8D194F8223002
:102C400043B994F821309B0704D1226963691A6162
:102C5000226953610F20FFF76DFB72B6024BAB6226
:102C6000FEE700BF18310020209C00082DE9F0414C
:102C7000069E90B1E72910D94C070ED1FF2A0CD837
:102C80005BB10546984617460C46FFF767FE48B10C
:102C900072B62B4B2B4A9A62FEE772B6284B294A32
:102CA0009A62FEE72A19954205D22B46552103F870
:102CB000011B9A42FBD1202383F31188FFF724FBE9
:102CC000FFF7A4FD012000214FF0020C4FF0FF3E62
:102CD00000220023603C2C4444F8206CE561A4F100
:102CE0002406174DE660184E256144F8046C84F8FC
:102CF0002200164E686944F8248C6061A76084F84D
:102D000020C0A66184F82110A1636163E76304F128
:102D10002806046104F12C00E16421656165C4F8B2
:102D200048E0C4E91623E0622063A66220466C6195
:102D300003F068FFFFF750FD2046BDE8F08100BFBB
:102D400018310020FC9B000845020008AC9C0008DC
:102D5000FEE700BFF0B50026124F134D134C144B85
:102D6000144907F1700E9C4211D91A46043951F8E2
:102D7000040F42F8040B9442F9D8DA43144424F0C7
:102D80000304043423449D4203D943F8046B9D4259
:102D9000FBD8774504D007F110013AC91037E2E7B4
:102DA000F0BD00BFB49C000850320020503200201B
:102DB0005032002028AD0008FEE700BF704700BF7A
:102DC000704700BF024AD36843F08003D360704766
:102DD000003801400B0712D40E23026B30B4546844
:102DE00015682168406B21F00F012160127C93402F
:102DF0006B60436830BC43F400734360704772B645
:102E0000014B024A9A62FEE718310020909D0008AB
:102E100008B5FFF711FAFFF75FFC00210B4B18789C
:102E2000DA680428116107D102201870116011615D
:102E3000D16821F0FF01D1605B6804485B68984766
:102E4000FFF734FCBDE8084001F0D8BC9810002022
:102E500010B5FFF7F1F9FFF73FFC0B4B0B4A196870
:102E60001268090E01F00E01114206D008480A0648
:102E7000046B5A600CB1406BA047FFF717FCBDE82C
:102E8000104001F0BBBC00BF0000024080000240C7
:102E9000E030002010B5FFF7CFF9FFF71DFC0B4B1A
:102EA0000B4A19681268090D01F00E01114206D093
:102EB00008480A05846A5A600CB1C06AA047FFF747
:102EC000F5FBBDE8104001F099BC00BF00000240D6
:102ED0006C000240E030002010B5FFF7ADF9FFF7BD
:102EE000FBFB0B4B0B4A19681268090C01F00E0131
:102EF000114206D008480A04046A5A600CB1406ABC
:102F0000A047FFF7D3FBBDE8104001F077BC00BF3E
:102F10000000024058000240E030002010B5FFF7EA
:102F20008BF9FFF7D9FB0B4B0B4A19681268090B99
:102F300001F00E01114206D008480A0384695A6064
:102F40000CB1C069A047FFF7B1FBBDE8104001F02C
:102F500055BC00BF0000024044000240E0300020A9
:102F600010B5FFF769F9FFF7B7FB0B4B0B4A196870
:102F70001268090A01F00E01114206D008480A023F
:102F800004695A600CB14069A047FFF78FFBBDE8A8
:102F9000104001F033BC00BF00000240300002408E
:102FA000E030002010B5FFF747F9FFF795FB0B4B1A
:102FB0000B4A19681268090901F00E01114206D086
:102FC00008480A0184685A600CB1C068A047FFF73E
:102FD0006DFBBDE8104001F011BC00BF00000240D5
:102FE0001C000240E030002008B5FFF725F9FFF78C
:102FF00073FB0A4B0A4A1968126801F00E0111426C
:1030000005D0084A596013680BB150689847FFF71C
:103010004DFBBDE8084001F0F1BB00BF00000240DD
:1030200008000240E03000202DE9F0477D4DFFF719
:1030300003F9FFF751FBD5F85462D6F80C903368CA
:10304000DA059CB200F19B80202383F31188FFF7FF
:1030500055F9FFF769FB14F02F0F49D0724F07F1B4
:10306000080808E0A006D6F804A01ED43468A4B26C
:1030700014F02F0F3CD02307F4D014F0080F0CBF2E
:1030800000218021E00748BF41F02001A20748BF8E
:1030900041F04001630748BF41F48071384601F0B8
:1030A00017FCA006D6F804A0E0D5FFF771F96B690C
:1030B00095F8584283B3FFF76BF92B6A6A6A93421B
:1030C00034D06A69591C013204EA0A0A6A61296229
:1030D00083F800A02A6AEB699A4201D3AB692B629C
:1030E000404603F0D3FD3468A4B214F02F0FC2D1D0
:1030F000FFF708FBFFF7F0F8002383F3118819F0BE
:10310000800F01D0220651D4630618D4FFF7CEFAFF
:10311000BDE8F04701F072BB0421384601F0D8FB4E
:10312000FFF736F92B6A6A6A9342CAD16A69002AA4
:10313000C7D04FF48061384601F0CAFB96E72023E0
:1031400083F31188FFF7DAF8FFF7EEFA6A6CAB6CDD
:103150009A424FD04FF6BF736FF0400209EA030363
:10316000F3603260FFF7CEFAFFF7B6F8002383F37F
:103170001188FFF79BFABDE8F04701F03FBB202321
:1031800083F31188FFF7BAF8FFF7CEFA281D4FF442
:10319000007101F09DFB6FF480733360FFF7B2FAAA
:1031A000FFF79AF8002383F311884DE7202383F378
:1031B0001188FFF7A3F8FFF7B7FAFFF7E9F8AB6C50
:1031C0006A6C9A421ED0AA6B286C591C0132AA6301
:1031D000A96481421F7801D3EB6BAB64134803F001
:1031E00055FD7760FFF78EFAFFF776F8002383F33B
:1031F000118889E7AB6B002BACD010210A4801F095
:1032000067FBA7E7AA6B002ADDD00821064801F07A
:103210005FFB4FF63F7309EA030343F04003F3609B
:10322000E0E700BFA8100020AC100020D81000205C
:103230002DE9F0474FF08046FEF7FEFFFFF74CFA0E
:1032400033699B0705D4FFF731FABDE8F04701F079
:10325000D5BA00274FF02008376188F31188314D27
:10326000FFF74CF8FFF760FAFFF792F8FFF790F8D6
:10327000736AE98CEC699BB2581A228980B2904239
:1032800038BF05F11C0627D3B946374605F11C06A1
:1032900023680A44B342EA84D4F80CA05E60EB6170
:1032A000C4F80C9008BFC7F80C90FFF72BFAFFF793
:1032B00013F889F311882069D04788F31188FFF744
:1032C0001DF8FFF731FA7B6AE98CEC699BB2581A5A
:1032D000228980B28242DBD9B44216D00A44D21A83
:1032E00092B2022A2CBF9C189C1CA0B201F076FA64
:1032F0004FF080435A6AE98C92B2631A521A9A428A
:1033000003DD72B6084BAB62FEE7FFF7FBF9FEF791
:10331000E3FF002383F31188FFF7C8F9BDE8F04706
:1033200001F06CBA18310020349D0008F8B53A4C11
:10333000636B5D69FEF780FFFFF7CEF905F45F422E
:10334000D2430E23266B616B77684A613868E26A64
:1033500020F00F003860307C376803FA00F05668C0
:1033600078603068176820F00F003060107CAAB2D7
:1033700083407B6012F480731BBF01200346A3606F
:10338000A060960544BF43F00203A36050050AD530
:10339000486843F0040320F400704860086840F473
:1033A00000700860A360170544BF43F00803A360E2
:1033B000560444BF43F02003A360D0041DD543F05E
:1033C00010032904A36022D4202383F31188FEF77D
:1033D00095FFFFF7A9F96FF001011048FFF74CF9CD
:1033E000FFF790F9FEF778FF002383F31188FFF7CA
:1033F0005DF9BDE8F84001F001BA2A0407D4002BBA
:10340000E2D1FFF753F9BDE8F84001F0F7B943F016
:103410004003A360D8E700BFA8300020C4300020DC
:10342000F8B5424DFEF708FFFFF756F96C6B404ABE
:10343000A369666946EA034323F07F43934250D071
:1034400020D8073A934240D00132934210D16268AB
:10345000EB6A22F400725B6862601A6842F0010253
:103460001A60626842F4805262605B68012B58D92E
:1034700016F00A0F18BFA369FFF718F9BDE8F84066
:1034800001F0BCB92B4A934214D002329342EFD1DF
:10349000EB6A5B685F684FB32A8C236842F00102D5
:1034A00043F4A0632A842360FFF700F9BDE8F840E5
:1034B00001F0A4B963682A6B23F400735268636057
:1034C000136843F001031360D2E72B8C1A0A0BD068
:1034D00003F0010343F0F00302F0060213432361FB
:1034E000C6E72B8CC3F347032361C1E7636820223F
:1034F00023F400736360236843F40073236082F352
:103500001188FEF7FBFEFFF70FF9394605F11C00A5
:10351000FFF7B2F8FFF7F6F8FEF7DEFE87F3118843
:10352000A6E7236823F480632360A1E7A830002086
:103530000800030082000700F8B511F008052BD140
:103540000E22C16A436B4E68044630680F6820F053
:103550000F003060087C202182407A605A6822F493
:1035600080525A601A6822F480621A601A6842F423
:1035700000721A6081F31188FEF7C0FEFFF7D4F8DD
:10358000294604F11C00FFF777F8FFF7BBF8FEF7B8
:10359000A3FE85F31188F8BD72B6024B024A9A6207
:1035A000FEE700BF18310020909D000810B590F88C
:1035B00064300446152B54D8DFE803F04E535353C0
:1035C00053532F53534E4E4E5353535353535353FE
:1035D000230B0B22202380F8642083F31188FEF74D
:1035E0008DFEFFF7A1F8002320461A46194600F089
:1035F00039FBFFF787F8FEF76FFE002383F311888E
:1036000010BDC3689B695B68002B2FD1036F03B1AA
:103610009847002384F8643010BD48F280001449B4
:1036200062680B68126823F4F04323F0400383F0D0
:10363000100303430B600B6823F4904323F07003E3
:1036400083F4805303430B6012B106212046904758
:10365000062384F8643010BD72B6064B064A9A629F
:10366000FEE772B6034B044A9A62FEE710BD00BF44
:10367000005C0040183100204C9D000838B590F8DF
:1036800064300446152B59D8DFE803F053585858D6
:1036900058583458580B1C5D585858585858585852
:1036A000535390F87B1090F87A20C36E42EA0122BF
:1036B0009A4207D9C268128AB3FBF2F502FB1535AC
:1036C000002D47D01422202384F8642083F311882E
:1036D000FEF714FEFFF728F8002320461A46194685
:1036E00000F0ACFBFFF70EF8FEF7F6FD002383F3C6
:1036F000118838BD48F28000224962680B68126860
:1037000023F4F04323F0400383F0100303430B60E2
:103710000B6823F4904323F0700383F48053034336
:103720000B6012B1062120469047062384F86430CE
:1037300038BD72B6144B154A9A62FEE772B6124B48
:10374000124A9A62FEE7036F03B19847002384F898
:10375000643038BD202383F31188FEF7CFFDFEF7D8
:10376000E3FF2B462A462946204600F07BFAFEF767
:10377000C9FFFEF7B1FD85F311880A2384F8643090
:1037800038BD00BF005C004018310020409D00089B
:1037900000214368F0B4DB6880278B420CBF4FF4F4
:1037A0001C464FF41E464025054B064C19655964CE
:1037B000DF641E64C0F88450C460F0BC03F098B9A4
:1037C000005C00406C9D00082DE9F04F85B0FEF7CD
:1037D00033FDFEF781FFC84B5D6C6F0500F14C8136
:1037E0002E0500F12E81EC0408D5C34B9A6C100411
:1037F00040F16D816FF48052BF4B5A64A9050BD51F
:10380000DFF8F8B2DBF80430DB680BB158469847B4
:103810006FF40072B84B5A642A0440F1DF80DFF87D
:10382000DCB2DFF8D4A205F00F05AC0004F180444F
:1038300004F5B844D4F80080AE1C0BEB860318F0F6
:10384000800F5F684CD0D7F814E02268DEF80430AF
:10385000DEF80C1022F47842DEF8000022F0F002CC
:103860000B4442F400422260CEF80430C31A00F048
:10387000CE80388A4FEA051C984228BF1846CEF8F9
:103880000C00DAF85030DEF8082003F1804909F521
:10389000C0495CF809300A4403F10053CC4403F5F5
:1038A0004053CEF808205B00CCF8040060B101382A
:1038B0004008043303EB800000E0043332F8021BBD
:1038C000984243F8041CF8D1236823F4F04323F012
:1038D000400383F0300343F4004343F0800323604C
:1038E00018F4004F75D0236818F4006F23F4784360
:1038F00023F0F00343F08003236040F09880DAF86F
:103900005030D7F8188003F1804303F5C04303EB30
:1039100005139A68DB6802F1005CC3F3090901939F
:10392000D8F808300CF5405CB9F1010F4FEA4C0CA7
:10393000009340F284806246A9F1020103910CF1E8
:10394000040E490802910EEB810E023352F8041B5B
:103950000233080A964503F8041C03F8030CF5D15A
:10396000039B009923F001030233029A1944019B3F
:10397000013200910CEB820C03F001031BB1DCF867
:103980000030009A1370B8F80C007F8AD8F808301D
:10399000D8F80410D8F80020013880B24B444944CC
:1039A000A2EB09024F45A8F80C00C8F80830C8F887
:1039B0000410C8F8002018D8B8B1236823F4904345
:1039C00023F0700383F4405343F4004343F0800337
:1039D0002360DAF844502B043FF525AFFEF766FE6E
:1039E00005B0BDE8F04F00F009BF01220BEB8606E1
:1039F0007168BBF80A30AA40CC6823EA0203ABF82E
:103A00000A30002CE5D029463C48A047E1E70121D7
:103A1000BBF80830A940BA6823EA0103ABF80830C4
:103A2000002A3FF45DAF29463448904758E70BEB36
:103A30008606736829465B6830489847C9E74B4655
:103A40009CE76FF4006405202B4BDFF8B0B01A6CD4
:103A5000DBF8041042F008021A645C649BF8003042
:103A60008BF800008BF880300B68002B3FF4BBAE66
:103A7000584604219847B6E600216FF4806402207E
:103A8000DFF878B05C640A46ABF87C108BF87E10E7
:103A90008BF87F10ABF80810ABF80A100BF10C0391
:103AA0008BF800000BF12C0143F8042B8B42FBD167
:103AB00012488BF86420FFF76BFEDBF804301B68BC
:103AC000002B3FF48DAE00210C48984788E61A6C15
:103AD000DFF828B022F008021A649BF88020DBF897
:103AE00004308BF800201B68002B3FF483AE58464F
:103AF000052198477EE600BF005C00409417002037
:103B0000032AF0B52CD0042A08BF416100250827FC
:103B10002E462B462C46DFF84CE01EF8022011F012
:103B2000800F4FEA03134FEA05154FEA04144FEADA
:103B300006160CBF43F00F03154311F4004F0CBFE2
:103B400044F00F041643013F4FEA4101E7D14268B8
:103B5000144034434460026813402B430360F0BDBB
:103B60000161D3E7589D000890F87630426880F8EC
:103B70007E300649126843F0800310B50446CB64DA
:103B80000AB1012190470323237010BD005C00405F
:103B9000704700BF90F87430024603F06003202B9A
:103BA00001D00020704790F87530212B03D0222BD4
:103BB00009D0202BF5D107200021064BD0661167D4
:103BC000936601207047002301209366D366136734
:103BD000704700BF500800200C3001F02BB900BF27
:103BE0000C304FF6FF7301F025B900BF443001F0EF
:103BF00009B800BF44304FF6FF7301F003B800BFAF
:103C00000C3001F0D5B900BF0C304FF6FF7101F058
:103C1000CFB900BF443001F0BBB800BF44304FF60D
:103C2000FF7201F0B5B800BF0C3000F0F7BE00BF66
:103C30000C304FF6FF7300F0F1BE00BF0C3000F007
:103C400091BF00BF0C304FF6FF7100F08BBF00BF7B
:103C5000303000F08DBE00BF30304FF6FF7200F004
:103C600087BE00BF2DE9F04107460D46164698462F
:103C7000FEF78EFB0FB1072D04D972B6264B274AEB
:103C80009A62FEE701213A89A94089B212EA010E3F
:103C90003DD107EB8503DB680A431C8A586944451C
:103CA00028BF44463A8180E800411D4BC460196D2D
:103CB0002A0101F1804101F5C04153580A4403F142
:103CC000005303F5405386605B00546064B1601E8E
:103CD0004008043303EB800000E0043336F8022B85
:103CE000984243F8042CF8D1AA0002F1804202F570
:103CF000B842136823F4F04323F0400383F0300309
:103D000043F4004343F080031360BDE8F08172B6D2
:103D1000014B024A9A62FEE718310020309E0008EB
:103D2000005C0040F0B500EB81039C6A83B02CB3CB
:103D30000E460546202383F31188FEF7DFFA05EBD4
:103D40008607FEF7F1FC201D082100F0C1FDFB688D
:103D50005B691B68A3B94434204601A900F02CFD1F
:103D6000024648B331462846019BFFF77BFFFEF72A
:103D7000C9FCFEF7B1FA002383F3118803B0F0BD4C
:103D8000FEF706FBA36D626D9A4225D0206E226D70
:103D9000E16D034401328B422265A36501D3A36E1A
:103DA000A3654434204602F071FF204601A900F0CB
:103DB00003FD02460028D5D1FB685A691268002A23
:103DC000D5D01B8A013B1340D1D1314605F1740295
:103DD0002846FFF747FFCAE7226D002AD6D072B601
:103DE000014B024A9A62FEE718310020049E000847
:103DF00010B5446B82B0D4F88C2413681978042968
:103E000001D002B010BD217A0229FAD10121107926
:103E10001A8901FA00F31342F3D101A904F1440015
:103E200000F0CAFC0028ECD0D4F88C340246197992
:103E30001868019BFFF716FFE3E700BF2DE9F0418B
:103E400006460C4690461D46FEF7A2FA0EB1072C18
:103E500004D972B61B4B1C4A9A62FEE7012773898C
:103E600007FA04F189B213EA010223D106EB8400B8
:103E7000C0680B4381697381C1F808800D604A6096
:103E8000EDB1428A6B1E1344B3FBF2F38B81A300A6
:103E900003F1804303F5B8431A6822F4904222F0FC
:103EA000700282F4405242F4004242F080021A60F2
:103EB000BDE8F08172B6034B034A9A62FEE78F8138
:103EC000E5E700BF183100201C9E000870B590F88F
:103ED0006430044613B1002380F86430BD4B04F114
:103EE00074021B6D03F1804303F5C04303EB011320
:103EF0009B6803F1005303F540535B0003F110008E
:103F000053F8041B834222F8021BF9D163689B68B3
:103F100063B32046984748B3E26E94F8743094F83F
:103F20007B0094F87A1041EA002191422CBF11469F
:103F3000E1661A0600F19780002966D10B22202342
:103F400084F8642083F31188FEF7D8F9FEF7ECFBC0
:103F5000002320461A460021FFF784FEFEF7D2FB1D
:103F6000FEF7BAF9002383F3118870BD94F874301A
:103F700013F0600518461ED048F28000954963682A
:103F80000A681D6822F4F04222F0400282F010021A
:103F900002430A600B6823F4904323F0700383F418
:103FA000805303430B6015B106212046A847062322
:103FB00084F8643070BD40F2023194F8756003F00B
:103FC0007F0242EA06228A4200F0248135D8022A82
:103FD00000F00A8140F2C780B2F5817F00F0CC800A
:103FE000B2F5407F00F08580B2F5807FC4D194F8AF
:103FF0007630012BC0D1B4F87C30A56623F00203E3
:10400000E5662567A4F87C3047E01522202384F874
:10401000642083F31188FEF771F9FEF785FB2046D3
:10402000E36EA26E0021FFF709FFFEF76BFBFEF7C0
:1040300053F9002383F3118870BD40F201618A4275
:1040400020D9B2F5106F39D040F602418A4200F013
:10405000B980B2F5006F8FD1012204F17F0125678D
:10406000E266A1665BE7D9B10922202384F86420C7
:1040700083F31188FEF742F9FEF756FBE36EA26E5A
:10408000204668E7B2F5C06F42D2B2F5A06F7FF468
:1040900073AF514BA566E566236703067FF54EAF08
:1040A0001422202384F8642083F31188FEF726F974
:1040B000FEF73AFB002320461A46B3E794F8763021
:1040C00094F87F209A420FD02278042A39D04BB13D
:1040D0000421626884F87F302170136813B10221D3
:1040E0002046984794F874000023A366E36623678C
:1040F000D3E794F87630012B7FF43EAFB4F87C30F0
:10410000A56643F00203E5662567A4F87C30C4E7A2
:1041100094F87910626894F87830566843EA01237D
:1041200094F8762094F877102046B04700283FF4A2
:1041300023AF90E80C002567A366E26694F874301C
:10414000EDE6202383F31188FEF7D8F8FEF7ECFAAA
:10415000FEF71EF92378042B00F0A58072B61F4BE2
:104160001F4A9A62FEE752BB022104F17C002267DB
:10417000E1660A46A066D2E694F87630002B7FF41A
:10418000FBAE94F8782012F00F03ADD09B0003F142
:10419000804303F5B84312F0800F1A6871D102F41E
:1041A0004052B2F5405F9FD01A6822F4F04222F0EC
:1041B000400242F4204242F080021A6094E7012A51
:1041C0007FF4DAAE022200200649E2662067A1668B
:1041D000A5E600BF005C0040693B000818310020E4
:1041E000EC9D00084C9E000894F87810484811F0A7
:1041F000800F01F00F0150F821102BD111F4405124
:104200003FF4BAAEB1F5805F2AD14249E266256734
:10421000A16684E694F87630002B7FF4ADAE94F876
:10422000782012F00F033FF45FAF9B0003F180434F
:1042300003F5B84312F0800F1A6816D122F49042A9
:1042400022F0700282F4805242F4004242F0800276
:104250001A6049E711F030013FF48EAE1029D4D036
:104260002D49E2662567A16659E622F4F04222F064
:10427000400282F0100242F4004242F080021A60D2
:1042800032E702F03002302A3FF42EAF1A6822F4EF
:10429000F04222F0400282F0200242F4004242F05A
:1042A00080021A6020E72289638902F0010203F08C
:1042B00001032281638104F12C0204F1100343F80D
:1042C000045B9A42FBD14023012248F28000C4F8EB
:1042D0008430930003F1804303F5B8431968013239
:1042E0000143082A19601860F3D1FEF70BFAFDF7B5
:1042F000F3FF002383F311880321626884F87F3081
:10430000217013680BB12046984794F87630DEE6AA
:10431000005C0040489E0008449E0008F8B5054631
:104320000F461646FEF734F88DB186B12B78042B74
:1043300004D072B6124B134A9A62FEE705EB87026D
:10434000D4684CB172B60E4B0E4A9A62FEE772B652
:104350000B4B0C4A9A62FEE77369D6601BB11C6076
:104360005C609C60DC60B36923B100221A605A6013
:104370009A60DA6039462846BDE8F84002F0B8BBDA
:1043800018310020D89D0008F8B5D0F88C64376843
:104390003B78042B01D00120F8BD037A022BFAD11F
:1043A000012533797A8905FA03F31342F3D10446E0
:1043B000FDF7EEFFE269236A9A4209D00432EAD09F
:1043C000384671794FF48073FFF738FD0020F8BD4F
:1043D000A369002BDFD1F1E7113138B550F8214046
:1043E000FCB1202383F31188FDF788FFFEF79CF9C9
:1043F000201D042100F06CFAD4F88C241368527943
:1044000003EB8203DB689B695D68FDF7C1FF1DB1AB
:10441000A36A043B9D4205D972B6164B164A9A62AE
:10442000FEE738BDE369226A93421AD01D60A06A94
:10443000A269616A034401328B42A261E36101D344
:10444000236BE36104F10C0002F020FC2046FFF72F
:104450009BFFFEF757F9FDF73FFF002383F3118819
:1044600038BDA269002AE1D072B6024B024A9A62B4
:10447000FEE700BF18310020C49D0008406BFFF725
:1044800083BF00BF10B10C3000F024BE72B6024BE7
:10449000024A9A62FEE700BF18310020FC9700082C
:1044A00010B10C30FEF7C2B972B6024B024A9A62E2
:1044B000FEE700BF18310020EC97000808B5FEF7B2
:1044C0007BF9FDF70FFF084B1A689A4204D09969EF
:1044D00092688968914203D3002383F3118808BD51
:1044E00072B6024A9A62FEE718310020A89D0008C1
:1044F000002A00F081802DE9F04F984683B00446F1
:104500008A469146D0F81CB0202383F31188FDF72A
:10451000FBFEFEF77BF94FF0804300275E6A08F14F
:10452000FF35ABB24644414DB6B20193A268002AB2
:1045300033D06169A268481C013A6061A2609AF8B0
:1045400000200A7022696169914224BFE2686261B9
:10455000BBF1000F01D02046D847FEF72DF9FDF73B
:10456000C1FE2A68AA4204D0A9699268896891426A
:104570003ED3002383F31188B9F1010907F1010744
:104580002BD00AF1010A202282F31188FDF7BCFE2C
:10459000FEF73CF9A268002ACBD14FF6FD72019BD1
:1045A00093421ED84FF08042516A711A89B28845F1
:1045B00027D32046FEF724F80028B7D0FEF7FCF8F2
:1045C000FDF790FE2A68AA4204D0A969926889681A
:1045D000914226D3002383F31188384603B0BDE807
:1045E000F08F41462046FEF70BF800289ED0E5E705
:1045F00072B60F4AAA62FEE772B60C4B0D4A9A6277
:10460000FEE7FEF7D9F8FDF76DFE2A68AA42E1D071
:10461000A969926889689142DCD272B6044AAA629A
:10462000FEE772B6024AAA62FEE700BF1831002018
:104630009C9D0008B49D00083030FFF759BF00BFB3
:1046400030304FF6FF73FFF753BF00BF80B400AFA9
:10465000EFF30983203383F30988002383F3118860
:10466000BD4680BC704700BF70B50D460446FDF7DF
:1046700051FE1DB1E369043B9D4204D972B6114B52
:10468000114A9A62FEE7E368ABB12369A1691D6034
:10469000E268E069013AE260002203448B42236150
:1046A00028BF636AA26228BF2361236B43B12046FF
:1046B000BDE87040184772B6024B034A9A62FEE7A3
:1046C00070BD00BF18310020509F000838B5044667
:1046D0000D46FDF71FFE07E0237A93B929462046D1
:1046E000FDF78EFF00280EDBE368002BF4D0E368B3
:1046F00053B12369E1691A1D0B44A262E3620020F1
:1047000038BD6FF0010038BD72B6024B024A9A62A2
:10471000FEE700BF18310020349F000810B50446A2
:10472000FDF7F8FDE368A3B1E2686369013AE2606E
:104730000022E069A16903448B42636128BF636A78
:10474000A26228BF6361236B43B12046BDE81040DD
:10475000184772B6024B034A9A62FEE710BD00BFCB
:10476000183100200C9F000838B504460D46FDF7AF
:10477000D1FD07E0237A93B929462046FDF740FF93
:1047800000280EDBE368002BF4D0E36853B16369C3
:1047900000201A6804331A44E262A36238BD6FF045
:1047A000010038BD72B6024B024A9A62FEE700BFB2
:1047B00018310020F09E000838B504460D46FDF77C
:1047C000E7FD60692269824203D050F8043B2B6008
:1047D00038BDE268002AF8D0002038BD4FF0804391
:1047E000DA68920701D55863704772B6014B024AE6
:1047F0009A62FEE718310020D49E0008202383F33C
:104800001188114B5B6813F4006302D183F31188A4
:10481000704780B400AFEFF309834FF08071A3F1CC
:10482000200243F8041C82F30988084A116892693F
:104830008968926891428CBF054A064A43F8082C61
:10484000BD4680BC704700BF00ED00E0183100207D
:104850005D02000870020008F8B504460E461746CF
:10486000FDF758FD9CB196B104F1200509E0FDF774
:104870008FFD2369002B10DC39462846FDF7C0FE6A
:1048800050B9237D002BF2D06FF00100F8BD72B655
:104890000D4B0E4A9A62FEE7F8BDE368626819683C
:1048A00004339342E36028BF2368316028BFE3608C
:1048B000236904F11800013B236102F0E7F9FDF7D9
:1048C000C1FD0020F8BD00BF18310020C89E0008BF
:1048D0002DE9F84306460F46FDF75AFD002E3BD062
:1048E0003468A64228D04FF0000802E02468A642AF
:1048F00022D0E3683B43E36017B122691342F5D04D
:104900006568D4F80890FDF743FD05B36B6B95F827
:10491000202049EA03030A2A6B630FD00B2AE5D152
:104920006A6A32EA0303E1D1C5F824802846FDF71C
:104930007BFE2468A642DCD1BDE8F8836A6A134294
:10494000D4D0C5F824802846FDF76EFEF1E772B694
:10495000044B054A9A62FEE772B6024B034A9A621A
:10496000FEE700BF18310020B89E0008949E0008A2
:10497000F8B504460F461646202383F31188FDF749
:10498000C3FCFDF743FF05E031462046FDF738FE46
:10499000051E25DBA368002BF6D06269A368511CB5
:1049A000013B6161A3601770236962699A4224BF69
:1049B000E3686361E3690BB120469847FDF7FCFEAD
:1049C000FDF790FC134B1A689A4204D099699268DB
:1049D000896891421AD3002585F311882846F8BDCD
:1049E000FDF7EAFEFDF77EFC0A4B1A689A4204D0F6
:1049F000996992688968914204D3002383F31188EE
:104A00002846F8BD72B6044A9A62FEE772B6024AB8
:104A10009A62FEE7183100209C9D0008002A00F0F1
:104A200081802DE9F04F984683B004468A4691462E
:104A3000D0F81CB0202383F31188FDF765FCFDF747
:104A4000E5FE4FF0804300275E6A08F1FF35ABB208
:104A50004644414DB6B20193A268002A33D0A16901
:104A6000A268481C013AA061A2600A788AF8002076
:104A70002269A169914224BFE268A261BBF1000FE3
:104A800001D02046D847FDF797FEFDF72BFC2A689A
:104A9000AA4204D0A9699268896891423ED3002352
:104AA00083F31188B9F1010907F101072BD00AF14D
:104AB000010A202282F31188FDF726FCFDF7A6FEED
:104AC000A268002ACBD14FF6FD72019B93421ED8FB
:104AD0004FF08042516A711A89B2884527D3204627
:104AE000FDF78EFD0028B7D0FDF766FEFDF7FAFB57
:104AF0002A68AA4204D0A96992688968914226D39B
:104B0000002383F31188384603B0BDE8F08F414697
:104B10002046FDF775FD00289ED0E5E772B60F4AE6
:104B2000AA62FEE772B60C4B0D4A9A62FEE7FDF7E9
:104B300043FEFDF7D7FB2A68AA42E1D0A969926833
:104B400089689142DCD272B6044AAA62FEE772B664
:104B5000024AAA62FEE700BF183100209C9D0008AF
:104B6000E09E000870B5202304460E4683F31188AA
:104B7000FDF7CAFBFDF74AFE05E031462046FDF78A
:104B80003FFD051E25DBA368002BF6D0A169A368B5
:104B900020694A1C013B8242A36028BFE368A261EE
:104BA0000D7828BFA361E3690BB120469847FDF754
:104BB00003FEFDF797FB114B1A689A4204D09969DE
:104BC00092688968914215D3002383F3118828469F
:104BD00070BDFDF7F1FDFDF785FB084B1A689A42A1
:104BE000F2D09969926889689142EDD272B6044A0E
:104BF0009A62FEE772B6024A9A62FEE71831002016
:104C00009C9D0008002A00F085802DE9F04F994610
:104C100083B006460C469246202383F31188FDF7A5
:104C200073FBFDF7F3FD4FF08043D3F8248009F1C7
:104C3000FF32B06AC84493B20027DFF84CB11FFAC4
:104C400088F8019300284DD0F36AAAEB07051B1AD8
:104C50009D4228BF1D46402D16D9034604F140024F
:104C6000D4F800E06568A068E16810349442C3F8A5
:104C700000E05D609860D96003F11003F0D1B36A81
:104C800040374033B36208E021462A46FBF7A2FFD3
:104C9000B36A2F442B442C44B362F26A9A4204D87C
:104CA000F16930460439FFF7DFFCFDF785FDFDF7BC
:104CB00019FBDBF800305B4505D0DBF818209B685A
:104CC00092689A4221D3002383F31188574537D243
:104CD000202383F31188FDF717FBFDF797FDB06ADA
:104CE0000028B1D14FF6FD72019B93422CD84FF0B2
:104CF0008043596AA8EB010189B2894529D330461E
:104D0000FFF7E4FC58B9B06A9EE772B61D4ACBF8CB
:104D10002820FEE772B61C4B1C4A9A62FEE7FDF79C
:104D20004BFDFDF7DFFADBF800205A4505D0DBF834
:104D300018109268896891421ED3002383F311886A
:104D4000384603B0BDE8F08F49463046FFF7BEFC59
:104D5000D8E7FDF731FDFDF7C5FADBF800205A452D
:104D6000EBD0DBF81810926889689142E5D272B6F0
:104D7000044ACBF82820FEE772B6024ACBF8282076
:104D8000FEE700BF689E000818310020649F0008FD
:104D900070B5202304460E46154683F31188FDF7AF
:104DA000B3FAFDF733FDA36A0BB31E70A36AE26A80
:104DB00001339342A36204D3E16920460439FFF72B
:104DC00053FCFDF7F9FCFDF78DFA184B1A689A426F
:104DD00004D0996992688968914204D3002585F3CB
:104DE0001188284670BD72B6114A9A62FEE72946BC
:104DF0002046FFF76BFC054608B9A36AD5E7FDF727
:104E0000DBFCFDF76FFA094B1A689A4204D09969E6
:104E100092688968914204D3002383F3118828465D
:104E200070BD72B6024A9A62FEE700BF18310020D8
:104E3000689E0008002A00F084802DE9F04F984613
:104E400083B005460F469146202383F31188FDF772
:104E50005BFAFDF7DBFC4FF080435A6AA96A08F160
:104E6000FF33424492B29BB200264FF6FD7A4D4C7E
:104E70000092019300294FD0EB6AA9EB060B5B1A55
:104E80009B4528BF9B46BBF1400F1BD93A460B46BA
:104E90004031D3F800B0D3F804C0D3F808E0D868A4
:104EA00010338B42C2F800B0C2F804C0C2F808E068
:104EB000D06002F11002ECD1AB6A4037403340368B
:104EC000AB6208E038465A46FBF784FEAB6A5E44A4
:104ED0005B445F44AB62EA6A9A4202D82846FFF715
:104EE0001DFCFDF769FCFDF7FDF92368A34204D022
:104EF000A2699B6892689A421FD3002383F31188AA
:104F00004E4532D2202383F31188FDF7FDF9FDF7DA
:104F10007DFCA96A0029AFD1019B534529D84FF0E8
:104F20008043596A009B591A89B2884526D328467E
:104F3000FFF71AFC50B9A96A9EE772B61A4BA36232
:104F4000FEE772B6174B194A9A62FEE7FDF734FC8A
:104F5000FDF7C8F92368A34204D0A2699B68926850
:104F60009A421BD3002383F31188304603B0BDE877
:104F7000F08F41462846FFF7F7FBDBE7FDF71CFC07
:104F8000FDF7B0F92368A342ECD0A2699B68926850
:104F90009A42E7D272B6044BA362FEE772B6024BA6
:104FA000A362FEE718310020689E0008249F0008D5
:104FB00038B504460D46202383F31188FDF7A4F984
:104FC000FDF724FCA36AF3B113F8015BE26AA36264
:104FD000934202D32046FFF7A1FBFDF7EDFBFDF75F
:104FE00081F9154B1A689A4204D0996992688968C8
:104FF000914204D3002383F31188284638BD72B64A
:105000000E4A9A62FEE729462046FFF7ADFB0546A9
:1050100008B9A36AD8E7FDF7CFFBFDF763F9064BA4
:105020001A689A42E6D09969926889689142E1D2F9
:1050300072B6024A9A62FEE718310020689E0008A4
:10504000F8B504460E461546202383F31188FDF774
:105050005BF9FDF7DBFBFDF79BF91EB1701E16EA4D
:10506000000104D072B6174B174A9A62FEE7174F39
:105070007642D7F800E023180EEB050202443340D5
:10508000324078681344834204D89E4502D83B607E
:10509000144600E00C46FDF78FFBFDF723F9094BA2
:1050A0001A689A4204D0996992688968914204D337
:1050B000002383F311882046F8BD72B6044A9A6231
:1050C000FEE700BF18310020749E0008281D002054
:1050D0005C9E00082DE9F843DFF8D490D9F81870E9
:1050E00090B10446202383F31188FDF70DF9FDF7F5
:1050F0008DFBBB6B002B52D09A68974209D072B6D9
:10510000294BC9F82830FEE772B6274BC9F828307A
:10511000FEE79C4204D072B6234BC9F82830FEE764
:10512000E568BD63FDF7F6F82668B44234D0D7F8D9
:105130003C805DB1FDF7EEF82B689D4203D09B6883
:10514000984538BF9846ED68002DF3D1B26B3368AF
:105150003046C7F8088023605C60E260A660B463F4
:10516000FDF762FAFDF76EF9FDF726FBFDF7BAF8D9
:10517000D9F800304B4505D0D9F818209B689268C3
:105180009A4204D3002383F31188BDE8F88372B6F2
:10519000064BC9F82830FEE70023A360E4E772B6A7
:1051A000014BC9F82830FEE7AC9E0008509E00086D
:1051B00018310020704700BF38B50022184B044654
:1051C0000D46FBF781FC22462B4690B92046294626
:1051D000FBF756F80022134BFBF750F800F0F8FDF0
:1051E00000220F4BFBF7FEF900220D4BFBF748F8AE
:1051F00038BD20462946FBF743F802460B460020FF
:105200000849FBF73BF800F0E3FD02460B4600209F
:105210000449FBF733F80022014BFBF7E3F938BDF3
:105220000000E03F0000F03F08B502460B460020BA
:105230000549FBF723F800F0CBFD02460B460020A2
:105240000149FBF71BF808BD0000F03F38B52023EB
:1052500083F31188164CFDF751F8FDF765FAFDF759
:1052600097F8A568002D07DDFDF74CFAFDF734F837
:10527000002383F3118838BDFDF78AF8236835B918
:10528000A34211D072B60B4B0B4A9A62FEE7A342BF
:10529000F8D000211A680135A560184654602260D4
:1052A0005962FDF7C1F9DFE701229A60DCE700BF30
:1052B000501D0020183100202CA0000808B5094B13
:1052C000094A9B69094D0A4C9A61E36883F40053CB
:1052D000E3602B78042B0CBFFA204FF47A70FDF7B3
:1052E00067FCF2E718310020749F00089417002033
:1052F000001001402DE9F04F83464FF000081A4C92
:10530000DFF87490194F1A4E1A4D83B004F5207AC5
:105310004B46F4E80A014246FAF7B2FFFBF73AFCC3
:1053200037F8023F80B2834228BF034636F8020FA7
:10533000984238BF184654454FEA1023E87005F8E4
:10534000043FE5D15846FFF7ABF800224123019214
:1053500000924021074A584601F0ACFF584603B07E
:10536000BDE8F04FFFF78EB8901E0020B62F00204A
:10537000F62F0020303000200000E03F0000000049
:105380002DE980488346B44BB44A9B69C9B09A6101
:10539000202383F31188FCF7B7FFFDF737FA4FF6A8
:1053A000FF7204A9AE48FFF757FAFDF705FAFCF7BC
:1053B00099FFA94BA84A1B68934204D092699B6845
:1053C00092689A4258D3002585F31188049CA378EB
:1053D00022888DF822308DF82350E378ADF8202014
:1053E000012B4ED0022B00F0A180032B00F09F82F6
:1053F000042B00F08082052B00F04082062B00F089
:10540000E681072B00F0BA81082B00F08881F02B91
:1054100000F01381F12B00F0F780F22B00F0E38015
:10542000F32B00F0D3800025F42B61D08D48FDF7DD
:10543000FDF9049B9DF82020D3F8000108A903681A
:1054400001321B6898478748FFF744FE214686488B
:1054500001F0D2FE002D9BD00120FDF7A9FB834B6C
:10546000824A1B6803F4E06343F0BF6343F40033F4
:1054700043F0040313608BE772B67D4B764A936268
:10548000FEE72378042B4DD90426A55D794A05F063
:105490000F0502EB0517A3193846B3F801A0B3F8BE
:1054A000038093F80590FDF7C1F9734B05EB850573
:1054B00003EBC505D5E900235046C5E90423FBF7F6
:1054C0001BF86E4BC5E9060153F8293038466B626C
:1054D000A5F80880FFF7FEFD06362378F6B2B34242
:1054E000D3D803220025E3788DF82020F42B9DD11A
:1054F0002378032B9AD15B488DF82030FDF796F97D
:10550000049B9DF82020D3F8000108A9036801320C
:105510001B6898475348FFF7DDFD2146524801F0CC
:105520006BFE99E703238DF820307FE72378042B67
:10553000F8D90427E55D4F4AE31905F00F0502EBA2
:105540000516B3F803203046B3F90580B3F901A07E
:105550000392FDF76BF9484B05EB850503EBC50599
:10556000A5F822804046A5F820A0FAF7D5FF38A379
:10557000D3E90023FBF736F80022414BFBF75CF937
:1055800001F0B6FF804689465046FAF7C5FF42460D
:105590004B46FBF727F802460B46D5E90001FAF720
:1055A0006DFEBDF80C30C5E904012B81354B30464A
:1055B0006B62FFF78FFD07372378FFB2BB42B9D884
:1055C0000322E37800258DF820208FE702210522B1
:1055D0002D4B8DF825101B788DF820208DF8243068
:1055E000E378002520E70023059306938DF81C300F
:1055F0002278142A4CD0FF2300258DF82330032372
:105600008DF82030E3780FE7F02358468DF81430FA
:10561000FEF746FF102309AA8DE80C005021012354
:1056200005AA584601F046FE5846FEF72BFF132305
:105630008DF82030E3780025F6E60F26134B93E82B
:10564000070009AB83E807008DF82060E378EBE6FC
:10565000182D4454FB2109401831002000A00008F7
:1056600000080020801D0020280800200CED00E02C
:10567000B4A10008901D0020901E0020809F00080B
:1056800000806640B55100085C1D0020E8F7FF1F50
:10569000E11C04F1130011F8012F13448842DBB21E
:1056A000F9D1227D9A42A6D123460025F02253F853
:1056B000041F58465B68CDF81510CDF819308DF8E9
:1056C0001420FEF7EDFE092305AA5021019500954F
:1056D000584601F0EFFD0520FDF76AFA5846FEF73F
:1056E000D1FE2346F82253F80C1F58465B68CDF8CC
:1056F0001510CDF819308DF81420FEF7D1FE0923CE
:1057000005AA502101950095584601F0D3FD0520CA
:10571000FDF74EFA5846FEF7B5FE01256FE72378F0
:10572000042B88BF04267FF6FDAEA55DA64A05F0D2
:105730000F0502EB0518A3194046B3F80170FDF7F9
:1057400075F8A24B5A3F33F81500A14B00EB470008
:1057500005EB850503EBC505FAF7DEFEC5E900019B
:105760004046FFF7B7FC03362378F6B2B342DCD8E5
:105770000322E37800258DF82020B7E62378042B58
:105780007FF6D0AE0426A55D8F4A05F00F0502EB2B
:105790000517A319B3F801803846FDF747F88C4B7D
:1057A00005EB8505404603EBC505FAF7A5FEC5E9FF
:1057B00000013846FFF78EFC03362378F6B2B34279
:1057C000E1D80322E37800258DF820208EE62378A7
:1057D000042B7FF6A7AE4FF0040A14F80A507A4A59
:1057E00004EB0A0305F00F0502EB0517B3F80320DD
:1057F000B3F901603846B3F905800392FDF716F856
:10580000734B05EB8505760003EBC50536B2A5F8AD
:10581000228040462E84FAF77FFE69A3D3E9002355
:10582000FAF7E0FE00226B4BFBF706F801F060FE92
:10583000804689463046FAF76FFE42464B46FAF7F5
:10584000D1FE02460B46D5E90001FAF717FDBDF877
:105850000C30C5E904012B815F4B38466B62FFF7C2
:1058600039FC0AF1070A23785FFA8AFA5345B4D85B
:105870000322E37800258DF8202037E62378042BD7
:105880007FF650AE0426A55D4F4A05F00F0502EBEA
:105890000517A3193846B3F801A0B3F8038093F8AD
:1058A0000590FCF7C3FF494BAAF15A0A33F81500DB
:1058B000474B05EB850503EBC505D5E9002300EB58
:1058C0004A00C5E90423FAF727FE444BC5E906015F
:1058D00053F8293038466B62A5F80880FFF7FAFBC9
:1058E00006362378F6B2B342CDD80322E3780025FA
:1058F0008DF82020FAE53A4A3A4D3B483B4908AB3F
:1059000035F8026F32F8027FDE8031F8026F9F8037
:105910005E81374E30F8027F96421F8103F1080303
:10592000EED183238DF82030E37800257CE52278C2
:10593000042A7FF6F8AD0426059506958DF81C50CF
:10594000A35D721CA15A2B4803F00F0320F813101B
:10595000A119B1F803001D4F4FEAC30E27F8130039
:10596000B1F805702448224420F81370B1F80710EC
:1059700022488DF814E020F8131011685368584637
:10598000CDF81510CDF81930FEF78AFD092305AAC8
:10599000502101950095584601F08CFC0520FDF73B
:1059A00007F95846FEF76EFD09362378F6B2B34282
:1059B000C2D80322E37800258DF8202096E500BFA9
:1059C000182D4454FB210940901D0020D82F0020A1
:1059D000901E002000806640B5510008809F00089E
:1059E000962F0020D62F0020F62F0020B62F002063
:1059F000B62F0020982F0020F82F0020B82F00206D
:105A00002DE9F8430C46036817465B6801220546FA
:105A100098472678012E0AD92B6802225B68611C00
:105A2000284698476378A2781344FF2B01D0BDE83D
:105A3000F883022E42D02B68A6F10208D3F81C90FE
:105A400042461423E11C2846C847C0B28045EED127
:105A5000202383F31188FCF757FCFCF7D7FE0022C4
:105A600028492948FEF7F8FE8046FCF7A5FEFCF71A
:105A700039FC264B1A689A4204D099699268896861
:105A8000914229D3002383F31188B8F1000F27D066
:105A90000323FF223B7063781D487B70A378FA7064
:105AA000BB70FCF7C3FE2B6839461B6828460422EE
:105AB0009847BDE8F8431648FFF70CBB1448FCF7BD
:105AC000B5FE2B6821461B68284603229847BDE88F
:105AD000F8430F48FFF7FEBA72B60E4A9A62FEE725
