:020000040800F2
:1000000000040020610100080930000809300008E0
:1000100009300008093000080930000809300008DC
:10002000093000080930000809300008793B000851
:1000300009300008093000080930000809300008BC
:1000400009300008093000080930000809300008AC
:10005000093000080930000809300008093000089C
:10006000093000080930000809300008514900082B
:100070000D490008C94800088548000841480008A3
:10008000FD470008B947000809300008093000089A
:10009000CD50000809300008093000080930000878
:1000A00009300008794700080930000809300008C5
:1000B000994B00080930000809300008894D0008F4
:1000C000954C000809300008093000080930000884
:1000D000093000089149000809300008093000087B
:1000E000093000080930000809300008093000080C
:1000F00009300008093000080930000809300008FC
:1001000009300008093000080930000809300008EB
:1001100009300008093000080930000809300008DB
:1001200009300008093000080930000809300008CB
:1001300009300008093000080930000809300008BB
:1001400009300008093000080930000809300008AB
:10015000093000080930000809300008093000089B
:1001600072B6274880F30888264880F30988264815
:100170004EF60851CEF200010860022080F3148888
:10018000BFF36F8F02F078FF04F0C4FE4FF05530DC
:100190001E491B4A91423CBF41F8040BFAE71C4937
:1001A000184A91423CBF41F8040BFAE719491A4A30
:1001B0001A4B9A423EBF51F8040B42F8040BF8E781
:1001C00000201749174A91423CBF41F8040BFAE757
:1001D00002F01CFF02F04EFF134C144DAC4203DA48
:1001E00054F8041B8847F9E701F042FA104C114D0E
:1001F000AC4203DA54F8041B8847F9E702F038BF31
:10020000000400200008002000000008000000207A
:100210000004002020A10008000800209810002001
:100220009810002050320020600100086001000892
:1002300060010008600100082DE9F04FC1F80CD002
:10024000C3689D46BDE8F08F02F0AEFB02F0FCF8FB
:10025000002383F311882846A047002002F032FED5
:1002600002F004F902F0CAFB02F054F902F09CFB20
:1002700002F0EAF800DFFEE781F0004102E000BF93
:1002800083F0004330B54FEA41044FEA430594EA56
:10029000050F08BF90EA020F1FBF54EA000C55EA91
:1002A000020C7FEA645C7FEA655C00F0E2804FEA62
:1002B0005454D4EB5555B8BF6D420CDD2C4480EA44
:1002C000020281EA030382EA000083EA010180EA74
:1002D000020281EA0303362D88BF30BD11F0004FC2
:1002E0004FEA01314FF4801C4CEA113102D04042F8
:1002F00061EB410113F0004F4FEA03334CEA133333
:1003000002D0524263EB430394EA050F00F0A7804A
:10031000A4F10104D5F1200E0DDB02FA0EFC22FA45
:1003200005F2801841F1000103FA0EF2801843FA39
:1003300005F359410EE0A5F120050EF1200E012A2A
:1003400003FA0EFC28BF4CF0020C43FA05F3C01868
:1003500051EBE37101F0004507D54FF0000EDCF1E1
:10036000000C7EEB00006EEB0101B1F5801F1BD38A
:10037000B1F5001F0CD349085FEA30004FEA3C0C8E
:1003800004F101044FEA445212F5800F80F09A8084
:10039000BCF1004F08BF5FEA500C50F1000041EB88
:1003A000045141EA050130BD5FEA4C0C404141EB8C
:1003B000010111F4801FA4F10104E9D191F0000FB3
:1003C00004BF01460020B1FA81F308BF2033A3F136
:1003D0000B03B3F120020CDA0C3208DD02F1140C2D
:1003E000C2F10C0201FA0CF021FA02F10CE002F168
:1003F0001402D8BFC2F1200C01FA02F120FA0CFC61
:10040000DCBF41EA0C019040E41AA2BF01EB0451A9
:10041000294330BD6FEA04041F3C1CDA0C340EDCA7
:1004200004F11404C4F1200220FA04F001FA02F3EA
:1004300040EA030021FA04F345EA030130BDC4F1A8
:100440000C04C4F1200220FA02F001FA04F340EA9D
:100450000300294630BD21FA04F0294630BD94F04E
:10046000000F83F4801306BF81F480110134013D35
:100470004EE77FEA645C18BF7FEA655C29D094EAA6
:10048000050F08BF90EA020F05D054EA000C04BF24
:100490001946104630BD91EA030F1EBF002100200F
:1004A00030BD5FEA545C05D14000494128BF41F0AE
:1004B000004130BD14F580043CBF01F5801130BD12
:1004C00001F0004545F0FE4141F470014FF000009D
:1004D00030BD7FEA645C1ABF194610467FEA655C4E
:1004E0001CBF0B46024650EA013406BF52EA0335F0
:1004F00091EA030F41F4002130BD00BF90F0000FDE
:1005000004BF0021704730B54FF4806404F1320419
:100510004FF000054FF0000150E700BF90F0000FD2
:1005200004BF0021704730B54FF4806404F13204F9
:1005300010F0004548BF40424FF000013EE700BFC9
:1005400042004FEAE2014FEA31014FEA02701FBF59
:1005500012F07F4393F07F4F81F06051704792F02B
:10056000000F14BF93F07F4F704730B54FF46074A5
:1005700001F0004521F0004120E700BF50EA0102F0
:1005800008BF704730B54FF000050AE050EA01029D
:1005900008BF704730B511F0004502D5404261EB0D
:1005A00041014FF4806404F132045FEA915C3FF44E
:1005B000DCAE4FF003025FEADC0C18BF03325FEAE7
:1005C000DC0C18BF033202EBDC02C2F1200300FA9C
:1005D00003FC20FA02F001FA03FE40EA0E0021FAC1
:1005E00002F11444C1E600BF70B54FF0FF0C4CF4AB
:1005F000E06C1CEA11541DBF1CEA135594EA0C0F61
:1006000095EA0C0F00F0DEF82C4481EA030621EA9B
:100610004C5123EA4C5350EA013518BF52EA0335D6
:1006200041F4801143F4801338D0A0FB02CE4FF088
:100630000005E1FB02E506F00042E0FB03E54FF0B8
:100640000006E1FB03569CF0000F18BF4EF0010EB0
:10065000A4F1FF04B6F5007F64F5407404D25FEAAC
:100660004E0E6D4146EB060642EAC62141EA55515F
:100670004FEAC52040EA5E504FEACE2EB4F1FD0CA1
:1006800088BFBCF5E06F1ED8BEF1004F08BF5FEA1F
:10069000500E50F1000041EB045170BD06F00046D1
:1006A00046EA010140EA020081EA0301B4EB5C047E
:1006B000C2BFD4EB0C0541EA045170BD41F4801176
:1006C0004FF0000E013C00F3AB8014F1360FDEBF9B
:1006D000002001F0004170BDC4F10004203C35DA77
:1006E0000C341BDC04F11404C4F1200500FA05F3FA
:1006F00020FA04F001FA05F240EA020001F000429B
:1007000021F0004110EBD37021FA04F642EB060110
:100710005EEA430E08BF20EAD37070BDC4F10C043A
:10072000C4F1200500FA04F320FA05F001FA04F2FE
:1007300040EA020001F0004110EBD37041F10001EA
:100740005EEA430E08BF20EAD37070BDC4F12005F5
:1007500000FA05F24EEA020E20FA04F301FA05F25D
:1007600043EA020321FA04F001F0004121FA04F205
:1007700020EA020000EBD3705EEA430E08BF20EAD5
:10078000D37070BD94F0000F0FD101F0004640000F
:1007900041EB010111F4801F08BF013CF7D041EA91
:1007A000060195F0000F18BF704703F00046520095
:1007B00043EB030313F4801F08BF013DF7D043EA66
:1007C0000603704794EA0C0F0CEA135518BF95EA1C
:1007D0000C0F0CD050EA410618BF52EA4306D1D1A3
:1007E00081EA030101F000414FF0000070BD50EAC2
:1007F000410606BF1046194652EA430619D094EA4C
:100800000C0F02D150EA013613D195EA0C0F05D135
:1008100052EA03361CBF104619460AD181EA030189
:1008200001F0004141F0FE4141F470014FF0000041
:1008300070BD41F0FE4141F4780170BD70B54FF0DC
:10084000FF0C4CF4E06C1CEA11541DBF1CEA13555C
:1008500094EA0C0F95EA0C0F00F0A7F8A4EB05043E
:1008600081EA030E52EA03354FEA013100F0888035
:100870004FEA03334FF0805545EA131343EA1263FE
:100880004FEA022245EA111545EA10654FEA0026B3
:100890000EF000419D4208BF964244F1FD0404F56C
:1008A000407402D25B084FEA3202B61A65EB0305C8
:1008B0005B084FEA32024FF480104FF4002CB6EB85
:1008C000020E75EB030E22BFB61A754640EA0C0005
:1008D0005B084FEA3202B6EB020E75EB030E22BF45
:1008E000B61A754640EA5C005B084FEA3202B6EB86
:1008F000020E75EB030E22BFB61A754640EA9C0045
:100900005B084FEA3202B6EB020E75EB030E22BF14
:10091000B61A754640EADC0055EA060E18D04FEAD2
:10092000051545EA16754FEA06164FEAC30343EA72
:1009300052734FEAC2025FEA1C1CC0D111F4801F3F
:100940000BD141EA00014FF000004FF0004CB6E738
:1009500011F4801F04BF01430020B4F1FD0C88BFD7
:10096000BCF5E06F3FF6AFAEB5EB030C04BFB6EBE2
:10097000020C5FEA500C50F1000041EB045170BDD5
:100980000EF0004E4EEA113114EB5C04C2BFD4EB02
:100990000C0541EA045170BD41F480114FF0000E86
:1009A000013C90E645EA060E8DE60CEA135594EA02
:1009B0000C0F08BF95EA0C0F3FF43BAF94EA0C0F05
:1009C0000AD150EA01347FF434AF95EA0C0F7FF47A
:1009D00025AF104619462CE795EA0C0F06D152EACE
:1009E00003353FF4FDAE1046194622E750EA4106B2
:1009F00018BF52EA43067FF4C5AE50EA41047FF4C3
:100A00000DAF52EA43057FF4EBAE12E74FF0FF3C27
:100A100006E000BF4FF0010C02E000BF4FF0010CF8
:100A20004DF804CD4FEA410C7FEA6C5C4FEA430C71
:100A300018BF7FEA6C5C1BD001B050EA410C0CBFC0
:100A400052EA430C91EA030F02BF90EA020F002022
:100A5000704710F1000F91EA030F58BF994208BF89
:100A600090422CBFD8176FEAE37040F00100704746
:100A70004FEA410C7FEA6C5C02D150EA013C07D19D
:100A80004FEA430C7FEA6C5CD6D152EA033CD3D0E8
:100A90005DF8040B704700BF8446104662468C46E2
:100AA0001946634600E000BF01B5FFF7B7FF002815
:100AB00048BF10F1000F01BD4DF808EDFFF7F4FF3E
:100AC0000CBF012000205DF808FB00BF4DF808EDC9
:100AD000FFF7EAFF34BF012000205DF808FB00BFEC
:100AE0004DF808EDFFF7E0FF94BF012000205DF80E
:100AF00008FB00BF4DF808EDFFF7CEFF94BF0120C3
:100B000000205DF808FB00BF4DF808EDFFF7C4FFBB
:100B100034BF012000205DF808FB00BF4FEA410C04
:100B20007FEA6C5C02D150EA013C0AD14FEA430CE7
:100B30007FEA6C5C02D152EA033C02D14FF0000024
:100B400070474FF0010070474FEA410212F5001262
:100B500015D211D56FF47873B3EB625212D94FEA04
:100B6000C12343F0004343EA505311F0004F23FAEE
:100B700002F018BF404270474FF00000704750EA43
:100B8000013005D111F0004008BF6FF00040704700
:100B90004FF00000704700BF4A0011D212F500125A
:100BA00011D20DD56FF47873B3EB62520ED44FEAC5
:100BB000C12343F0004343EA505323FA02F0704745
:100BC0004FF00000704750EA013002D14FF0FF3083
:100BD00070474FF000007047844641EA000313F06D
:100BE000030349D1403A23D30B6803604B68436049
:100BF0008B688360CB68C3600B6903614B69436199
:100C00008B698361CB69C3610B6A03624B6A436280
:100C10008B6A8362CB6AC3620B6B03634B6B436368
:100C20008B6B8363CB6BC36340304031403ADBD284
:100C300030320BD30B6803604B6843608B68836072
:100C4000CB68C36010301031103AF3D20C3205D3A8
:100C500051F8043B40F8043B043AF9D2043208D07E
:100C6000D2071CBF11F8013B00F8013B01D30B88F0
:100C700003806046704700BF082A13D38B07B1D0AA
:100C800010F00303AED0C3F10403D21ADB071CBF7C
:100C900011F8013B00F8013BA4D331F8023B20F8E6
:100CA000023B9FE7043AD9D3013A11F8013B00F81F
:100CB000013BF9D20B7803704B7843708B788370CB
:100CC000604670472DE9F04F0225D5B0DFF860E2AD
:100CD00028AB1DAF02931E460446BEE80F000FC7A7
:100CE000BEE80F000FC79EE8070087E807008C49A1
:100CF00001F11000CB784F788A7843EA056343EA24
:100D00000743043143EA0223884246F8043B01D0FA
:100D10000D78EFE70420834E27AD82072B6919D1A8
:100D20004FEA3363190EDAB2775CB25CC3F3074162
:100D3000C3F3072316F801E042EA076220F003013B
:100D4000F75C54AB194442EA0E4251F8DC3C42EAEB
:100D50000722534055F8042F013053402C282B61B3
:100D6000DBD1102007F0BCFE0546102007F0B8FECE
:100D700080461A90102007F0B3FEF02307461B9020
:100D800054AE204606F8DD3D02F0BAFF102332468D
:100D90005021019320460123009506F0D9F8204602
:100DA00002F0A0FF604B614C93E807004346FC60F3
:100DB00087E80700002B00F04584002D00F04284F6
:100DC00095E80F001DAC84E80F009DF874109DF8A5
:100DD0007B3003919DF88010519D06919DF8811004
:100DE0009DF87A6050989DF875909DF876809DF8F2
:100DF00077C0049308919DF87F30039986EA152601
:100E0000529A81EA10619DF878E09DF879709DF81A
:100E10007C409DF87DB09DF87EA0059389EA10493D
:100E2000539B88EA10288CEA000C9DF882000396F8
:100E3000049E8EEA156E87EA154775409DF883601B
:100E400084EA12640496059E8BEA124B8AEA122AFF
:100E50007240069E5FFA8CFC86EA13660796089E2F
:100E6000FFB286EA13460896049E8DF87C405FFA2E
:100E70008BF480EA1320EDB27340CDF850C00E978A
:100E800004949DF80C705FFA8AF49DF820C01195C7
:100E90000594C5B2DCB28DF874101097E3460F4686
:100EA0002B462146D2B206929DF81C205FFA89F9A2
:100EB0005FFA88F8CDF84890CDF84C808DF878E04E
:100EC0008DF880208DF87A309DF818301DAA8DF8A5
:100ED0007B309DF8383018928DF87D309DF84C307D
:100EE00016468DF87E309DF814209DF810308DF850
:100EF00076208DF881309DF844209DF840308DF8A3
:100F000077208DF882309DF848209DF850308DF87C
:100F100075B08DF879208DF87F108DF883300AE058
:100F2000FC9300080C950008E8F7FF1FDCD7465833
:100F3000D09300083778044BDB5D06F8013B21AB0A
:100F4000B342F7D102E000BF0C940008029A9DF86A
:100F50007710D2F8903003911146D2F89420199668
:100F600016460A46D2F89C20D1F898100B929DF8AC
:100F700083209DF8740004929DF878209DF875A058
:100F800009929DF87C209DF876900C929DF8802027
:100F900080EA13601092039A07919DF879809DF87A
:100FA0007AC09DF87BB09DF87DE09DF87E709DF83D
:100FB0007F509DF881409DF8821011908AEA134A73
:100FC00089EA132908965340079A88EA164887EA5F
:100FD00012278EEA124E55400B9A8BEA060B8CEACA
:100FE000162C164681EA122184EA12445FFA8AFA24
:100FF000049ACDF80CA05FFA83FA5FFA88F3724086
:101000000493089E099B5FFA8CFCCDF814C05FFA2C
:101010008EFE5FFA8BFCCDF818C0CDF820E083EA95
:10102000166C5FFA87FE079E0C9FCDF824E087EAD6
:10103000166ECDF83CE05FFA84FE109F0B9ECDF853
:101040001CE05FFA81FECDF830E05FFA82FEEDB27F
:10105000CDF834E087EA166ECDF838C0CDF82CE034
:101060000A9505F09FF8109005F09CF8054605F0EC
:1010700099F80446DDF80C8065405FFA85FE40462D
:10108000764605F08FF8CDF80C80054605F08AF815
:10109000169005F087F85FFA89F9834688EA090710
:1010A00010988AEA070747404846139505F07AF8F2
:1010B000159005F077F86F40054605F073F8FFB21C
:1010C00087EA0B075FFA87FE804645405046CDF819
:1010D00048E005F067F8074605F064F8149005F05D
:1010E00061F8119B039A159983EA020E109A83EA1C
:1010F000090389EA0E098AEA030C82EA09098AEAE5
:101100000E0A139A84EA0C0C8BEA0A0A84EA09098B
:1011100082EA0C0C81EA0A0A169A88EA090981EA2D
:101120000C0C87EA0A0A149982EA0B0287EA090979
:1011300080EA0A0A129FD2B24140EDB288EA0C0C52
:1011400086EA0A0A82EA0C0C87EA000385EA0A0AA0
:10115000C8B280EA0C0C82EA09095FFA8AFE80EACA
:10116000090973400E98CDF84CE05FFA8CFE6B4095
:10117000CDF848E05FFA89FEDFB2CDF850E005F027
:1011800011F8814605F00EF8054605F00BF8044607
:10119000DDF810B065405FFA85FE5846CDF80CE0EA
:1011A00005F000F8CDF810B0824604F0FBFF159072
:1011B00004F0F8FF059D02998BEA0508A1F1100ED5
:1011C00083462846CDF808E00595CDF8449004F014
:1011D000E9FF179004F0E6FF054604F0E3FF069EE2
:1011E000454086EA080889EA08088AEA08085FFA9A
:1011F00088F88BEA08085FFA88FE81463046CDF809
:1012000040E0069604F0CEFF804604F0CBFF169037
:1012100004F0C8FF0E9E049B059986EA030E81EA3E
:101220000E0C86EA01031199069E81EA0C0C1599B1
:10123000179A734086EA0E0E63408BEA0E0E81EA1F
:101240000B0B10998AEA030382EA0E0E84EA0C045F
:10125000534080EA010C039A88EA0E0E169980EA40
:101260000E0E82EA0E0EEDB25FFA8BFB89EA0404E1
:1012700089EA03034140C9B288EA04048BEA030304
:1012800085EA0E0E82EA0C0C4B408BEA04045FFAEE
:101290008EFE85EA0C0C4C40CDF840E05FFA83FEF0
:1012A0005FFA8CF10F98CDF838E05FFA84FE159163
:1012B000CDF844E004F076FF054604F073FF0446E1
:1012C00004F070FF8346DDF8208084EA0B04E3B26B
:1012D0004046039304F066FFCDF82080824604F078
:1012E00061FF069004F05EFF099C8146204605954B
:1012F000099404F057FF179004F054FF0A9E88EAFF
:10130000040886EA080885EA0808054604F04AFF4A
:101310008AEA08085FFA88F889EA08085FFA88FE0E
:10132000044645403046CDF810E00A9604F03AFFF6
:10133000804604F037FF169004F034FF0F9A0899A6
:10134000164682EA0103099A0A9986EA020E82EA9F
:10135000030C81EA0E0E4B400599069A81EA0C0CAB
:101360008BEA0E0E17998AEA0E0A8BEA0C0B81EAB9
:101370000A0A049E89EA030382EA0909169A4B4085
:1013800084EA0A0A84EA0B0B039C80EA060E88EAC8
:1013900003035FFA89F9424088EA0B0BEDB2434040
:1013A00084EA0E0ED2B289EA0B0B82EA0B0B89EAB1
:1013B0000A09634085EA0E0E82EA09026B405FFA71
:1013C0008EF55FFA8BFEDBB20B98CDF818E05FFA72
:1013D00082FECDF810E00593099504F0E3FE03903A
:1013E00004F0E0FE044604F0DDFE8046DDF81C90CB
:1013F00084EA0804E3B24846089304F0D3FECDF82B
:101400001C90834604F0CEFE0F9004F0CBFE0C9DA2
:101410000D9E039B89EA05048246744028465C4081
:101420000C9504F0BFFE179004F0BCFE814604F05A
:10143000B9FE8BEA0404E4B28AEA04045FFA84FE8B
:10144000054689EA00093046CDF828E00D9604F0FB
:10145000A9FE044604F0A6FE169004F0A3FE0B9E1F
:101460000799179A86EA010C0C995FFA89F986EABE
:10147000010E0D9E8DF8747086EA0C0386EA0E0E3E
:10148000039E81EA0C0C86EA0C0C8AEA030388EAC4
:101490000C0C534085EA0C0C634084EA0C0C169942
:1014A0000A9C88EA0E0E8BEA0E0B434080EA040E7B
:1014B00041400F9E9DF8540082EA0B0B089C86EA7F
:1014C0000A0A8DF878009DF824005FFA8AFA85EA06
:1014D0000B0B029AC9B28AEA0B0B8AEA0C0C84EA5B
:1014E0000E0E63408DF87C0004A881EA0B0B89EA9C
:1014F0000E0E89EA030381EA0C0190428DF880E028
:10150000DBB25FFA8BFBC9B27FF4DCAC1D460C4644
:101510009DF8143039468DF876309DF84430199A8C
:101520008DF877309DF848308DF875B08DF87930AA
:101530009DF818308DF87A508DF87B309DF8383052
:101540008DF87F408DF87D309DF84C308DF87E30E1
:101550009DF810308DF881309DF840308DF8823044
:101560009DF850308DF88330189B00E019783E4884
:10157000415C03F8011B9A42F8D1289A9DF8744007
:101580009DF875009DF876109DF8775084EA1264F6
:1015900080EA124081EA1221299B6A408DF874404A
:1015A0009DF878509DF879408DF875008DF876108B
:1015B0009DF87A009DF87B1085EA136584EA134450
:1015C00080EA132059408DF877202A9B9DF87C20D3
:1015D0008DF878508DF879409DF87D509DF87E40CB
:1015E0008DF87A009DF87F0082EA136284EA132462
:1015F000584085EA13458DF87B102B9B9DF8801091
:101600008DF87C209DF8812081EA136182EA1342E3
:101610008DF87E408DF87F008DF881208DF87D500B
:101620008DF880109DF882109DF8832081EA1321A7
:101630001A9C53408DF883308DF882101DAB0FCB70
:1016400084E80F001B991A98102207F0FBFC28B1C0
:101650000022064B1A7055B0BDE8F08F0122034BF3
:101660001A7055B0BDE8F08F0C940008A03000202F
:1016700000214FF0FF34104B2DE980481D691C619B
:101680001961DD68DC60D960DC690C4D44F0805480
:10169000DC61DC690A4E44F000646960DC61336837
:1016A0008BB043F48073336008460A46054C064FFE
:1016B000064B29600EE000BF00100240F031002010
:1016C000007000400497000808000240DC30002051
:1016D00054F8147C3A6043F830200130072804F1B4
:1016E0001404F5D14FF0FF314FF08833AC4E012098
:1016F00034464FF4807E0025AA4FDFF8D0C27960CF
:10170000DCF81870DFF808B347F07D07CCF81870E4
:10171000A54FACF5843CCCF80C10CCF80430CCF8D8
:101720000030F9607B603B60A04FCCF80C18CCF81F
:101730000478CCF800389E4FDFF8D8C2F9607B609F
:10174000C7F800C0C7F80C14C7F80434C7F8003451
:10175000984F994B9949FB62143B3B63DFF8B8C241
:1017600007F10C03FB603B61954B44F804CB7963B4
:1017700001F5584174607A607A61FA61CBF804200F
:10178000CBF80C1038708BF800003072C6F8543269
:101790008C4B8D495A60187006F5AA73F361F36398
:1017A000B3647364874B06F515747261B262346476
:1017B00006F1300206F10C04F1642C3306F15401F9
:1017C00032637263F6623665C6F838E0F4603461FD
:1017D000B1617162316203F11C0243F8045B9A4209
:1017E0009D61FAD14FF0010A4FF080434BF67F3CE8
:1017F0004FF6FF717548734A724C1581C269658155
:1018000042EA0A02C2617248724C4268A18442F400
:1018100000624260C3F828C0D96204F11C019D61D6
:1018200064605D63A560DD6024615D606461E58482
:10183000E5622563C4F89850C3F814A0E161C3F8C9
:1018400000A06FF07F03644A4FF0805E82F81C3383
:101850004FF000084FF000094FF0FF3304A8216259
:10186000C2F880E1C2F800E0049324600595069573
:101870000795CDE9088900F0EDFD04A800F0BCFD56
:101880004FF0FF30C4F8A800C4F8C00080204FF625
:10189000FF0E0699514BC4F898105149514A1960EE
:1018A00003F10C01D960196122655D604E4A9D60AB
:1018B0005D614E4B206413604D4B606753606069FF
:1018C0004C4B04F13801E064C4F8A050C4F8A450B3
:1018D000C4F8AC50C4F8B050C4F8B450C4E92E8970
:1018E000C4F8C450C4F8C850C4F8CC50C4E9348912
:1018F00084F859502567E56684F85AA0A46401610C
:10190000D8683D4A00EA0E0002430EF1604E616164
:10191000AEF60F3EDA60DEF80C20A16142F0807274
:10192000CEF80C204FF0FF324FF0100C4FF0200E8D
:1019300032480168C4F8802041EA0A01304A016057
:1019400083F81FC004F1600183F822E004F164030E
:101950006366A36604F18000C4F88450C4F888501C
:10196000C4F88C50C4E9248984F858A021666265C3
:1019700000F070FDE36A0BB9236B1BB172B6214B0B
:10198000A362FEE783F3118862B61F4D284601F07B
:1019900041F9002842D072B61C4BA362FEE700BF9B
:1019A000A810002000000240000C01408888388800
:1019B00000140140A4300020649700080054004047
:1019C00000380140941700202D4700080010024005
:1019D000002004E01831002000E100E0301D00206C
:1019E0009946000878970008281D002050320020F2
:1019F0000050002000ED00E00003FA05001000E0B8
:101A000000040020AC970008301C0020409600081D
:101A10009810002044888888D49700082B465521C8
:101A200005F1F80203F8011B9342FBD1202383F355
:101A3000118801234FF000084FF00209029300F0D3
:101A400015FD00F0DBFF00F055FDC348C34ADFF889
:101A500048E3D4F814C0029B6867C148C5F894E015
:101A600002F1240EC5F8ACC0C5F8A840C5F8B00016
:101A7000C5F8A420C5F8788085F8B980C5F8D0806D
:101A8000C5F8CC80C5F8A030C5F8D43085F8BA3098
:101A900085F8B8907046C5F8B450CCF810E0C4F89A
:101AA00014E002F14C0E503200234FF0FF31C5F824
:101AB000C420C5F8C8200022C5F8C0E0C5E93C2311
:101AC000C5F8E010C5F8E480C5F8E880C5F8EC80FA
:101AD00005F0F6F800F078FF07224FF40051A14816
:101AE00003F090FCDFF8B4A211224FF400719E487D
:101AF00003F088FC4A464FF480619B4803F082FC67
:101B0000504611224021994D03F07CFC5046112291
:101B1000802103F077FC50462021072203F072FC5D
:101B20002A4620234FF482719148CAF81030DFF81A
:101B300070C242F8040B8F48029B05F28C4EC5F828
:101B40001880C5F83480C5F83880C5F86C80C5F8B1
:101B50007080C5F83CC005F10C0805F17C0CC5F897
:101B60005CE0686705F5217E05F144002B722B755A
:101B700085F84C30C5F82C902D64C5F85090C5F808
:101B80006490AD676A60C5F80C80C5F81080C5F830
:101B900020C0C5F81CC0C5F830C0C5F824E0C5F8A1
:101BA00058E0C5F854E0C5F868E06864A864A96224
:101BB0002023296683F3118800F058FC00F01EFFF3
:101BC0002B7A013B012B03D972B66B4BA362FEE764
:101BD0006A4A6B4BD562C5F88C349564156385F8F9
:101BE000089000F0E1FE00F02FFC2368A34205D02E
:101BF000A2699B6892689A42C0F0B482002383F382
:101C000011883B785A1E012A05D9052B03D072B6DC
:101C10005C4BA362FEE7202383F3118800F026FCCF
:101C200000F0ECFE97F800A0574BBAF1010F7B6073
:101C3000D7F8348000F013824FF4106E4FF4004C4C
:101C40000022F96A3B6B7868D1F80490D3F804A0BD
:101C500008F110014368C9F80810DFF84891CAF884
:101C6000081003F1FF3AC8F800C0CA45C8F80020C0
:101C7000C8F804E090F808E0796B00F2D1814FF6E3
:101C8000C07AD1F804C0DFF820910CEA0A0CC1F840
:101C900004C0D1F804C04B454CF0180CC1F804C086
:101CA00000F3B181BEF1010F03D072B6374BA362CE
:101CB000FEE7DFF8F8E05A009EFBF2F302FB13E2C6
:101CC000002A40F08A829BB2032B40F269821922DB
:101CD000B3F5805F0A62C3F30B0280F09081CA61A2
:101CE00002780B68022A9BB200F08381032A2CD071
:101CF000012A02D123F00A039BB202220B60D8F81A
:101D0000003043F00103C8F800303A7000F04CFE98
:101D100000F09AFB2368A34204D0A2699B689268F2
:101D20009A4215D3002383F311884FF0200888F3DB
:101D3000118800F09BFB00F061FE337A5A1E012AE5
:101D400036D972B6124BA362FEE743F00A03D4E71A
:101D500072B6104BA362FEE799230008A41C002072
:101D6000B49700080010014000080140041300204F
:101D7000F4970008C5390008C4960008941700209D
:101D8000BC97000858960008A097000874960008B1
:101D9000BC960008589E000849020008000C01404B
:101DA000713B0008FF083D00A086010000366E016F
:101DB000012B0CD1C020C749C74B8A6942F480422D
:101DC0008A6183F82503C3F88481C3F80480D02294
:101DD000D6F854324FF0010C42F22C1E00204FF086
:101DE00040089A60FF210222C3F81080C3F814C093
:101DF000C3F80CE0186018685B6886F858123272F5
:101E000000F0D2FD00F020FB2368A34205D0A269B8
:101E10009B6892689A42C0F0E8804FF0000989F30D
:101E20001188AE4B80201B605B60C3F808908DF872
:101E3000109006F055FE8046A94800F053FE80231E
:101E400004AA019350210123CDF80080A54805F094
:101E50007FF8A34800F0E2FD4B464246DFF8E4E29B
:101E6000A148DFF8E4A2B2F80090B2F802C09F499E
:101E70002EF813C021F81390B2F806C0B2F80490FF
:101E80002AF813C020F813900133102B02F1080236
:101E9000E9D100234046029306F02AFE029BDFF8B8
:101EA000ACA29846DFF8A892914A03928F4A029317
:101EB00032F81300FEF722FB029B039ACAE90001E5
:101EC000CAE90401CAE90601AAF80880AAF80A804A
:101ED000CAF8242001330AF1280A4FF00001B9F1B1
:101EE000000F00F06181102BC9F80090C9F8049030
:101EF000C9F8088009F11009D7D1DFF858927D4A56
:101F00007D48C9F80020C9F80C20C9F80820103213
:101F1000C9F8042009F11802784BC9F81820C9F84B
:101F20001C2009F12002DFF830E2C9F82020C9F8AE
:101F3000242000F1100219755A6089F8141003F179
:101F4000200203F11801CEF800E0CEF804E0CEF84C
:101F500008801860D86098609961D9611A625A62E5
:101F600048466749C3F81080C9F8108004F092FF12
:101F70004846644904F08EFF4846634904F08AFFEE
:101F80004846624904F086FFCDF80080604B852208
:101F9000E821604800F0C6FF00975F4B84224FF4B1
:101FA0003A715E4800F0BEFF00965D4B82224FF40E
:101FB0003A715C4800F0B6FF00975B4B81224FF40A
:101FC0009D615A4800F0AEFF202383F3118800F092
:101FD0004DFA00F013FD9BF800305A1E012A40F222
:101FE000E78072B6524BA362FEE772B6514BA36212
:101FF000FEE723F008039BB243F002037DE672B6CE
:102000004D4BA362FEE7DFF854C163453FF767AE6F
:10201000AEF10202012A07D972B6474BA362FEE76E
:1020200072B6454BA362FEE7BEF1020F00F0AA8034
:10203000192202FB03F2DFF828E19EFBF2F302FB18
:1020400013E2002A40F09A804FF480429BB24FF096
:10205000080E1A4342F40042C1F820E03FE69A23FA
:102060008A210022DFF86C90BB62D9F81030F86A40
:1020700043F400137962C9F810303049C9F81020D0
:1020800004F0A8FE002875D12D49386B04F0A2FE9B
:1020900000286BD150214FF00040D9F81C207B6AFA
:1020A00042F40012C9F81C20BA6A43F4405E0A4B9D
:1020B00042F4405283F81F13C3F88001C7F824E0AC
:1020C0001860BA6283F82013C3F884A1C3F804A08F
:1020D000B2E500BF0010024000E100E0781D0020E2
:1020E000B0300020A4300020F02F0020902F0020DE
:1020F0006D540008681D0020581D002000080020B5
:102100001C18002020190020241A0020281B002061
:10211000D15B000808210020A9630008A82C00203A
:1021200085630008D824002081660008C0270020AD
:102130004C9600080C96000874960008A14E000802
:102140003D470008D02F0020B02F0020881E00201F
:10215000881D0020280800204C1D0020801A060041
:1021600000366E0172B67A4BA362FEE772B6794B07
:10217000A362FEE772B6774BA362FEE772B6764BB8
:10218000A362FEE7DFF80CE203EB43039EFBF3F2EE
:1021900003FB12EEBEF1000F23D193B2724656E755
:1021A00072B66D4BA362FEE772B66C4BA362FEE79C
:1021B0006B4A012BCBF8042017D042F21072DBF8E7
:1021C0000810B1FBF2F3013B9BB203FB02229142E8
:1021D00024D072B6634BA362FEE772B65E4BA36275
:1021E000FEE772B65C4BA362FEE770265E4B4FF0D3
:1021F00000709A6942F400629A61D9685B4A41F4BE
:102200000061D960C3F80C80594B82F81963CBF890
:10221000083041F2BF23C2F880011060002602217D
:10222000DBF80C201660566093621661D6608BF85E
:10223000001001F0FFFD202383F3118800F016F950
:1022400000F0DCFB00F056F99BF80030022B03D0C5
:1022500072B6484BA362FEE7612701200321DBF839
:102260000420DBF80C305268DF628BF800105861F4
:102270005E621E6112B1DA680243DA6085221A607A
:1022800001F0D8FD4FF4FA7000F0EEFD3A48FEF789
:1022900019FD202383F3118800F0E8F800F0AEFB6D
:1022A000364B1A78531E012B03D972B6344BA362F6
:1022B000FEE700231E463349304841602F49194448
:1022C0000433202BCE60F9D1012A1ED14FF48010A7
:1022D0004FF400274FF0D00C4FF0E00E2249CB69AD
:1022E00043F40003CB61214BA1F5DA310A6483F892
:1022F00013C3C3F880711F6083F814E3C3F880012F
:1023000018601E480E6402F0C5FE02231B4A1370BB
:1023100000F04AFB00F098F82368A34204D0A269B9
:102320009B6892689A420FD3002383F31188164B5F
:10233000009583224FF43A71144800F0F3FD4FF4F6
:102340007A7000F091FDFAE772B6114BA362FEE7D6
:1023500018960008D0960008749600083096000879
:1023600090970008649600080010024000E100E029
:10237000006CDC0288960008A4300020941700202E
:10238000E0960008C497000861630008F02100206F
:102390002496000800366E01FEE700BF202383F379
:1023A0001188054A0021D2F8A0300133C2F8A030CC
:1023B00081F31188704700BF183100200D4B70B4B5
:1023C000D0E904455B68C6688B60816842685B1A27
:1023D000E41845F100059342026806F1010688BF42
:1023E00043609342C660C0E9044570BC836038BF57
:1023F00003607047001000E00E4B0F4A5B68816875
:10240000D2F898205B1A9B1AC26830B4D0E9044510
:1024100041680132E418C260026845F100058B4250
:1024200088BF43609342C0E9044530BC836038BF35
:1024300003607047001000E0183100200148FFF7EA
:10244000DBBF00BFD83100200148FFF7D5BF00BF78
:10245000C0310020014B5B6883607047001000E0D2
:102460000148FFF7F7BF00BFD83100200148FFF750
:10247000F1BF00BFC0310020054BDA6A1AB91A6BF0
:10248000002A00DD704772B6024A9A62FEE700BF7A
:10249000183100206C99000870B5FFF7EDFF01229C
:1024A000124CA569236885F820001E6803F14801D5
:1024B000746083F82020D4F8A42005F1480001328C
:1024C0002660A361C4F8A420FFF778FFEFF3098327
:1024D000EA69243B9A4205D82946A069BDE87040C4
:1024E000FDF7AABE72B6024BA362FEE718310020C8
:1024F00074990008054BDA6A002A03DB1A6B002A7C
:1025000000DD704772B6024A9A62FEE71831002079
:1025100064990008012238B5204C2368A569196820
:102520004C6083F820202160A361FFF7E3FF6DB3C7
:1025300095F8203033B30F2B24D00023AA6885F8F8
:10254000203000E009688B689A42FBD34B6805F1A4
:10255000480085E80A001D604D60D4F8A430A169E8
:1025600001334831C4F8A430FFF728FFEFF30983A3
:10257000EA69243B9A420DD82946A069BDE8384053
:10258000FDF75ABE72B6064BA362FEE772B6044B65
:10259000A362FEE772B6034BA362FEE71831002088
:1025A000749800087499000808B5FFF765FFFFF7F5
:1025B000A1FF064B1A689B6992689B689A4200D8F3
:1025C00008BDBDE80840FFF7A5BF00BF18310020D7
:1025D0002DE9F04387B08046FFF74EFF4FF6FF73BB
:1025E000994235D0FFF786FF21B972B6594B5A4A46
:1025F0009A62FEE7574E4FF08040B14659F81C5F93
:10260000426AB3690129554C08BF02214D45059323
:10261000049493B251D0F08C92B21B1A19448CB22C
:10262000131A9C422B895BDA2D68E41A2B89A4B219
:102630009C4201AF06D813E02D68E41A2B89A4B29E
:102640009C420DD9BD42F7D172B6434BB362FEE74F
:10265000FFF722FF3F4EB369586A07B0BDE8F08329
:102660004FF6FF726B68019502931F606F60ADF8C3
:102670000C402B891C1B2C81B2844046FFF70CFFB9
:10268000FFF738FF049B002BE5D0FFF733FFF3691A
:10269000BB422DD00021029A019B1360019B4B4548
:1026A0005A600491D7D01A89BDF80C100A441A81D7
:1026B000B369586A07B0BDE8F083C26801AFF3841C
:1026C00012F002020B449BB201950295ADF80C107A
:1026D000F761376231D1022143630261C160CCE707
:1026E0009C42A5D2204480B201F02AFB2B899FE7AF
:1026F000002301984845F061C0F80490049320D06D
:102700004FF080435A6AF18C0389BDF80C4092B2B5
:10271000511A23449BB289B28B4203819BD95B1A25
:102720009BB2022B2CBFD318931C98B201F008FB6C
:10273000B369586A07B0BDE8F08372B6084BB3625C
:10274000FEE74FF08042D360B369586A07B0BDE836
:10275000F08300BF183100205C9800083D29000874
:102760002499000861B10246074B10B49B69446884
:10277000042083E814002360536010BCFFF728BFD7
:102780004FF0FF30704700BF1831002008B5FFF749
:10279000B1FED0B190F8203001468BB10F2B0FD095
:1027A00000220C4B806881F820201B689A688242C6
:1027B000FBD25A6808460B604A601160596008BD38
:1027C00072B6044B044A9A62FEE772B6014B024AA3
:1027D0009A62FEE71831002050980008F8B5FFF71C
:1027E00089FE002835D004680546A04224D00E4654
:1027F000002702E02468A5421ED0E3683343E3606B
:1028000016B122691342F5D06068A168FFF772FE25
:10281000D0B1436B90F820200B430A2A43630CD0BD
:102820000B2AE7D1426A32EA0303E3D14762FFF79A
:10283000ADFF2468A542E0D1F8BD426A1342D9D069
:102840004762FFF7A3FFF4E772B6044B044A9A62AB
:10285000FEE772B6014B034A9A62FEE71831002088
:10286000D89800088898000803688BB1024693F84E
:102870002000032804D072B6064B074A9A62FEE78E
:1028800010B4002414605962184610BCFFF77EBFD4
:10289000704700BF1831002004990008202383F3FB
:1028A0001188074BDA6A002A01DD196B19B172B67B
:1028B000044A9A62FEE7013ADA6281F311887047AE
:1028C000183100203C990008202383F31188074B1E
:1028D000DA6A002A01DB196B19B172B6044A9A62EE
:1028E000FEE70132DA6281F3118870471831002067
:1028F00034990008064BDA6A002A05DD1A6B002AB3
:1029000002DD00221A63704772B6024A9A62FEE73D
:10291000183100205C990008064BDA6A002A01DDB4
:102920001A6B1AB172B6044A9A62FEE701221A6360
:10293000704700BF183100204C99000808B50146C7
:10294000202383F31188FFF78BFDFFF7E5FF91F854
:102950002030072B10D8DFE803F0150F0F1D0A04F5
:102960000F0A486AFFF7C6FD83680133836091E868
:102970000C001A600A6853604FF0FF3308464B6240
:10298000FFF704FFFFF7B6FFFFF758FD002383F3BF
:10299000118808BD00224B6A08461A604FF0FF33C9
:1029A0004B62FFF7F3FEEDE7054BDA6A22B9196BCC
:1029B000002901DD1A63704772B6024A9A62FEE787
:1029C000183100205499000808B5FFF7EDFFFFF714
:1029D0003BFD084B1A689A4204D09969926889684D
:1029E000914203D3002383F3118808BD72B6024AD3
:1029F0009A62FEE71831002014980008054BDA6A45
:102A00000AB91A6B1AB172B6034A9A62FEE701223A
:102A10001A6370471831002044990008F8B52E4F0A
:102A2000BD6988B10146202383F31188FFF71EFD9D
:102A3000FFF7E4FFAB6B002B49D09A68954207D0B3
:102A400072B6264BBB62FEE772B6244BBB62FEE752
:102A5000994203D072B6214BBB62FEE7C868A863F7
:102A6000FFF70AFD0C68A1422ED0EE6B58B1FFF7BC
:102A700003FD0368984203D09B689E4238BF1E4600
:102A8000C0680028F3D1A26B23682046AE600B60BB
:102A900059608C60CA60A163FFF778FEFFF784FD80
:102AA000FFF782FFFFF7D0FC3B68BB4204D0BA6956
:102AB0009B6892689A4203D3002383F31188F8BD80
:102AC00072B6074BBB62FEE700238B60E8E772B685
:102AD000024BBB62FEE700BF18310020B898000827
:102AE00020980008F8B50546202383F31188464E48
:102AF000FFF7BCFCFFF782FFB469FFF7BDFC45B3ED
:102B0000A868002830D0A26883689A4208D990F853
:102B100020308260062B5ED0072B48D0002B3BD0A4
:102B20002B4603E09968A268914202D31B689D423C
:102B3000F8D15A6806202360626014605C606562A8
:102B4000FFF7AAFCAB689C4207D072B62F4BB3626A
:102B5000FEE772B62D4BB362FEE7A36B9D4207D032
:102B600072B62A4BB362FEE7A36BAC60EB60A56361
:102B7000FFF71AFFFFF768FC3368B34204D0B2696D
:102B80009B6892689A4203D3002383F31188F8BDAF
:102B900072B61F4BB362FEE7012190E80C0080F88B
:102BA00020101A6002685360FFF7F0FDB8E790E864
:102BB0000A00196001684B60416A0B4602E09F6899
:102BC000974202D31B689942F9D15A680360426068
:102BD00010605860A4E790E80A00196001684B6033
:102BE000416A0B4602E09F68974202D31B689942F4
:102BF000F9D15A6803604260106058608868A26822
:102C000083689A4283D88BE71831002068980008BF
:102C1000209800082DE9F84F8146202383F311887E
:102C2000894CFFF723FCFFF7E9FE256995F8223070
:102C3000013385F82230FFF7B7FEFFF705FC236864
:102C4000A34204D0A2699B6892689A424CD30027A1
:102C500087F311884FF02008EB69994500F09880C0
:102C600088F31188FFF702FCFFF7C8FE2E69A64221
:102C700000F08C8096F82230FF2B00F08380013327
:102C800086F82230FFF790FEFFF7DEFB2368A342B1
:102C900004D0A2699B6892689A4229D387F311886D
:102CA00088F31188FFF7E2FBFFF7A8FE95F82230C2
:102CB000002B75D0013B85F822302B6A03F0FF13FF
:102CC0000F2B19D0FFF770FEFFF7BEFB2368A3425E
:102CD00004D0A2699B6892689A425DD387F31188F9
:102CE0003546002EB8D154E072B6584BA362FEE7C9
:102CF00072B6564BA362FEE76B692A691A612A69AC
:102D00005361FFF751FEFFF79FFB2368A34204D0F6
:102D1000A2699B6892689A4246D387F3118895F816
:102D2000213003F00303012B24D0022BD8D1296CCE
:102D3000ED6988F31188FFF799FBFFF75FFEFFF756
:102D4000D9FB99B195B10B682B600D60FFF72CFE94
:102D5000FFF77AFB2368A342C0D0A2699B68926800
:102D60009A42BBD272B63A4BA362FEE772B6394BB7
:102D7000A362FEE7ED690DB16B0719D072B6364B51
:102D8000A362FEE772B6354BA362FEE7002679E741
:102D90002E463046BDE8F88F72B6314BA362FEE78F
:102DA00072B6304BA362FEE772B62D4BA362FEE70C
:102DB00015E90C000733DB0802F10C0A02F1040BE1
:102DC000504645F8043CFFF78DFE5946A5F1080032
:102DD000884205D34B68013301EBC30398422ED3DD
:102DE0008B450B6801D0884202D91BB1984201D3B0
:102DF0001946EDE745F8083C086015E90C00013379
:102E000000EBC30E964508D1DEF804201A4445F8BD
:102E1000042C50F8333045F8083C4A68531C01EB49
:102E2000C303984207D155F8043C013313444B6067
:102E300055F8083C0B605046FFF7F0FD50E772B6BE
:102E4000054BA362FEE700BF18310020449800083C
:102E50002C980008A0980008AC9800081499000865
:102E600014980008E898000808B50146202383F369
:102E70001188FFF7FBFAFFF7C1FD99B10820FFF7B2
:102E8000A7FBFFF791FDFFF7DFFA0B4B1A689A4299
:102E900004D0996992688968914208D3002383F32A
:102EA000118808BD72B6044B044A9A62FEE772B6F6
:102EB000034A9A62FEE700BF1831002038980008E4
:102EC0001498000808B50146202383F31188FFF702
:102ED000CDFAFFF793FD114DAC69A06A04F1280605
:102EE0008642616206D00268A262FFF74FFCA06AC8
:102EF000B042F8D194F8223043B994F821309B07BE
:102F000004D1226963691A61226953610F20FFF7B6
:102F1000C3FA72B6024BAB62FEE700BF1831002065
:102F2000F89800082DE9F041069E90B1E72910D9E4
:102F30004C070ED1FF2A0CD85BB1054698461746C0
:102F40000C46FFF767FE48B172B62B4B2B4A9A62CC
:102F5000FEE772B6284B294A9A62FEE72A19954283
:102F600005D22B46552103F8011B9A42FBD12023A1
:102F700083F31188FFF77AFAFFF740FD0120002163
:102F80004FF0020C4FF0FF3E00220023603C2C4427
:102F900044F8206CE561A4F12406174DE660184E54
:102FA000256144F8046C84F82200164E686944F8E0
:102FB000248C6061A76084F820C0A66184F8211089
:102FC000A1636163E76304F12806046104F12C0046
:102FD000E16421656165C4F848E0C4E91623E06254
:102FE0002063A66220466C6103F06AFEFFF7ECFCEA
:102FF0002046BDE8F08100BF18310020C4980008C9
:103000004902000884990008FEE700BFF0B50026D9
:10301000124F134D134C144B144907F1700E9C4280
:1030200011D91A46043951F8040F42F8040B94429E
:10303000F9D8DA43144424F00304043423449D42B1
:1030400003D943F8046B9D42FBD8774504D007F1C0
:1030500010013AC91037E2E7F0BD00BF8C990008B3
:10306000503200205032002050320020B8A9000811
:10307000FEE700BF704700BF704700BF90F8763092
:10308000426880F87E300649126843F0800310B52C
:103090000446CB640AB1012190470323237010BD7D
:1030A000005C0040704700BF90F87430024603F0A7
:1030B0006003202B01D00020704790F87530212B41
:1030C00003D0222B09D0202BF5D107200021064B5D
:1030D000D066116793660120704700230120936634
:1030E000D3661367704700BF500800202DE9F041F8
:1030F00006460C4690461D46FFF7FCF90EB1072C1C
:1031000004D972B61B4B1C4A9A62FEE701277389E9
:1031100007FA04F189B213EA010223D106EB840015
:10312000C0680B4381697381C1F808800D604A60F3
:10313000EDB1428A6B1E1344B3FBF2F38B81A30003
:1031400003F1804303F5B8431A6822F4904222F059
:10315000700282F4405242F4004242F080021A604F
:10316000BDE8F08172B6034B034A9A62FEE78F8195
:10317000E5E700BF18310020649A00080C3001F028
:1031800085B900BF0C304FF6FF7301F07FB900BF67
:10319000443001F063B800BF44304FF6FF7301F0D4
:1031A0005DB800BF0C3001F02FBA00BF0C304FF6F5
:1031B000FF7101F029BA00BF443001F015B900BF1A
:1031C00044304FF6FF7201F00FB900BF0C3000F031
:1031D0004BBF00BF303000F047BE00BF0C3000F0E6
:1031E000EDBF00BF0C304FF6FF7100F0E7BF00BF2E
:1031F000303000F0E3BE00BF30304FF6FF7200F019
:10320000DDBE00BF2DE9F04107460D461646984643
:10321000FFF770F90FB1072D04D972B6264B274A74
:103220009A62FEE701213A89A94089B212EA010EA9
:103230003DD107EB8503DB680A431C8A5869444586
:1032400028BF44463A8180E800411D4BC460196D97
:103250002A0101F1804101F5C04153580A4403F1AC
:10326000005303F5405386605B00546064B1601EF8
:103270004008043303EB800000E0043336F8022BEF
:10328000984243F8042CF8D1AA0002F1804202F5DA
:10329000B842136823F4F04323F0400383F0300373
:1032A00043F4004343F080031360BDE8F08172B63D
:1032B000014B024A9A62FEE718310020789A000812
:1032C000005C004010B590F864300446152B54D8CB
:1032D000DFE803F04E53535353532F53534E4E4E88
:1032E0005353535353535353230B0B22202380F830
:1032F000642083F31188FFF7B3F8FFF70DFB002379
:1033000020461A461946FFF77DFFFFF7F3FAFFF74D
:1033100095F8002383F3118810BDC3689B695B682F
:10332000002B2FD1036F03B19847002384F864303A
:1033300010BD48F28000144962680B68126823F4DB
:10334000F04323F0400383F0100303430B600B684A
:1033500023F4904323F0700383F4805303430B6002
:1033600012B1062120469047062384F8643010BD30
:1033700072B6064B064A9A62FEE772B6034B044ADF
:103380009A62FEE710BD00BF005C004018310020CB
:10339000989A000838B590F864300446152B59D82F
:1033A000DFE803F05358585858583458580B1C5DF0
:1033B0005858585858585858535390F87B1090F80C
:1033C0007A20C36E42EA01229A4207D9C268128A61
:1033D000B3FBF2F502FB1535002D47D01422202354
:1033E00084F8642083F31188FFF73AF8FFF794FA22
:1033F000002320461A461946FFF778FEFFF77AFAAF
:10340000FFF71CF8002383F3118838BD48F28000D1
:10341000224962680B68126823F4F04323F04003EA
:1034200083F0100303430B600B6823F4904323F0F5
:10343000700383F4805303430B6012B106212046CE
:103440009047062384F8643038BD72B6144B154A91
:103450009A62FEE772B6124B124A9A62FEE7036F57
:1034600003B19847002384F8643038BD202383F3E8
:103470001188FEF7F5FFFFF74FFA2B462A4629463B
:103480002046FFF7BFFEFFF735FAFEF7D7FF85F3BB
:1034900011880A2384F8643038BD00BF005C004006
:1034A000183100208C9A000870B590F864300446FA
:1034B00013B1002380F86430BD4B04F174021B6D1E
:1034C00003F1804303F5C04303EB01139B6803F151
:1034D000005303F540535B0003F1100053F8041B45
:1034E000834222F8021BF9D163689B6863B32046CC
:1034F000984748B3E26E94F8743094F87B0094F8DF
:103500007A1041EA002191422CBF1146E1661A0669
:1035100000F19780002966D10B22202384F86420D3
:1035200083F31188FEF79CFFFFF7F6F9002320468E
:103530001A460021FFF766FEFFF7DCF9FEF77EFF73
:10354000002383F3118870BD94F8743013F0600584
:1035500018461ED048F28000954963680A681D68C5
:1035600022F4F04222F0400282F0100202430A608C
:103570000B6823F4904323F0700383F480530343D8
:103580000B6015B106212046A847062384F8643055
:1035900070BD40F2023194F8756003F07F0242EA98
:1035A00006228A4200F0248135D8022A00F00A81DE
:1035B00040F2C780B2F5817F00F0CC80B2F5407F49
:1035C00000F08580B2F5807FC4D194F87630012B6D
:1035D000C0D1B4F87C30A56623F00203E566256708
:1035E000A4F87C3047E01522202384F8642083F37C
:1035F0001188FEF735FFFFF78FF92046E36EA26EC4
:103600000021FFF773FDFFF775F9FEF717FF0023A1
:1036100083F3118870BD40F201618A4220D9B2F56E
:10362000106F39D040F602418A4200F0B980B2F5FD
:10363000006F8FD1012204F17F012567E266A16648
:103640005BE7D9B10922202384F8642083F3118831
:10365000FEF706FFFFF760F9E36EA26E204668E70B
:10366000B2F5C06F42D2B2F5A06F7FF473AF514B89
:10367000A566E566236703067FF54EAF1422202377
:1036800084F8642083F31188FEF7EAFEFFF744F91B
:10369000002320461A46B3E794F8763094F87F204A
:1036A0009A420FD02278042A39D04BB104216268A3
:1036B00084F87F302170136813B1022120469847A7
:1036C00094F874000023A366E3662367D3E794F8B5
:1036D0007630012B7FF43EAFB4F87C30A56643F022
:1036E0000203E5662567A4F87C30C4E794F87910F6
:1036F000626894F87830566843EA012394F876209B
:1037000094F877102046B04700283FF423AF90E8A4
:103710000C002567A366E26694F87430EDE620237A
:1037200083F31188FEF79CFEFFF7F6F8FEF7E2FE42
:103730002378042B00F0A58072B61F4B1F4A9A62B3
:10374000FEE752BB022104F17C002267E1660A46D3
:10375000A066D2E694F87630002B7FF4FBAE94F8A6
:10376000782012F00F03ADD09B0003F1804303F5E6
:10377000B84312F0800F1A6871D102F44052B2F5CA
:10378000405F9FD01A6822F4F04222F0400242F4D7
:10379000204242F080021A6094E7012A7FF4DAAEF8
:1037A000022200200649E2662067A166A5E600BF66
:1037B000005C00407D30000818310020349A000879
:1037C000AC9A000894F87810484811F0800F01F086
:1037D0000F0150F821102BD111F440513FF4BAAE33
:1037E000B1F5805F2AD14249E2662567A16684E689
:1037F00094F87630002B7FF4ADAE94F8782012F078
:103800000F033FF45FAF9B0003F1804303F5B84320
:1038100012F0800F1A6816D122F4904222F0700242
:1038200082F4805242F4004242F080021A6049E77A
:1038300011F030013FF48EAE1029D4D02D49E2664C
:103840002567A16659E622F4F04222F0400282F098
:10385000100242F4004242F080021A6032E702F0A5
:103860003002302A3FF42EAF1A6822F4F04222F0E0
:10387000400282F0200242F4004242F080021A60CC
:1038800020E72289638902F0010203F0010322810B
:10389000638104F12C0204F1100343F8045B9A42A3
:1038A000FBD14023012248F28000C4F88430930009
:1038B00003F1804303F5B843196801320143082A34
:1038C00019601860F3D1FFF715F8FEF7B7FD002374
:1038D00083F311880321626884F87F3021701368B4
:1038E0000BB12046984794F87630DEE6005C004045
:1038F000A89A0008A49A0008F0B500EB81039C6A1E
:1039000083B02CB30E460546202383F31188FEF7BF
:10391000A7FD05EB8607FEF7FFFF201D0821FEF738
:103920005DFFFB685B691B68A3B94434204601A9AD
:1039300000F0F4F9024648B331462846019BFFF7F0
:1039400061FCFEF7D7FFFEF779FD002383F31188B2
:1039500003B0F0BDFEF7CEFDA36D626D9A4225D097
:10396000206E226DE16D034401328B422265A36516
:1039700001D3A36EA3654434204603F0E5F9204645
:1039800001A900F0CBF902460028D5D1FB685A699D
:103990001268002AD5D01B8A013B1340D1D1314691
:1039A00005F174022846FFF72DFCCAE7226D002AB4
:1039B000D6D072B6014B024A9A62FEE71831002057
:1039C0004C9A000810B5446B82B0D4F88C2413686C
:1039D0001978042901D002B010BD217A0229FAD148
:1039E000012110791A8901FA00F31342F3D101A9D8
:1039F00004F1440000F092F90028ECD0D4F88C34A3
:103A0000024619791868019BFFF7FCFBE3E700BF4A
:103A1000F8B505460F461646FEF76CFD8DB186B12A
:103A20002B78042B04D072B6124B134A9A62FEE72D
:103A300005EB8702D4684CB172B60E4B0E4A9A62FF
:103A4000FEE772B60B4B0C4A9A62FEE77369D660CA
:103A50001BB11C605C609C60DC60B36923B1002218
:103A60001A605A609A60DA6039462846BDE8F84024
:103A700001F086BA18310020209A0008F8B5D0F875
:103A80008C6437683B78042B01D00120F8BD037AA1
:103A9000022BFAD1012533797A8905FA03F313420F
:103AA000F3D10446FEF726FDE269236A9A4209D063
:103AB0000432EAD0384671794FF48073FFF716FB71
:103AC0000020F8BDA369002BDFD1F1E7113138B533
:103AD00050F82140FCB1202383F31188FEF7C0FC8D
:103AE000FEF71AFF201D0421FEF778FED4F88C247F
:103AF0001368527903EB8203DB689B695D68FEF70C
:103B0000F9FC1DB1A36A043B9D4205D972B6164B60
:103B1000164A9A62FEE738BDE369226A93421AD0D8
:103B20001D60A06AA269616A034401328B42A261EE
:103B3000E36101D3236BE36104F10C0003F004F9AA
:103B40002046FFF79BFFFEF7D5FEFEF777FC00232C
:103B500083F3118838BDA269002AE1D072B6024B06
:103B6000024A9A62FEE700BF183100200C9A000852
:103B7000406BFFF783BF00BF80B400AFEFF3098352
:103B8000203383F30988002383F31188BD4680BC6A
:103B9000704700BF70B50D460446FEF76DFC1DB1C1
:103BA000E369043B9D4204D972B6114B114A9A62F3
:103BB000FEE7E368ABB12369A1691D60E268E069D3
:103BC000013AE260002203448B42236128BF636A0A
:103BD000A26228BF2361236B43B12046BDE8704039
:103BE000184772B6024B034A9A62FEE770BD00BFE7
:103BF00018310020989B000838B504460D46FEF7A2
:103C00003BFC07E0237A93B929462046FEF7AAFD3C
:103C100000280EDBE368002BF4D0E36853B123697E
:103C2000E1691A1D0B44A262E362002038BD6FF007
:103C3000010038BD72B6024B024A9A62FEE700BF2D
:103C4000183100207C9B000810B50446FEF714FCD8
:103C5000E368A3B1E2686369013AE2600022E069C7
:103C6000A16903448B42636128BF636AA26228BFD3
:103C70006361236B43B12046BDE81040184772B61C
:103C8000024B034A9A62FEE710BD00BF18310020C4
:103C9000549B000838B504460D46FEF7EDFB07E0DF
:103CA000237A93B929462046FEF75CFD00280EDBF7
:103CB000E368002BF4D0E36853B1636900201A680D
:103CC00004331A44E262A36238BD6FF0010038BDCC
:103CD00072B6024B024A9A62FEE700BF183100201A
:103CE000389B000810B10C30FEF798BE72B6024B3C
:103CF000024A9A62FEE700BF18310020AC96000825
:103D000010B10C30FEF7EEBE72B6024B024A9A6258
:103D1000FEE700BF183100209C96000838B5044625
:103D20000D46FEF7E7FB60692269824203D050F836
:103D3000043B2B6038BDE268002AF8D0002038BD73
:103D40004FF08043DA68920701D55863704772B626
:103D5000014B024A9A62FEE7183100200C9B0008D2
:103D6000202383F31188114B5B6813F4006302D1A5
:103D700083F31188704780B400AFEFF309834FF0ED
:103D80008071A3F1200243F8041C82F30988084AD9
:103D9000116892698968926891428CBF054A064A07
:103DA00043F8082CBD4680BC704700BF00ED00E022
:103DB000183100206102000874020008F8B50446BA
:103DC0000E461746FEF758FB9CB196B104F120054C
:103DD00009E0FEF78FFB2369002B10DC39462846EB
:103DE000FEF7C0FC50B9237D002BF2D06FF001002C
:103DF000F8BD72B60D4B0E4A9A62FEE7F8BDE36855
:103E00006268196804339342E36028BF2368316015
:103E100028BFE360236904F11800013B236102F02D
:103E200093FFFEF7C1FB0020F8BD00BF1831002052
:103E3000009B000808B5FEF7B7FDFEF705FB084B31
:103E40001A689A4204D0996992688968914203D3AA
:103E5000002383F3118808BD72B6024A9A62FEE716
:103E600018310020C89A0008002A00F081802DE94E
:103E7000F04F984683B004468A469146D0F81CB06D
:103E8000202383F31188FEF7F1FAFEF7B7FD4FF018
:103E9000804300275E6A08F1FF35ABB24644414DCE
:103EA000B6B20193A268002A33D06169A268481CA7
:103EB000013A6061A2609AF800200A702269616983
:103EC000914224BFE2686261BBF1000F01D020463D
:103ED000D847FEF769FDFEF7B7FA2A68AA4204D070
:103EE000A9699268896891423ED3002383F31188BF
:103EF000B9F1010907F101072BD00AF1010A2022CB
:103F000082F31188FEF7B2FAFEF778FDA268002A64
:103F1000CBD14FF6FD72019B93421ED84FF08042E9
:103F2000516A711A89B2884527D32046FEF71AFCD8
:103F30000028B7D0FEF738FDFEF786FA2A68AA42B5
:103F400004D0A96992688968914226D3002383F33B
:103F50001188384603B0BDE8F08F41462046FEF791
:103F600001FC00289ED0E5E772B60F4AAA62FEE780
:103F700072B60C4B0D4A9A62FEE7FEF715FDFEF78E
:103F800063FA2A68AA42E1D0A969926889689142D5
:103F9000DCD272B6044AAA62FEE772B6024AAA628C
:103FA000FEE700BF18310020BC9A0008289B0008DB
:103FB00030304FF6FF73FFF757BF00BFF8B5044628
:103FC0000F461646202383F31188FEF74FFAFEF7BB
:103FD00015FD05E031462046FEF7C4FB051E25DB36
:103FE000A368002BF6D06269A368511C013B616194
:103FF000A3601770236962699A4224BFE368636112
:10400000E3690BB120469847FEF7CEFCFEF71CFA99
:10401000134B1A689A4204D0996992688968914250
:104020001AD3002585F311882846F8BDFEF7BCFC9D
:10403000FEF70AFA0A4B1A689A4204D09969926804
:104040008968914204D3002383F311882846F8BD80
:1040500072B6044A9A62FEE772B6024A9A62FEE7B4
:1040600018310020BC9A0008002A00F081802DE958
:10407000F04F984683B004468A469146D0F81CB06B
:10408000202383F31188FEF7F1F9FEF7B7FC4FF018
:10409000804300275E6A08F1FF35ABB24644414DCC
:1040A000B6B20193A268002A33D0A169A268481C65
:1040B000013AA061A2600A788AF800202269A16909
:1040C000914224BFE268A261BBF1000F01D02046FB
:1040D000D847FEF769FCFEF7B7F92A68AA4204D070
:1040E000A9699268896891423ED3002383F31188BD
:1040F000B9F1010907F101072BD00AF1010A2022C9
:1041000082F31188FEF7B2F9FEF778FCA268002A64
:10411000CBD14FF6FD72019B93421ED84FF08042E7
:10412000516A711A89B2884527D32046FEF71AFBD7
:104130000028B7D0FEF738FCFEF786F92A68AA42B5
:1041400004D0A96992688968914226D3002383F339
:104150001188384603B0BDE8F08F41462046FEF78F
:1041600001FB00289ED0E5E772B60F4AAA62FEE77F
:1041700072B60C4B0D4A9A62FEE7FEF715FCFEF78D
:1041800063F92A68AA42E1D0A969926889689142D4
:10419000DCD272B6044AAA62FEE772B6024AAA628A
:1041A000FEE700BF18310020BC9A0008189B0008E9
:1041B0000C304FF6FF73FFF757BF00BF70B52023D9
:1041C00004460E4683F31188FEF750F9FEF716FCFD
:1041D00005E031462046FEF7C5FA051E25DBA3683B
:1041E000002BF6D0A169A36820694A1C013B8242DA
:1041F000A36028BFE368A2610D7828BFA361E369CB
:104200000BB120469847FEF7CFFBFEF71DF9114B87
:104210001A689A4204D0996992688968914215D3C4
:10422000002383F31188284670BDFEF7BDFBFEF71F
:104230000BF9084B1A689A42F2D09969926889681A
:104240009142EDD272B6044A9A62FEE772B6024A11
:104250009A62FEE718310020BC9A0008002A00F09C
:1042600085802DE9F04F994683B006460C4692466C
:10427000202383F31188FEF7F9F8FEF7BFFB4FF018
:104280008043D3F8248009F1FF32B06AC84493B266
:104290000027DFF84CB11FFA88F8019300284DD0B1
:1042A000F36AAAEB07051B1A9D4228BF1D46402D45
:1042B00016D9034604F14002D4F800E06568A0680E
:1042C000E16810349442C3F800E05D609860D96002
:1042D00003F11003F0D1B36A40374033B36208E012
:1042E00021462A46FCF778FCB36A2F442B442C4421
:1042F000B362F26A9A4204D8F16930460439FFF792
:1043000049FCFEF751FBFEF79FF8DBF800305B45F8
:1043100005D0DBF818209B6892689A4221D30023CD
:1043200083F31188574537D2202383F31188FEF792
:104330009DF8FEF763FBB06A0028B1D14FF6FD721D
:10434000019B93422CD84FF08043596AA8EB01019E
:1043500089B2894529D33046FFF74EFC58B9B06A77
:104360009EE772B61D4ACBF82820FEE772B61C4BBA
:104370001C4A9A62FEE7FEF717FBFEF765F8DBF8CA
:1043800000205A4505D0DBF81810926889689142E0
:104390001ED3002383F31188384603B0BDE8F08FA5
:1043A00049463046FFF728FCD8E7FEF7FDFAFEF74E
:1043B0004BF8DBF800205A45EBD0DBF81810926878
:1043C00089689142E5D272B6044ACBF82820FEE70C
:1043D00072B6024ACBF82820FEE700BFD49A000844
:1043E00018310020AC9B000870B5202304460E460F
:1043F000154683F31188FEF739F8FEF7FFFAA36A32
:104400000BB31E70A36AE26A01339342A36204D322
:10441000E16920460439FFF7BDFBFEF7C5FAFEF758
:1044200013F8184B1A689A4204D0996992688968FF
:10443000914204D3002585F31188284670BD72B6D9
:10444000114A9A62FEE729462046FFF7D5FB05464A
:1044500008B9A36AD5E7FEF7A7FAFDF7F5FF094B00
:104460001A689A4204D0996992688968914204D383
:10447000002383F31188284670BD72B6024A9A62FF
:10448000FEE700BF18310020D49A0008002A00F08F
:1044900084802DE9F04F984683B005460F4691463B
:1044A000202383F31188FDF7E1FFFEF7A7FA4FF011
:1044B00080435A6AA96A08F1FF33424492B29BB220
:1044C00000264FF6FD7A4D4C0092019300294FD003
:1044D000EB6AA9EB060B5B1A9B4528BF9B46BBF119
:1044E000400F1BD93A460B464031D3F800B0D3F801
:1044F00004C0D3F808E0D86810338B42C2F800B08B
:10450000C2F804C0C2F808E0D06002F11002ECD199
:10451000AB6A403740334036AB6208E038465A4613
:10452000FCF75AFBAB6A5E445B445F44AB62EA6AE9
:104530009A4202D82846FFF787FBFEF735FAFDF7C7
:1045400083FF2368A34204D0A2699B6892689A42C1
:104550001FD3002383F311884E4532D2202383F3E7
:104560001188FDF783FFFEF749FAA96A0029AFD148
:10457000019B534529D84FF08043596A009B591A33
:1045800089B2884526D32846FFF784FB50B9A96A2B
:104590009EE772B61A4BA362FEE772B6174B194A32
:1045A0009A62FEE7FEF700FAFDF74EFF2368A3428A
:1045B00004D0A2699B6892689A421BD3002383F3BC
:1045C0001188304603B0BDE8F08F41462846FFF71A
:1045D00061FBDBE7FEF7E8F9FDF736FF2368A3424E
:1045E000ECD0A2699B6892689A42E7D272B6044BFB
:1045F000A362FEE772B6024BA362FEE71831002009
:10460000D49A00086C9B000838B504460D46202358
:1046100083F31188FDF72AFFFEF7F0F9A36AF3B1DF
:1046200013F8015BE26AA362934202D32046FFF7CC
:104630000BFBFEF7B9F9FDF707FF154B1A689A4215
:1046400004D0996992688968914204D3002383F366
:104650001188284638BD72B60E4A9A62FEE729468E
:104660002046FFF717FB054608B9A36AD8E7FEF70F
:104670009BF9FDF7E9FE064B1A689A42E6D0996964
:10468000926889689142E1D272B6024A9A62FEE764
:1046900018310020D49A0008F8B504460E46154695
:1046A000202383F31188FDF7E1FEFEF7A7F9FDF75C
:1046B00021FF1EB1701E16EA000104D072B6174B1E
:1046C000174A9A62FEE7174F7642D7F800E02318A0
:1046D0000EEB0502024433403240786813448342B3
:1046E00004D89E4502D83B60144600E00C46FEF715
:1046F0005BF9FDF7A9FE094B1A689A4204D0996943
:1047000092688968914204D3002383F3118820467C
:10471000F8BD72B6044A9A62FEE700BF1831002065
:10472000E09A0008281D0020B09A0008024AD368C9
:1047300043F08003D3607047003801400B0712D468
:104740000E23026B30B4546815682168406B21F069
:104750000F012160127C93406B60436830BC43F4CE
:1047600000734360704772B6014B024A9A62FEE7DB
:1047700018310020289C000808B5FDF70FFEFEF751
:10478000A3F800210B4B1878DA680428116107D1CF
:104790000220187011601161D16821F0FF01D16011
:1047A0005B6804485B689847FEF778F8BDE8084006
:1047B000FFF7D6BA9810002010B5FDF7EFFDFEF711
:1047C00083F80B4B0B4A19681268090E01F00E01B1
:1047D000114206D008480A06046B5A600CB1406BBF
:1047E000A047FEF75BF8BDE81040FFF7B9BA00BF7D
:1047F0000000024080000240DC30002010B5FDF7D0
:10480000CDFDFEF761F80B4B0B4A19681268090DD4
:1048100001F00E01114206D008480A05846A5A6068
:104820000CB1C06AA047FEF739F8BDE81040FFF7A9
:1048300097BA00BF000002406C000240DC3000204C
:1048400010B5FDF7ABFDFEF73FF80B4B0B4A1968AF
:104850001268090C01F00E01114206D008480A0442
:10486000046A5A600CB1406AA047FEF717F8BDE829
:104870001040FFF775BA00BF000002405800024028
:10488000DC30002010B5FDF789FDFEF71DF80B4B5D
:104890000B4A19681268090B01F00E01114206D08B
:1048A00008480A0384695A600CB1C069A047FDF743
:1048B000F5FFBDE81040FFF753BA00BF000002400B
:1048C00044000240DC30002010B5FDF767FDFDF725
:1048D000FBFF0B4B0B4A19681268090A01F00E0125
:1048E000114206D008480A0204695A600CB14069B6
:1048F000A047FDF7D3FFBDE81040FFF731BA00BF76
:104900000000024030000240DC30002010B5FDF70E
:1049100045FDFDF7D9FF0B4B0B4A196812680909D1
:1049200001F00E01114206D008480A0184685A605D
:104930000CB1C068A047FDF7B1FFBDE81040FFF71C
:104940000FBA00BF000002401C000240DC30002013
:1049500008B5FDF723FDFDF7B7FF0A4B0A4A1968B2
:10496000126801F00E01114205D0084A596013681F
:104970000BB150689847FDF791FFBDE80840FFF77D
:10498000EFB900BF0000024008000240DC30002008
:104990002DE9F0477D4DFDF701FDFDF795FFD5F8B9
:1049A0005462D6F80C903368DA059CB200F1978017
:1049B000202383F31188FDF753FDFDF7ADFF14F0BD
:1049C0002F0F4AD0724F07F1080808E0A006D6F86A
:1049D00004A01ED43468A4B214F02F0F3DD02307D6
:1049E000F4D014F0080F0CBF00218021E00748BF6D
:1049F00041F02001A20748BF41F04001630748BFD2
:104A000041F480713846FDF7E9FEA006D6F804A00F
:104A1000E0D5FDF76FFD6B6995F85842002B33D058
:104A2000FDF768FD2B6A6A6A934237D06A69591CA0
:104A3000013204EA0A0A6A61296283F800A02A6A3C
:104A4000EB699A4201D3AB692B62404602F07CF9D4
:104A50003468A4B214F02F0FC1D1FDF74BFFFDF75E
:104A6000EDFC002383F3118819F0800F01D022069A
:104A70004CD419F0400F01D0630618D4FDF70EFF97
:104A8000BDE8F047FFF76CB904213846FDF7A6FEF4
:104A9000FDF730FD2B6A6A6A9342C7D16A69002A22
:104AA000C4D04FF480613846FDF798FE92E720238A
:104AB00083F31188FDF7D4FCFDF72EFF6A6CAB6C15
:104AC0009A4247D0FDF716FFFDF7B8FC002383F3A9
:104AD0001188FDF7E3FEBDE8F047FFF741B9202359
:104AE00083F31188FDF7BCFCFDF716FF281D4FF47A
:104AF0000071FDF773FE6FF480733360FDF7FAFE0B
:104B0000FDF79CFC002383F3118851E7202383F3F6
:104B10001188FDF7A5FCFDF7FFFEFDF7EBFCAB6C84
:104B20006A6C9A4223D0AA6B286C591C0132AA6382
:104B3000A96481421F7801D3EB6BAB64154802F086
:104B400003F97760FDF7D6FEFDF778FC002383F3C9
:104B500011888EE7AB6B002BB4D010210C48FDF709
:104B60003DFE4FF6BF7309EA0303F360AAE7AA6BA1
:104B7000002AD8D008210648FDF730FE4FF63F73D3
:104B800009EA030343F04003F360DBE7A8100020C9
:104B9000AC100020D81000202DE9F0474FF08046DF
:104BA000FDF7FCFBFDF790FE33699B0705D4FDF78D
:104BB00075FEBDE8F047FFF7D3B800274FF0200897
:104BC000376188F31188314DFDF74AFCFDF7A4FEEB
:104BD000FDF790FCFDF78EFC736AE98CEC699BB2E3
:104BE000581A228980B2904238BF05F11C0627D39B
:104BF000B946374605F11C0623680A44B342EA84E5
:104C0000D4F80CA05E60EB61C4F80C9008BFC7F844
:104C10000C90FDF76FFEFDF711FC89F311882069F8
:104C2000D04788F31188FDF71BFCFDF775FE7B6A02
:104C3000E98CEC699BB2581A228980B28242DBD996
:104C4000B44216D00A44D21A92B2022A2CBF9C183F
:104C50009C1CA0B2FFF774F84FF080435A6AE98CAD
:104C600092B2631A521A9A4203DD72B6084BAB62D3
:104C7000FEE7FDF73FFEFDF7E1FB002383F311881C
:104C8000FDF70CFEBDE8F047FFF76AB818310020C9
:104C9000BC9B0008F8B53A4C636B5D69FDF77EFB81
:104CA000FDF712FE05F45F42D2430E23266B616BC3
:104CB00077684A613868E26A20F00F003860307C1B
:104CC000376803FA00F0566878603068176820F09B
:104CD0000F003060107CAAB283407B6012F48073B6
:104CE0001BBF01200346A360A060960544BF43F0AC
:104CF0000203A36050050AD5486843F0040320F47A
:104D000000704860086840F400700860A3601705F0
:104D100044BF43F00803A360560444BF43F020039C
:104D2000A360D0041DD543F010032904A36022D44E
:104D3000202383F31188FDF793FBFDF7EDFD6FF062
:104D400001011048FDF790FDFDF7D4FDFDF776FB5E
:104D5000002383F31188FDF7A1FDBDE8F840FEF7BD
:104D6000FFBF2A0407D4002BE2D1FDF797FDBDE871
:104D7000F840FEF7F5BF43F04003A360D8E700BF5B
:104D8000A4300020C0300020F8B5424DFDF706FBEE
:104D9000FDF79AFD6C6B404AA369666946EA0343D6
:104DA00023F07F43934250D020D8073A934240D01B
:104DB0000132934210D16268EB6A22F400725B68A0
:104DC00062601A6842F001021A60626842F480521E
:104DD00062605B68012B58D916F00A0F18BFA369EF
:104DE000FDF75CFDBDE8F840FEF7BABF2B4A9342E1
:104DF00014D002329342EFD1EB6A5B685F684FB325
:104E00002A8C236842F0010243F4A0632A842360C1
:104E1000FDF744FDBDE8F840FEF7A2BF63682A6BCA
:104E200023F4007352686360136843F00103136056
:104E3000D2E72B8C1A0A0BD003F0010343F0F003E6
:104E400002F0060213432361C6E72B8CC3F347032A
:104E50002361C1E76368202223F400736360236841
:104E600043F40073236082F31188FDF7F9FAFDF72C
:104E700053FD394605F11C00FDF7F6FCFDF73AFD40
:104E8000FDF7DCFA87F31188A6E7236823F4806333
:104E90002360A1E7A430002008000300820007007F
:104EA000F8B511F008052BD10E22C16A436B4E688C
:104EB000044630680F6820F00F003060087C202125
:104EC00082407A605A6822F480525A601A6822F44A
:104ED00080621A601A6842F400721A6081F31188C5
:104EE000FDF7BEFAFDF718FD294604F11C00FDF799
:104EF000BBFCFDF7FFFCFDF7A1FA85F31188F8BDB7
:104F000072B6024B024A9A62FEE700BF18310020D7
:104F1000289C0008174B19461A6842F001021A60D3
:104F20000B689A07FCD500200B68124A03F0F903BE
:104F30000B604860536813F00C0FFBD153680D49A8
:104F400043F420135360136843F0807313600B68BD
:104F50009B01FCD51122084B084848601A604B6839
:104F6000044A43F002034B60536803F00C03082B20
:104F7000FAD170470010024000200240006468002F
:104F800000EB8103F0B5DE68336803F00303022B06
:104F900074D0032B6FD0012B54D04FF40072384CD7
:104FA0007369246D0F0104F1804404F5C0443D1978
:104FB0009BB14FF0000E338AC5F804E0D0F884E0CE
:104FC000013323F001037344B3F5007FC0F884304C
:104FD0003DD847F804E042F02002B369D3B1748AA7
:104FE0003E2C3ED9661E46F01F060136254B761133
:104FF00043EA86239BB2EB60631CD0F8844023F025
:1050000001032344B3F5007FC0F8843024D8AC609A
:1050100042F4005248F2800047F6700542EA01036C
:1050200023F47843890023F0F00301F1804101F576
:10503000B84103430B600C6802EA05036340034375
:105040000B60F0BD72B6104B104A9A62FEE772B662
:105050000D4B0F4A9A62FEE772B60B4B0C4A9A62EE
:10506000FEE7631E43F00103013303EBD3735B02DE
:1050700003F47C43BFE74FF4C06290E700228EE761
:10508000005C00400080FFFF18310020D89B000822
:10509000C89B000800214368F0B4DB6880278B427E
:1050A0000CBF4FF41C464FF41E464025054B064CE2
:1050B00019655964DF641E64C0F88450C460F0BC94
:1050C000FFF75EBF005C0040049C00082DE9F04F34
:1050D00085B0FDF763F9FDF7F7FBC84B5D6C6F0515
:1050E00000F14C812E0500F12E81EC0408D5C34B54
:1050F0009A6C100440F16D816FF48052BF4B5A647A
:10510000A9050BD5DFF8F8B2DBF80430DB680BB18A
:10511000584698476FF40072B84B5A642A0440F11D
:10512000DF80DFF8DCB2DFF8D4A205F00F05AC00B9
:1051300004F1804404F5B844D4F80080AE1C0BEBB5
:10514000860318F0800F5F684CD0D7F814E022680F
:10515000DEF80430DEF80C1022F47842DEF80000AD
:1051600022F0F0020B4442F400422260CEF80430F8
:10517000C31A00F0CE80388A4FEA051C984228BF37
:105180001846CEF80C00DAF85030DEF8082003F1AB
:10519000804909F5C0495CF809300A4403F100531D
:1051A000CC4403F54053CEF808205B00CCF8040053
:1051B00060B101384008043303EB800000E00433A1
:1051C00032F8021B984243F8041CF8D1236823F4F8
:1051D000F04323F0400383F0300343F4004343F0F3
:1051E0008003236018F4004F75D0236818F4006F13
:1051F00023F4784323F0F00343F08003236040F06E
:105200009880DAF85030D7F8188003F1804303F51E
:10521000C04303EB05139A68DB6802F1005CC3F33B
:1052200009090193D8F808300CF5405CB9F1010F79
:105230004FEA4C0C009340F284806246A9F10201CF
:1052400003910CF1040E490802910EEB810E02331A
:1052500052F8041B0233080A964503F8041C03F8AD
:10526000030CF5D1039B009923F001030233029A4A
:105270001944019B013200910CEB820C03F00103F5
:105280001BB1DCF80030009A1370B8F80C007F8A6C
:10529000D8F80830D8F80410D8F80020013880B2C7
:1052A0004B444944A2EB09024F45A8F80C00C8F84A
:1052B0000830C8F80410C8F8002018D8B8B123681E
:1052C00023F4904323F0700383F4405343F40043EA
:1052D00043F080032360DAF844502B043FF525AFF8
:1052E000FDF7DCFA05B0BDE8F04FFEF739BD01224D
:1052F0000BEB86067168BBF80A30AA40CC6823EA3B
:105300000203ABF80A30002CE5D029463C48A04700
:10531000E1E70121BBF80830A940BA6823EA01039C
:10532000ABF80830002A3FF45DAF29463448904777
:1053300058E70BEB8606736829465B683048984748
:10534000C9E74B469CE76FF4006405202B4BDFF860
:10535000B0B01A6CDBF8041042F008021A645C6406
:105360009BF800308BF800008BF880300B68002B26
:105370003FF4BBAE584604219847B6E600216FF4CF
:1053800080640220DFF878B05C640A46ABF87C10D9
:105390008BF87E108BF87F10ABF80810ABF80A1072
:1053A0000BF10C038BF800000BF12C0143F8042BDC
:1053B0008B42FBD112488BF86420FFF76BFEDBF8C1
:1053C00004301B68002B3FF48DAE00210C48984739
:1053D00088E61A6CDFF828B022F008021A649BF8FD
:1053E0008020DBF804308BF800201B68002B3FF492
:1053F00083AE5846052198477EE600BF005C00401A
:1054000094170020032AF0B52CD0042A08BF41616C
:10541000002508272E462B462C46DFF84CE01EF8C8
:10542000022011F0800F4FEA03134FEA05154FEAEF
:1054300004144FEA06160CBF43F00F03154311F492
:10544000004F0CBF44F00F041643013F4FEA4101E7
:10545000E7D14268144034434460026813402B4350
:105460000360F0BD0161D3E7F09B0008704700BF07
:10547000704700BF00000000F8B545A3D3E9002342
:1054800004460D46FBF722FB002850D142A3D3E986
:10549000002320462946FBF719FB40BB40A3D3E974
:1054A000002320462946FBF711FB00284ED13EA3DE
:1054B000D3E9002320462946FBF796F822462B46DF
:1054C000FBF792F83AA3D3E9002306460F4620469D
:1054D0002946FBF789F802460B4630463946FAF76B
:1054E000CFFE35A3D3E90023FAF7CCFEF8BD34A3F1
:1054F000D3E9002320462946FBF776F822462B46BF
:10550000FBF772F830A3D3E9002306460F46204686
:105510002946FBF769F802460B4630463946FAF74A
:10552000AFFE2BA3D3E90023FAF7ACFEF8BD0022AF
:105530002F4B20462946FBF757F822462B46FBF710
:1055400053F800222B4BFBF74FF8F8BD22A3D3E909
:10555000002320462946FBF747F822462B46FBF757
:1055600043F81FA3D3E9002306460F4620462946E9
:10557000FBF73AF802460B4630463946FAF780FE0A
:1055800019A3D3E90023FAF77DFEF8BDAFF300803D
:1055900046175D74D145D73F46175D74D145E73F47
:1055A000CDCCCCCCCCCCEC3F9A999999999925400B
:1055B00085EB51B81E853440713D0AD7A370254054
:1055C0006666666666262240CDCCCCCCCCCC234029
:1055D0003333333333330B40A7F48FED09222840A4
:1055E000A4A76A50ADA2334044EFCDA4CECB214056
:1055F00000405E400000B03F38B50022184B044622
:105600000D46FBF763FA22462B4690B92046294601
:10561000FAF738FE0022134BFAF732FEFFF72CFFA1
:1056200000220F4BFAF7E0FF00220D4BFAF72AFE9B
:1056300038BD20462946FAF725FE02460B460020D3
:105640000849FAF71DFEFFF717FF02460B46002038
:105650000449FAF715FE0022014BFAF7C5FF38BDE1
:105660000000E03F0000F03F08B502460B46002076
:105670000549FAF705FEFFF7FFFE02460B4600203C
:105680000149FAF7FDFD08BD0000F03F38B50022E2
:105690001B4B04460D46FBF719FAF0B92046294684
:1056A0000022184BFAF7ECFD04460D460022164B7B
:1056B000FAF79AFF22462B46FAF796FF22462B4628
:1056C000FAF792FF22462B46FAF78EFF02460B4668
:1056D00000200C49FAF7D4FD38BD00220A4B2046C1
:1056E0002946FAF781FF22462B46FAF77DFF22462C
:1056F0002B46FAF779FF22462B46FAF775FF38BD9D
:105700000000E03F0000F03F00002040F8B500221C
:10571000104B06460F46FAF7B3FD04460D46024607
:105720000B46FAF761FF22462B46FAF75DFF324639
:1057300004460D463B4600200649FAF7A1FD024605
:105740000B4620462946FAF74FFF0022014BFAF795
:1057500099FDF8BD0000F03F38B504460D460246FD
:105760000B46FAF741FF22462B46FAF73DFF224649
:105770002B46FAF739FF38BD38B50022194B0446DD
:105780000D46FBF7A3F9E8B922462B4620462946E9
:10579000FAF778FD00224FF08043FAF771FD0446D6
:1057A0000D4600220F4BFAF71FFF22462B46FAF751
:1057B0001BFF22462B46FAF717FF00220A4BFAF787
:1057C00061FD38BD0022094B20462946FAF70CFF3F
:1057D00022462B46FAF708FF22462B46FAF704FF2B
:1057E00038BD00BF0000E03F0000F03F0000104067
:1057F00038B50022084BFAF743FD04460D46024631
:105800000B46FAF7F1FE22462B46FAF7EDFE002290
:10581000014BFAF737FD38BD0000F03F38B50446BC
:105820000D4602460B46FAF7DFFE22462B46FAF7F4
:10583000DBFE38BDF8B50022174B04460D46FBF7DA
:1058400045F9E8B900224FF0404320462946FAF7CF
:10585000CBFE22462B46FAF7C7FE002206460F462D
:105860000E4B20462946FAF7BFFE02460B4630464D
:105870003946FAF707FD0022094BFAF701FDF8BD9A
:1058800022462B4620462946FAF7FCFC22462B46A8
:10589000FAF7AAFEF8BD00BF0000E03F000010408C
:1058A0000000F03F38B504460D4622462B46002046
:1058B0004FF08041FAF7E4FC22462B46FAF794FEBB
:1058C00038BD00BF08B502460B46FAF78DFE08BD8D
:1058D000022906D0032906D00129064818BF002056
:1058E000704705487047032A9ABF044800EBC2007E
:1058F000002070471C9D0008D09C0008A49D000853
:105900002DE9F04F83464FF000081A4CDFF87490F1
:10591000194F1A4E1A4D83B004F5207A4B46F4E81D
:105920000A014246FAF7AEFCFBF736F937F8023FB8
:1059300080B2834228BF034636F8020F984238BF30
:10594000184654454FEA1023E87005F8043FE5D1A6
:105950005846FEF7D5F900224123019200924021DA
:10596000074A584601F0F4FA584603B0BDE8F04F34
:10597000FEF7B8B9881E0020AE2F0020EE2F0020C1
:10598000283000200000E03F2DE9F84300223E4B84
:1059900004460D46FBF79AF822462B46002840D1D4
:1059A00020462946FAF76EFC0022384BFAF768FCCD
:1059B00002460B4600203549FAF762FC30A3D3E9D2
:1059C000002304460D46FAF70FFE01F0DFFB2246E6
:1059D000804689462B4620462946FAF705FE224690
:1059E0002B46FAF701FE424606460F464B46204636
:1059F0002946FAF7F9FD02460B4630463946FAF7D2
:105A00003FFC02460B4600202049FAF739FC0022F1
:105A10001D4BFAF7E9FD00221B4BFAF733FCBDE8FA
:105A2000F88320462946FAF72DFC15A3D3E9002375
:105A300004460D46FAF7D8FD01F0A8FB2246804641
:105A400089462B4620462946FAF7CEFD22462B46AC
:105A5000FAF7CAFD424606460F464B4620462946FF
:105A6000FAF7C2FD02460B4630463946FAF708FC03
:105A70000022054BFAF7B8FDBDE8F883AFF30080CC
:105A8000182D4454FB2109400000E03F0000F03F86
:105A90002DE9F84302460B4600201949FAF7F0FBBE
:105AA00015A3D3E9002304460D46FAF79DFD01F046
:105AB0006DFB2246804689462B4620462946FAF74A
:105AC00093FD22462B46FAF78FFD424606460F46C7
:105AD0004B4620462946FAF787FD02460B463046DC
